{
	"contracts/customERC20.sol": {
		"customERC20": {
			"abi": [
				{
					"inputs": [],
					"stateMutability": "nonpayable",
					"type": "constructor"
				},
				{
					"anonymous": false,
					"inputs": [
						{
							"indexed": true,
							"internalType": "address",
							"name": "_owner",
							"type": "address"
						},
						{
							"indexed": true,
							"internalType": "address",
							"name": "_spender",
							"type": "address"
						},
						{
							"indexed": false,
							"internalType": "uint256",
							"name": "_value",
							"type": "uint256"
						}
					],
					"name": "Approval",
					"type": "event"
				},
				{
					"anonymous": false,
					"inputs": [
						{
							"indexed": true,
							"internalType": "address",
							"name": "_from",
							"type": "address"
						},
						{
							"indexed": true,
							"internalType": "address",
							"name": "_to",
							"type": "address"
						},
						{
							"indexed": false,
							"internalType": "uint256",
							"name": "_value",
							"type": "uint256"
						}
					],
					"name": "Transfer",
					"type": "event"
				},
				{
					"inputs": [
						{
							"internalType": "address",
							"name": "_owner",
							"type": "address"
						},
						{
							"internalType": "address",
							"name": "_spender",
							"type": "address"
						}
					],
					"name": "allowance",
					"outputs": [
						{
							"internalType": "uint256",
							"name": "",
							"type": "uint256"
						}
					],
					"stateMutability": "view",
					"type": "function"
				},
				{
					"inputs": [
						{
							"internalType": "address",
							"name": "_spender",
							"type": "address"
						},
						{
							"internalType": "uint256",
							"name": "_amount",
							"type": "uint256"
						}
					],
					"name": "approve",
					"outputs": [
						{
							"internalType": "bool",
							"name": "",
							"type": "bool"
						}
					],
					"stateMutability": "nonpayable",
					"type": "function"
				},
				{
					"inputs": [
						{
							"internalType": "address",
							"name": "_account",
							"type": "address"
						}
					],
					"name": "balanceOf",
					"outputs": [
						{
							"internalType": "uint256",
							"name": "",
							"type": "uint256"
						}
					],
					"stateMutability": "view",
					"type": "function"
				},
				{
					"inputs": [],
					"name": "createTokens",
					"outputs": [],
					"stateMutability": "nonpayable",
					"type": "function"
				},
				{
					"inputs": [
						{
							"internalType": "address",
							"name": "_spender",
							"type": "address"
						},
						{
							"internalType": "uint256",
							"name": "_decreaseValue",
							"type": "uint256"
						}
					],
					"name": "decreaseAllowance",
					"outputs": [
						{
							"internalType": "bool",
							"name": "",
							"type": "bool"
						}
					],
					"stateMutability": "nonpayable",
					"type": "function"
				},
				{
					"inputs": [
						{
							"internalType": "address",
							"name": "_spender",
							"type": "address"
						},
						{
							"internalType": "uint256",
							"name": "_addedValue",
							"type": "uint256"
						}
					],
					"name": "incrementAllowance",
					"outputs": [
						{
							"internalType": "bool",
							"name": "",
							"type": "bool"
						}
					],
					"stateMutability": "nonpayable",
					"type": "function"
				},
				{
					"inputs": [],
					"name": "token_decimals",
					"outputs": [
						{
							"internalType": "uint8",
							"name": "",
							"type": "uint8"
						}
					],
					"stateMutability": "view",
					"type": "function"
				},
				{
					"inputs": [],
					"name": "token_name",
					"outputs": [
						{
							"internalType": "string",
							"name": "",
							"type": "string"
						}
					],
					"stateMutability": "view",
					"type": "function"
				},
				{
					"inputs": [],
					"name": "token_symbol",
					"outputs": [
						{
							"internalType": "string",
							"name": "",
							"type": "string"
						}
					],
					"stateMutability": "view",
					"type": "function"
				},
				{
					"inputs": [],
					"name": "totalSupply",
					"outputs": [
						{
							"internalType": "uint256",
							"name": "",
							"type": "uint256"
						}
					],
					"stateMutability": "view",
					"type": "function"
				},
				{
					"inputs": [
						{
							"internalType": "address",
							"name": "_to",
							"type": "address"
						},
						{
							"internalType": "uint256",
							"name": "_amount",
							"type": "uint256"
						}
					],
					"name": "transfer",
					"outputs": [
						{
							"internalType": "bool",
							"name": "",
							"type": "bool"
						}
					],
					"stateMutability": "nonpayable",
					"type": "function"
				},
				{
					"inputs": [
						{
							"internalType": "address",
							"name": "_from",
							"type": "address"
						},
						{
							"internalType": "address",
							"name": "_to",
							"type": "address"
						},
						{
							"internalType": "uint256",
							"name": "_amount",
							"type": "uint256"
						}
					],
					"name": "transferFrom",
					"outputs": [
						{
							"internalType": "bool",
							"name": "",
							"type": "bool"
						}
					],
					"stateMutability": "nonpayable",
					"type": "function"
				}
			],
			"devdoc": {
				"kind": "dev",
				"methods": {},
				"version": 1
			},
			"evm": {
				"assembly": "    /* \"contracts/customERC20.sol\":82:292  contract customERC20 is ERC20 {... */\n  mstore(0x40, 0x80)\n    /* \"contracts/customERC20.sol\":118:156  constructor() ERC20(\"SANTINO\",\"SA\") {} */\n  callvalue\n  dup1\n  iszero\n  tag_1\n  jumpi\n  0x00\n  dup1\n  revert\ntag_1:\n  pop\n    /* \"contracts/ERC-20.sol\":2005:2115  constructor(string memory _name, string memory _symbol){... */\n  mload(0x40)\n  dup1\n  0x40\n  add\n  0x40\n  mstore\n  dup1\n  0x07\n  dup2\n  mstore\n  0x20\n  add\n  0x53414e54494e4f00000000000000000000000000000000000000000000000000\n  dup2\n  mstore\n  pop\n  mload(0x40)\n  dup1\n  0x40\n  add\n  0x40\n  mstore\n  dup1\n  0x02\n  dup2\n  mstore\n  0x20\n  add\n  0x5341000000000000000000000000000000000000000000000000000000000000\n  dup2\n  mstore\n  pop\n    /* \"contracts/ERC-20.sol\":2077:2082  _name */\n  dup2\n    /* \"contracts/ERC-20.sol\":2070:2074  name */\n  0x03\n    /* \"contracts/ERC-20.sol\":2070:2082  name = _name */\n  swap1\n  dup2\n  tag_5\n  swap2\n  swap1\n  tag_6\n  jump\t// in\ntag_5:\n  pop\n    /* \"contracts/ERC-20.sol\":2101:2108  _symbol */\n  dup1\n    /* \"contracts/ERC-20.sol\":2092:2098  symbol */\n  0x04\n    /* \"contracts/ERC-20.sol\":2092:2108  symbol = _symbol */\n  swap1\n  dup2\n  tag_7\n  swap2\n  swap1\n  tag_6\n  jump\t// in\ntag_7:\n  pop\n    /* \"contracts/ERC-20.sol\":2005:2115  constructor(string memory _name, string memory _symbol){... */\n  pop\n  pop\n    /* \"contracts/customERC20.sol\":82:292  contract customERC20 is ERC20 {... */\n  jump(tag_9)\n    /* \"#utility.yul\":7:106   */\ntag_10:\n    /* \"#utility.yul\":59:65   */\n  0x00\n    /* \"#utility.yul\":93:98   */\n  dup2\n    /* \"#utility.yul\":87:99   */\n  mload\n    /* \"#utility.yul\":77:99   */\n  swap1\n  pop\n    /* \"#utility.yul\":7:106   */\n  swap2\n  swap1\n  pop\n  jump\t// out\n    /* \"#utility.yul\":112:292   */\ntag_11:\n    /* \"#utility.yul\":160:237   */\n  0x4e487b7100000000000000000000000000000000000000000000000000000000\n    /* \"#utility.yul\":157:158   */\n  0x00\n    /* \"#utility.yul\":150:238   */\n  mstore\n    /* \"#utility.yul\":257:261   */\n  0x41\n    /* \"#utility.yul\":254:255   */\n  0x04\n    /* \"#utility.yul\":247:262   */\n  mstore\n    /* \"#utility.yul\":281:285   */\n  0x24\n    /* \"#utility.yul\":278:279   */\n  0x00\n    /* \"#utility.yul\":271:286   */\n  revert\n    /* \"#utility.yul\":298:478   */\ntag_12:\n    /* \"#utility.yul\":346:423   */\n  0x4e487b7100000000000000000000000000000000000000000000000000000000\n    /* \"#utility.yul\":343:344   */\n  0x00\n    /* \"#utility.yul\":336:424   */\n  mstore\n    /* \"#utility.yul\":443:447   */\n  0x22\n    /* \"#utility.yul\":440:441   */\n  0x04\n    /* \"#utility.yul\":433:448   */\n  mstore\n    /* \"#utility.yul\":467:471   */\n  0x24\n    /* \"#utility.yul\":464:465   */\n  0x00\n    /* \"#utility.yul\":457:472   */\n  revert\n    /* \"#utility.yul\":484:804   */\ntag_13:\n    /* \"#utility.yul\":528:534   */\n  0x00\n    /* \"#utility.yul\":565:566   */\n  0x02\n    /* \"#utility.yul\":559:563   */\n  dup3\n    /* \"#utility.yul\":555:567   */\n  div\n    /* \"#utility.yul\":545:567   */\n  swap1\n  pop\n    /* \"#utility.yul\":612:613   */\n  0x01\n    /* \"#utility.yul\":606:610   */\n  dup3\n    /* \"#utility.yul\":602:614   */\n  and\n    /* \"#utility.yul\":633:651   */\n  dup1\n    /* \"#utility.yul\":623:704   */\n  tag_35\n  jumpi\n    /* \"#utility.yul\":689:693   */\n  0x7f\n    /* \"#utility.yul\":681:687   */\n  dup3\n    /* \"#utility.yul\":677:694   */\n  and\n    /* \"#utility.yul\":667:694   */\n  swap2\n  pop\n    /* \"#utility.yul\":623:704   */\ntag_35:\n    /* \"#utility.yul\":751:753   */\n  0x20\n    /* \"#utility.yul\":743:749   */\n  dup3\n    /* \"#utility.yul\":740:754   */\n  lt\n    /* \"#utility.yul\":720:738   */\n  dup2\n    /* \"#utility.yul\":717:755   */\n  sub\n    /* \"#utility.yul\":714:798   */\n  tag_36\n  jumpi\n    /* \"#utility.yul\":770:788   */\n  tag_37\n  tag_12\n  jump\t// in\ntag_37:\n    /* \"#utility.yul\":714:798   */\ntag_36:\n    /* \"#utility.yul\":535:804   */\n  pop\n    /* \"#utility.yul\":484:804   */\n  swap2\n  swap1\n  pop\n  jump\t// out\n    /* \"#utility.yul\":810:951   */\ntag_14:\n    /* \"#utility.yul\":859:863   */\n  0x00\n    /* \"#utility.yul\":882:885   */\n  dup2\n    /* \"#utility.yul\":874:885   */\n  swap1\n  pop\n    /* \"#utility.yul\":905:908   */\n  dup2\n    /* \"#utility.yul\":902:903   */\n  0x00\n    /* \"#utility.yul\":895:909   */\n  mstore\n    /* \"#utility.yul\":939:943   */\n  0x20\n    /* \"#utility.yul\":936:937   */\n  0x00\n    /* \"#utility.yul\":926:944   */\n  keccak256\n    /* \"#utility.yul\":918:944   */\n  swap1\n  pop\n    /* \"#utility.yul\":810:951   */\n  swap2\n  swap1\n  pop\n  jump\t// out\n    /* \"#utility.yul\":957:1050   */\ntag_15:\n    /* \"#utility.yul\":994:1000   */\n  0x00\n    /* \"#utility.yul\":1041:1043   */\n  0x20\n    /* \"#utility.yul\":1036:1038   */\n  0x1f\n    /* \"#utility.yul\":1029:1034   */\n  dup4\n    /* \"#utility.yul\":1025:1039   */\n  add\n    /* \"#utility.yul\":1021:1044   */\n  div\n    /* \"#utility.yul\":1011:1044   */\n  swap1\n  pop\n    /* \"#utility.yul\":957:1050   */\n  swap2\n  swap1\n  pop\n  jump\t// out\n    /* \"#utility.yul\":1056:1163   */\ntag_16:\n    /* \"#utility.yul\":1100:1108   */\n  0x00\n    /* \"#utility.yul\":1150:1155   */\n  dup3\n    /* \"#utility.yul\":1144:1148   */\n  dup3\n    /* \"#utility.yul\":1140:1156   */\n  shl\n    /* \"#utility.yul\":1119:1156   */\n  swap1\n  pop\n    /* \"#utility.yul\":1056:1163   */\n  swap3\n  swap2\n  pop\n  pop\n  jump\t// out\n    /* \"#utility.yul\":1169:1562   */\ntag_17:\n    /* \"#utility.yul\":1238:1244   */\n  0x00\n    /* \"#utility.yul\":1288:1289   */\n  0x08\n    /* \"#utility.yul\":1276:1286   */\n  dup4\n    /* \"#utility.yul\":1272:1290   */\n  mul\n    /* \"#utility.yul\":1311:1408   */\n  tag_42\n    /* \"#utility.yul\":1341:1407   */\n  0xffffffffffffffffffffffffffffffffffffffffffffffffffffffffffffffff\n    /* \"#utility.yul\":1330:1339   */\n  dup3\n    /* \"#utility.yul\":1311:1408   */\n  tag_16\n  jump\t// in\ntag_42:\n    /* \"#utility.yul\":1429:1468   */\n  tag_43\n    /* \"#utility.yul\":1459:1467   */\n  dup7\n    /* \"#utility.yul\":1448:1457   */\n  dup4\n    /* \"#utility.yul\":1429:1468   */\n  tag_16\n  jump\t// in\ntag_43:\n    /* \"#utility.yul\":1417:1468   */\n  swap6\n  pop\n    /* \"#utility.yul\":1501:1505   */\n  dup1\n    /* \"#utility.yul\":1497:1506   */\n  not\n    /* \"#utility.yul\":1490:1495   */\n  dup5\n    /* \"#utility.yul\":1486:1507   */\n  and\n    /* \"#utility.yul\":1477:1507   */\n  swap4\n  pop\n    /* \"#utility.yul\":1550:1554   */\n  dup1\n    /* \"#utility.yul\":1540:1548   */\n  dup7\n    /* \"#utility.yul\":1536:1555   */\n  and\n    /* \"#utility.yul\":1529:1534   */\n  dup5\n    /* \"#utility.yul\":1526:1556   */\n  or\n    /* \"#utility.yul\":1516:1556   */\n  swap3\n  pop\n    /* \"#utility.yul\":1245:1562   */\n  pop\n  pop\n    /* \"#utility.yul\":1169:1562   */\n  swap4\n  swap3\n  pop\n  pop\n  pop\n  jump\t// out\n    /* \"#utility.yul\":1568:1645   */\ntag_18:\n    /* \"#utility.yul\":1605:1612   */\n  0x00\n    /* \"#utility.yul\":1634:1639   */\n  dup2\n    /* \"#utility.yul\":1623:1639   */\n  swap1\n  pop\n    /* \"#utility.yul\":1568:1645   */\n  swap2\n  swap1\n  pop\n  jump\t// out\n    /* \"#utility.yul\":1651:1711   */\ntag_19:\n    /* \"#utility.yul\":1679:1682   */\n  0x00\n    /* \"#utility.yul\":1700:1705   */\n  dup2\n    /* \"#utility.yul\":1693:1705   */\n  swap1\n  pop\n    /* \"#utility.yul\":1651:1711   */\n  swap2\n  swap1\n  pop\n  jump\t// out\n    /* \"#utility.yul\":1717:1859   */\ntag_20:\n    /* \"#utility.yul\":1767:1776   */\n  0x00\n    /* \"#utility.yul\":1800:1853   */\n  tag_47\n    /* \"#utility.yul\":1818:1852   */\n  tag_48\n    /* \"#utility.yul\":1827:1851   */\n  tag_49\n    /* \"#utility.yul\":1845:1850   */\n  dup5\n    /* \"#utility.yul\":1827:1851   */\n  tag_18\n  jump\t// in\ntag_49:\n    /* \"#utility.yul\":1818:1852   */\n  tag_19\n  jump\t// in\ntag_48:\n    /* \"#utility.yul\":1800:1853   */\n  tag_18\n  jump\t// in\ntag_47:\n    /* \"#utility.yul\":1787:1853   */\n  swap1\n  pop\n    /* \"#utility.yul\":1717:1859   */\n  swap2\n  swap1\n  pop\n  jump\t// out\n    /* \"#utility.yul\":1865:1940   */\ntag_21:\n    /* \"#utility.yul\":1908:1911   */\n  0x00\n    /* \"#utility.yul\":1929:1934   */\n  dup2\n    /* \"#utility.yul\":1922:1934   */\n  swap1\n  pop\n    /* \"#utility.yul\":1865:1940   */\n  swap2\n  swap1\n  pop\n  jump\t// out\n    /* \"#utility.yul\":1946:2215   */\ntag_22:\n    /* \"#utility.yul\":2056:2095   */\n  tag_52\n    /* \"#utility.yul\":2087:2094   */\n  dup4\n    /* \"#utility.yul\":2056:2095   */\n  tag_20\n  jump\t// in\ntag_52:\n    /* \"#utility.yul\":2117:2208   */\n  tag_53\n    /* \"#utility.yul\":2166:2207   */\n  tag_54\n    /* \"#utility.yul\":2190:2206   */\n  dup3\n    /* \"#utility.yul\":2166:2207   */\n  tag_21\n  jump\t// in\ntag_54:\n    /* \"#utility.yul\":2158:2164   */\n  dup5\n    /* \"#utility.yul\":2151:2155   */\n  dup5\n    /* \"#utility.yul\":2145:2156   */\n  sload\n    /* \"#utility.yul\":2117:2208   */\n  tag_17\n  jump\t// in\ntag_53:\n    /* \"#utility.yul\":2111:2115   */\n  dup3\n    /* \"#utility.yul\":2104:2209   */\n  sstore\n    /* \"#utility.yul\":2022:2215   */\n  pop\n    /* \"#utility.yul\":1946:2215   */\n  pop\n  pop\n  pop\n  jump\t// out\n    /* \"#utility.yul\":2221:2294   */\ntag_23:\n    /* \"#utility.yul\":2266:2269   */\n  0x00\n    /* \"#utility.yul\":2221:2294   */\n  swap1\n  jump\t// out\n    /* \"#utility.yul\":2300:2489   */\ntag_24:\n    /* \"#utility.yul\":2377:2409   */\n  tag_57\n  tag_23\n  jump\t// in\ntag_57:\n    /* \"#utility.yul\":2418:2483   */\n  tag_58\n    /* \"#utility.yul\":2476:2482   */\n  dup2\n    /* \"#utility.yul\":2468:2474   */\n  dup5\n    /* \"#utility.yul\":2462:2466   */\n  dup5\n    /* \"#utility.yul\":2418:2483   */\n  tag_22\n  jump\t// in\ntag_58:\n    /* \"#utility.yul\":2353:2489   */\n  pop\n    /* \"#utility.yul\":2300:2489   */\n  pop\n  pop\n  jump\t// out\n    /* \"#utility.yul\":2495:2681   */\ntag_25:\n    /* \"#utility.yul\":2555:2675   */\ntag_60:\n    /* \"#utility.yul\":2572:2575   */\n  dup2\n    /* \"#utility.yul\":2565:2570   */\n  dup2\n    /* \"#utility.yul\":2562:2576   */\n  lt\n    /* \"#utility.yul\":2555:2675   */\n  iszero\n  tag_62\n  jumpi\n    /* \"#utility.yul\":2626:2665   */\n  tag_63\n    /* \"#utility.yul\":2663:2664   */\n  0x00\n    /* \"#utility.yul\":2656:2661   */\n  dup3\n    /* \"#utility.yul\":2626:2665   */\n  tag_24\n  jump\t// in\ntag_63:\n    /* \"#utility.yul\":2599:2600   */\n  0x01\n    /* \"#utility.yul\":2592:2597   */\n  dup2\n    /* \"#utility.yul\":2588:2601   */\n  add\n    /* \"#utility.yul\":2579:2601   */\n  swap1\n  pop\n    /* \"#utility.yul\":2555:2675   */\n  jump(tag_60)\ntag_62:\n    /* \"#utility.yul\":2495:2681   */\n  pop\n  pop\n  jump\t// out\n    /* \"#utility.yul\":2687:3230   */\ntag_26:\n    /* \"#utility.yul\":2788:2790   */\n  0x1f\n    /* \"#utility.yul\":2783:2786   */\n  dup3\n    /* \"#utility.yul\":2780:2791   */\n  gt\n    /* \"#utility.yul\":2777:3223   */\n  iszero\n  tag_65\n  jumpi\n    /* \"#utility.yul\":2822:2860   */\n  tag_66\n    /* \"#utility.yul\":2854:2859   */\n  dup2\n    /* \"#utility.yul\":2822:2860   */\n  tag_14\n  jump\t// in\ntag_66:\n    /* \"#utility.yul\":2906:2935   */\n  tag_67\n    /* \"#utility.yul\":2924:2934   */\n  dup5\n    /* \"#utility.yul\":2906:2935   */\n  tag_15\n  jump\t// in\ntag_67:\n    /* \"#utility.yul\":2896:2904   */\n  dup2\n    /* \"#utility.yul\":2892:2936   */\n  add\n    /* \"#utility.yul\":3089:3091   */\n  0x20\n    /* \"#utility.yul\":3077:3087   */\n  dup6\n    /* \"#utility.yul\":3074:3092   */\n  lt\n    /* \"#utility.yul\":3071:3120   */\n  iszero\n  tag_68\n  jumpi\n    /* \"#utility.yul\":3110:3118   */\n  dup2\n    /* \"#utility.yul\":3095:3118   */\n  swap1\n  pop\n    /* \"#utility.yul\":3071:3120   */\ntag_68:\n    /* \"#utility.yul\":3133:3213   */\n  tag_69\n    /* \"#utility.yul\":3189:3211   */\n  tag_70\n    /* \"#utility.yul\":3207:3210   */\n  dup6\n    /* \"#utility.yul\":3189:3211   */\n  tag_15\n  jump\t// in\ntag_70:\n    /* \"#utility.yul\":3179:3187   */\n  dup4\n    /* \"#utility.yul\":3175:3212   */\n  add\n    /* \"#utility.yul\":3162:3173   */\n  dup3\n    /* \"#utility.yul\":3133:3213   */\n  tag_25\n  jump\t// in\ntag_69:\n    /* \"#utility.yul\":2792:3223   */\n  pop\n  pop\n    /* \"#utility.yul\":2777:3223   */\ntag_65:\n    /* \"#utility.yul\":2687:3230   */\n  pop\n  pop\n  pop\n  jump\t// out\n    /* \"#utility.yul\":3236:3353   */\ntag_27:\n    /* \"#utility.yul\":3290:3298   */\n  0x00\n    /* \"#utility.yul\":3340:3345   */\n  dup3\n    /* \"#utility.yul\":3334:3338   */\n  dup3\n    /* \"#utility.yul\":3330:3346   */\n  shr\n    /* \"#utility.yul\":3309:3346   */\n  swap1\n  pop\n    /* \"#utility.yul\":3236:3353   */\n  swap3\n  swap2\n  pop\n  pop\n  jump\t// out\n    /* \"#utility.yul\":3359:3528   */\ntag_28:\n    /* \"#utility.yul\":3403:3409   */\n  0x00\n    /* \"#utility.yul\":3436:3487   */\n  tag_73\n    /* \"#utility.yul\":3484:3485   */\n  0x00\n    /* \"#utility.yul\":3480:3486   */\n  not\n    /* \"#utility.yul\":3472:3477   */\n  dup5\n    /* \"#utility.yul\":3469:3470   */\n  0x08\n    /* \"#utility.yul\":3465:3478   */\n  mul\n    /* \"#utility.yul\":3436:3487   */\n  tag_27\n  jump\t// in\ntag_73:\n    /* \"#utility.yul\":3432:3488   */\n  not\n    /* \"#utility.yul\":3517:3521   */\n  dup1\n    /* \"#utility.yul\":3511:3515   */\n  dup4\n    /* \"#utility.yul\":3507:3522   */\n  and\n    /* \"#utility.yul\":3497:3522   */\n  swap2\n  pop\n    /* \"#utility.yul\":3410:3528   */\n  pop\n    /* \"#utility.yul\":3359:3528   */\n  swap3\n  swap2\n  pop\n  pop\n  jump\t// out\n    /* \"#utility.yul\":3533:3828   */\ntag_29:\n    /* \"#utility.yul\":3609:3613   */\n  0x00\n    /* \"#utility.yul\":3755:3784   */\n  tag_75\n    /* \"#utility.yul\":3780:3783   */\n  dup4\n    /* \"#utility.yul\":3774:3778   */\n  dup4\n    /* \"#utility.yul\":3755:3784   */\n  tag_28\n  jump\t// in\ntag_75:\n    /* \"#utility.yul\":3747:3784   */\n  swap2\n  pop\n    /* \"#utility.yul\":3817:3820   */\n  dup3\n    /* \"#utility.yul\":3814:3815   */\n  0x02\n    /* \"#utility.yul\":3810:3821   */\n  mul\n    /* \"#utility.yul\":3804:3808   */\n  dup3\n    /* \"#utility.yul\":3801:3822   */\n  or\n    /* \"#utility.yul\":3793:3822   */\n  swap1\n  pop\n    /* \"#utility.yul\":3533:3828   */\n  swap3\n  swap2\n  pop\n  pop\n  jump\t// out\n    /* \"#utility.yul\":3833:5228   */\ntag_6:\n    /* \"#utility.yul\":3950:3987   */\n  tag_77\n    /* \"#utility.yul\":3983:3986   */\n  dup3\n    /* \"#utility.yul\":3950:3987   */\n  tag_10\n  jump\t// in\ntag_77:\n    /* \"#utility.yul\":4052:4070   */\n  0xffffffffffffffff\n    /* \"#utility.yul\":4044:4050   */\n  dup2\n    /* \"#utility.yul\":4041:4071   */\n  gt\n    /* \"#utility.yul\":4038:4094   */\n  iszero\n  tag_78\n  jumpi\n    /* \"#utility.yul\":4074:4092   */\n  tag_79\n  tag_11\n  jump\t// in\ntag_79:\n    /* \"#utility.yul\":4038:4094   */\ntag_78:\n    /* \"#utility.yul\":4118:4156   */\n  tag_80\n    /* \"#utility.yul\":4150:4154   */\n  dup3\n    /* \"#utility.yul\":4144:4155   */\n  sload\n    /* \"#utility.yul\":4118:4156   */\n  tag_13\n  jump\t// in\ntag_80:\n    /* \"#utility.yul\":4203:4270   */\n  tag_81\n    /* \"#utility.yul\":4263:4269   */\n  dup3\n    /* \"#utility.yul\":4255:4261   */\n  dup3\n    /* \"#utility.yul\":4249:4253   */\n  dup6\n    /* \"#utility.yul\":4203:4270   */\n  tag_26\n  jump\t// in\ntag_81:\n    /* \"#utility.yul\":4297:4298   */\n  0x00\n    /* \"#utility.yul\":4321:4325   */\n  0x20\n    /* \"#utility.yul\":4308:4325   */\n  swap1\n  pop\n    /* \"#utility.yul\":4353:4355   */\n  0x1f\n    /* \"#utility.yul\":4345:4351   */\n  dup4\n    /* \"#utility.yul\":4342:4356   */\n  gt\n    /* \"#utility.yul\":4370:4371   */\n  0x01\n    /* \"#utility.yul\":4365:4983   */\n  dup2\n  eq\n  tag_83\n  jumpi\n    /* \"#utility.yul\":5027:5028   */\n  0x00\n    /* \"#utility.yul\":5044:5050   */\n  dup5\n    /* \"#utility.yul\":5041:5118   */\n  iszero\n  tag_84\n  jumpi\n    /* \"#utility.yul\":5093:5102   */\n  dup3\n    /* \"#utility.yul\":5088:5091   */\n  dup8\n    /* \"#utility.yul\":5084:5103   */\n  add\n    /* \"#utility.yul\":5078:5104   */\n  mload\n    /* \"#utility.yul\":5069:5104   */\n  swap1\n  pop\n    /* \"#utility.yul\":5041:5118   */\ntag_84:\n    /* \"#utility.yul\":5144:5211   */\n  tag_85\n    /* \"#utility.yul\":5204:5210   */\n  dup6\n    /* \"#utility.yul\":5197:5202   */\n  dup3\n    /* \"#utility.yul\":5144:5211   */\n  tag_29\n  jump\t// in\ntag_85:\n    /* \"#utility.yul\":5138:5142   */\n  dup7\n    /* \"#utility.yul\":5131:5212   */\n  sstore\n    /* \"#utility.yul\":5000:5222   */\n  pop\n    /* \"#utility.yul\":4335:5222   */\n  jump(tag_82)\n    /* \"#utility.yul\":4365:4983   */\ntag_83:\n    /* \"#utility.yul\":4417:4421   */\n  0x1f\n    /* \"#utility.yul\":4413:4422   */\n  not\n    /* \"#utility.yul\":4405:4411   */\n  dup5\n    /* \"#utility.yul\":4401:4423   */\n  and\n    /* \"#utility.yul\":4451:4488   */\n  tag_86\n    /* \"#utility.yul\":4483:4487   */\n  dup7\n    /* \"#utility.yul\":4451:4488   */\n  tag_14\n  jump\t// in\ntag_86:\n    /* \"#utility.yul\":4510:4511   */\n  0x00\n    /* \"#utility.yul\":4524:4732   */\ntag_87:\n    /* \"#utility.yul\":4538:4545   */\n  dup3\n    /* \"#utility.yul\":4535:4536   */\n  dup2\n    /* \"#utility.yul\":4532:4546   */\n  lt\n    /* \"#utility.yul\":4524:4732   */\n  iszero\n  tag_89\n  jumpi\n    /* \"#utility.yul\":4617:4626   */\n  dup5\n    /* \"#utility.yul\":4612:4615   */\n  dup10\n    /* \"#utility.yul\":4608:4627   */\n  add\n    /* \"#utility.yul\":4602:4628   */\n  mload\n    /* \"#utility.yul\":4594:4600   */\n  dup3\n    /* \"#utility.yul\":4587:4629   */\n  sstore\n    /* \"#utility.yul\":4668:4669   */\n  0x01\n    /* \"#utility.yul\":4660:4666   */\n  dup3\n    /* \"#utility.yul\":4656:4670   */\n  add\n    /* \"#utility.yul\":4646:4670   */\n  swap2\n  pop\n    /* \"#utility.yul\":4715:4717   */\n  0x20\n    /* \"#utility.yul\":4704:4713   */\n  dup6\n    /* \"#utility.yul\":4700:4718   */\n  add\n    /* \"#utility.yul\":4687:4718   */\n  swap5\n  pop\n    /* \"#utility.yul\":4561:4565   */\n  0x20\n    /* \"#utility.yul\":4558:4559   */\n  dup2\n    /* \"#utility.yul\":4554:4566   */\n  add\n    /* \"#utility.yul\":4549:4566   */\n  swap1\n  pop\n    /* \"#utility.yul\":4524:4732   */\n  jump(tag_87)\ntag_89:\n    /* \"#utility.yul\":4760:4766   */\n  dup7\n    /* \"#utility.yul\":4751:4758   */\n  dup4\n    /* \"#utility.yul\":4748:4767   */\n  lt\n    /* \"#utility.yul\":4745:4924   */\n  iszero\n  tag_90\n  jumpi\n    /* \"#utility.yul\":4818:4827   */\n  dup5\n    /* \"#utility.yul\":4813:4816   */\n  dup10\n    /* \"#utility.yul\":4809:4828   */\n  add\n    /* \"#utility.yul\":4803:4829   */\n  mload\n    /* \"#utility.yul\":4861:4909   */\n  tag_91\n    /* \"#utility.yul\":4903:4907   */\n  0x1f\n    /* \"#utility.yul\":4895:4901   */\n  dup10\n    /* \"#utility.yul\":4891:4908   */\n  and\n    /* \"#utility.yul\":4880:4889   */\n  dup3\n    /* \"#utility.yul\":4861:4909   */\n  tag_28\n  jump\t// in\ntag_91:\n    /* \"#utility.yul\":4853:4859   */\n  dup4\n    /* \"#utility.yul\":4846:4910   */\n  sstore\n    /* \"#utility.yul\":4768:4924   */\n  pop\n    /* \"#utility.yul\":4745:4924   */\ntag_90:\n    /* \"#utility.yul\":4970:4971   */\n  0x01\n    /* \"#utility.yul\":4966:4967   */\n  0x02\n    /* \"#utility.yul\":4958:4964   */\n  dup9\n    /* \"#utility.yul\":4954:4968   */\n  mul\n    /* \"#utility.yul\":4950:4972   */\n  add\n    /* \"#utility.yul\":4944:4948   */\n  dup9\n    /* \"#utility.yul\":4937:4973   */\n  sstore\n    /* \"#utility.yul\":4372:4983   */\n  pop\n  pop\n  pop\n    /* \"#utility.yul\":4335:5222   */\ntag_82:\n  pop\n    /* \"#utility.yul\":3925:5228   */\n  pop\n  pop\n  pop\n    /* \"#utility.yul\":3833:5228   */\n  pop\n  pop\n  jump\t// out\n    /* \"contracts/customERC20.sol\":82:292  contract customERC20 is ERC20 {... */\ntag_9:\n  dataSize(sub_0)\n  dup1\n  dataOffset(sub_0)\n  0x00\n  codecopy\n  0x00\n  return\nstop\n\nsub_0: assembly {\n        /* \"contracts/customERC20.sol\":82:292  contract customERC20 is ERC20 {... */\n      mstore(0x40, 0x80)\n      callvalue\n      dup1\n      iszero\n      tag_1\n      jumpi\n      0x00\n      dup1\n      revert\n    tag_1:\n      pop\n      jumpi(tag_2, lt(calldatasize, 0x04))\n      shr(0xe0, calldataload(0x00))\n      dup1\n      0x8cbc1a76\n      gt\n      tag_15\n      jumpi\n      dup1\n      0x8cbc1a76\n      eq\n      tag_9\n      jumpi\n      dup1\n      0x947a3168\n      eq\n      tag_10\n      jumpi\n      dup1\n      0xa457c2d7\n      eq\n      tag_11\n      jumpi\n      dup1\n      0xa9059cbb\n      eq\n      tag_12\n      jumpi\n      dup1\n      0xb4427263\n      eq\n      tag_13\n      jumpi\n      dup1\n      0xdd62ed3e\n      eq\n      tag_14\n      jumpi\n      jump(tag_2)\n    tag_15:\n      dup1\n      0x095ea7b3\n      eq\n      tag_3\n      jumpi\n      dup1\n      0x18160ddd\n      eq\n      tag_4\n      jumpi\n      dup1\n      0x1f772a34\n      eq\n      tag_5\n      jumpi\n      dup1\n      0x23b872dd\n      eq\n      tag_6\n      jumpi\n      dup1\n      0x3c4b303d\n      eq\n      tag_7\n      jumpi\n      dup1\n      0x70a08231\n      eq\n      tag_8\n      jumpi\n    tag_2:\n      0x00\n      dup1\n      revert\n        /* \"contracts/ERC-20.sol\":3097:3294  function approve(address _spender, uint256 _amount) public  virtual override returns (bool){... */\n    tag_3:\n      tag_16\n      0x04\n      dup1\n      calldatasize\n      sub\n      dup2\n      add\n      swap1\n      tag_17\n      swap2\n      swap1\n      tag_18\n      jump\t// in\n    tag_17:\n      tag_19\n      jump\t// in\n    tag_16:\n      mload(0x40)\n      tag_20\n      swap2\n      swap1\n      tag_21\n      jump\t// in\n    tag_20:\n      mload(0x40)\n      dup1\n      swap2\n      sub\n      swap1\n      return\n        /* \"contracts/ERC-20.sol\":2417:2522  function totalSupply() public view virtual override returns (uint256){... */\n    tag_4:\n      tag_22\n      tag_23\n      jump\t// in\n    tag_22:\n      mload(0x40)\n      tag_24\n      swap2\n      swap1\n      tag_25\n      jump\t// in\n    tag_24:\n      mload(0x40)\n      dup1\n      swap2\n      sub\n      swap1\n      return\n        /* \"contracts/ERC-20.sol\":2220:2318  function token_symbol() public view virtual returns (string memory) {... */\n    tag_5:\n      tag_26\n      tag_27\n      jump\t// in\n    tag_26:\n      mload(0x40)\n      tag_28\n      swap2\n      swap1\n      tag_29\n      jump\t// in\n    tag_28:\n      mload(0x40)\n      dup1\n      swap2\n      sub\n      swap1\n      return\n        /* \"contracts/ERC-20.sol\":3300:3605  function transferFrom(... */\n    tag_6:\n      tag_30\n      0x04\n      dup1\n      calldatasize\n      sub\n      dup2\n      add\n      swap1\n      tag_31\n      swap2\n      swap1\n      tag_32\n      jump\t// in\n    tag_31:\n      tag_33\n      jump\t// in\n    tag_30:\n      mload(0x40)\n      tag_34\n      swap2\n      swap1\n      tag_21\n      jump\t// in\n    tag_34:\n      mload(0x40)\n      dup1\n      swap2\n      sub\n      swap1\n      return\n        /* \"contracts/ERC-20.sol\":2324:2411  function token_decimals() public view virtual returns (uint8){... */\n    tag_7:\n      tag_35\n      tag_36\n      jump\t// in\n    tag_35:\n      mload(0x40)\n      tag_37\n      swap2\n      swap1\n      tag_38\n      jump\t// in\n    tag_37:\n      mload(0x40)\n      dup1\n      swap2\n      sub\n      swap1\n      return\n        /* \"contracts/ERC-20.sol\":2528:2659  function balanceOf(address _account) public view virtual override returns (uint256){... */\n    tag_8:\n      tag_39\n      0x04\n      dup1\n      calldatasize\n      sub\n      dup2\n      add\n      swap1\n      tag_40\n      swap2\n      swap1\n      tag_41\n      jump\t// in\n    tag_40:\n      tag_42\n      jump\t// in\n    tag_39:\n      mload(0x40)\n      tag_43\n      swap2\n      swap1\n      tag_25\n      jump\t// in\n    tag_43:\n      mload(0x40)\n      dup1\n      swap2\n      sub\n      swap1\n      return\n        /* \"contracts/ERC-20.sol\":3611:3856  function incrementAllowance(address _spender, uint256 _addedValue) public virtual returns (bool) {... */\n    tag_9:\n      tag_44\n      0x04\n      dup1\n      calldatasize\n      sub\n      dup2\n      add\n      swap1\n      tag_45\n      swap2\n      swap1\n      tag_18\n      jump\t// in\n    tag_45:\n      tag_46\n      jump\t// in\n    tag_44:\n      mload(0x40)\n      tag_47\n      swap2\n      swap1\n      tag_21\n      jump\t// in\n    tag_47:\n      mload(0x40)\n      dup1\n      swap2\n      sub\n      swap1\n      return\n        /* \"contracts/ERC-20.sol\":2121:2214  function token_name() public view virtual returns (string memory){... */\n    tag_10:\n      tag_48\n      tag_49\n      jump\t// in\n    tag_48:\n      mload(0x40)\n      tag_50\n      swap2\n      swap1\n      tag_29\n      jump\t// in\n    tag_50:\n      mload(0x40)\n      dup1\n      swap2\n      sub\n      swap1\n      return\n        /* \"contracts/ERC-20.sol\":3862:4313  function decreaseAllowance(address _spender, uint256 _decreaseValue) public virtual returns (bool) {... */\n    tag_11:\n      tag_51\n      0x04\n      dup1\n      calldatasize\n      sub\n      dup2\n      add\n      swap1\n      tag_52\n      swap2\n      swap1\n      tag_18\n      jump\t// in\n    tag_52:\n      tag_53\n      jump\t// in\n    tag_51:\n      mload(0x40)\n      tag_54\n      swap2\n      swap1\n      tag_21\n      jump\t// in\n    tag_54:\n      mload(0x40)\n      dup1\n      swap2\n      sub\n      swap1\n      return\n        /* \"contracts/ERC-20.sol\":2665:2927  function transfer(address _to, uint256 _amount) public virtual override returns (bool) {... */\n    tag_12:\n      tag_55\n      0x04\n      dup1\n      calldatasize\n      sub\n      dup2\n      add\n      swap1\n      tag_56\n      swap2\n      swap1\n      tag_18\n      jump\t// in\n    tag_56:\n      tag_57\n      jump\t// in\n    tag_55:\n      mload(0x40)\n      tag_58\n      swap2\n      swap1\n      tag_21\n      jump\t// in\n    tag_58:\n      mload(0x40)\n      dup1\n      swap2\n      sub\n      swap1\n      return\n        /* \"contracts/customERC20.sol\":162:290  function createTokens() public {... */\n    tag_13:\n      tag_59\n      tag_60\n      jump\t// in\n    tag_59:\n      stop\n        /* \"contracts/ERC-20.sol\":2933:3091  function allowance(address _owner, address _spender) public view virtual override returns (uint256) {... */\n    tag_14:\n      tag_61\n      0x04\n      dup1\n      calldatasize\n      sub\n      dup2\n      add\n      swap1\n      tag_62\n      swap2\n      swap1\n      tag_63\n      jump\t// in\n    tag_62:\n      tag_64\n      jump\t// in\n    tag_61:\n      mload(0x40)\n      tag_65\n      swap2\n      swap1\n      tag_25\n      jump\t// in\n    tag_65:\n      mload(0x40)\n      dup1\n      swap2\n      sub\n      swap1\n      return\n        /* \"contracts/ERC-20.sol\":3097:3294  function approve(address _spender, uint256 _amount) public  virtual override returns (bool){... */\n    tag_19:\n        /* \"contracts/ERC-20.sol\":3183:3187  bool */\n      0x00\n        /* \"contracts/ERC-20.sol\":3198:3211  address owner */\n      dup1\n        /* \"contracts/ERC-20.sol\":3214:3224  msg.sender */\n      caller\n        /* \"contracts/ERC-20.sol\":3198:3224  address owner = msg.sender */\n      swap1\n      pop\n        /* \"contracts/ERC-20.sol\":3234:3266  _approve(owner,_spender,_amount) */\n      tag_67\n        /* \"contracts/ERC-20.sol\":3243:3248  owner */\n      dup2\n        /* \"contracts/ERC-20.sol\":3249:3257  _spender */\n      dup6\n        /* \"contracts/ERC-20.sol\":3258:3265  _amount */\n      dup6\n        /* \"contracts/ERC-20.sol\":3234:3242  _approve */\n      tag_68\n        /* \"contracts/ERC-20.sol\":3234:3266  _approve(owner,_spender,_amount) */\n      jump\t// in\n    tag_67:\n        /* \"contracts/ERC-20.sol\":3283:3287  true */\n      0x01\n        /* \"contracts/ERC-20.sol\":3276:3287  return true */\n      swap2\n      pop\n      pop\n        /* \"contracts/ERC-20.sol\":3097:3294  function approve(address _spender, uint256 _amount) public  virtual override returns (bool){... */\n      swap3\n      swap2\n      pop\n      pop\n      jump\t// out\n        /* \"contracts/ERC-20.sol\":2417:2522  function totalSupply() public view virtual override returns (uint256){... */\n    tag_23:\n        /* \"contracts/ERC-20.sol\":2478:2485  uint256 */\n      0x00\n        /* \"contracts/ERC-20.sol\":2503:2515  total_supply */\n      sload(0x02)\n        /* \"contracts/ERC-20.sol\":2496:2515  return total_supply */\n      swap1\n      pop\n        /* \"contracts/ERC-20.sol\":2417:2522  function totalSupply() public view virtual override returns (uint256){... */\n      swap1\n      jump\t// out\n        /* \"contracts/ERC-20.sol\":2220:2318  function token_symbol() public view virtual returns (string memory) {... */\n    tag_27:\n        /* \"contracts/ERC-20.sol\":2273:2286  string memory */\n      0x60\n        /* \"contracts/ERC-20.sol\":2305:2311  symbol */\n      0x04\n        /* \"contracts/ERC-20.sol\":2298:2311  return symbol */\n      dup1\n      sload\n      tag_71\n      swap1\n      tag_72\n      jump\t// in\n    tag_71:\n      dup1\n      0x1f\n      add\n      0x20\n      dup1\n      swap2\n      div\n      mul\n      0x20\n      add\n      mload(0x40)\n      swap1\n      dup2\n      add\n      0x40\n      mstore\n      dup1\n      swap3\n      swap2\n      swap1\n      dup2\n      dup2\n      mstore\n      0x20\n      add\n      dup3\n      dup1\n      sload\n      tag_73\n      swap1\n      tag_72\n      jump\t// in\n    tag_73:\n      dup1\n      iszero\n      tag_74\n      jumpi\n      dup1\n      0x1f\n      lt\n      tag_75\n      jumpi\n      0x0100\n      dup1\n      dup4\n      sload\n      div\n      mul\n      dup4\n      mstore\n      swap2\n      0x20\n      add\n      swap2\n      jump(tag_74)\n    tag_75:\n      dup3\n      add\n      swap2\n      swap1\n      0x00\n      mstore\n      keccak256(0x00, 0x20)\n      swap1\n    tag_76:\n      dup2\n      sload\n      dup2\n      mstore\n      swap1\n      0x01\n      add\n      swap1\n      0x20\n      add\n      dup1\n      dup4\n      gt\n      tag_76\n      jumpi\n      dup3\n      swap1\n      sub\n      0x1f\n      and\n      dup3\n      add\n      swap2\n    tag_74:\n      pop\n      pop\n      pop\n      pop\n      pop\n      swap1\n      pop\n        /* \"contracts/ERC-20.sol\":2220:2318  function token_symbol() public view virtual returns (string memory) {... */\n      swap1\n      jump\t// out\n        /* \"contracts/ERC-20.sol\":3300:3605  function transferFrom(... */\n    tag_33:\n        /* \"contracts/ERC-20.sol\":3427:3431  bool */\n      0x00\n        /* \"contracts/ERC-20.sol\":3447:3462  address spender */\n      dup1\n        /* \"contracts/ERC-20.sol\":3465:3475  msg.sender */\n      caller\n        /* \"contracts/ERC-20.sol\":3447:3475  address spender = msg.sender */\n      swap1\n      pop\n        /* \"contracts/ERC-20.sol\":3489:3529  _spendAllowance(_from, spender, _amount) */\n      tag_78\n        /* \"contracts/ERC-20.sol\":3505:3510  _from */\n      dup6\n        /* \"contracts/ERC-20.sol\":3512:3519  spender */\n      dup3\n        /* \"contracts/ERC-20.sol\":3521:3528  _amount */\n      dup6\n        /* \"contracts/ERC-20.sol\":3489:3504  _spendAllowance */\n      tag_79\n        /* \"contracts/ERC-20.sol\":3489:3529  _spendAllowance(_from, spender, _amount) */\n      jump\t// in\n    tag_78:\n        /* \"contracts/ERC-20.sol\":3543:3573  _transfer(_from, _to, _amount) */\n      tag_80\n        /* \"contracts/ERC-20.sol\":3553:3558  _from */\n      dup6\n        /* \"contracts/ERC-20.sol\":3560:3563  _to */\n      dup6\n        /* \"contracts/ERC-20.sol\":3565:3572  _amount */\n      dup6\n        /* \"contracts/ERC-20.sol\":3543:3552  _transfer */\n      tag_81\n        /* \"contracts/ERC-20.sol\":3543:3573  _transfer(_from, _to, _amount) */\n      jump\t// in\n    tag_80:\n        /* \"contracts/ERC-20.sol\":3594:3598  true */\n      0x01\n        /* \"contracts/ERC-20.sol\":3587:3598  return true */\n      swap2\n      pop\n      pop\n        /* \"contracts/ERC-20.sol\":3300:3605  function transferFrom(... */\n      swap4\n      swap3\n      pop\n      pop\n      pop\n      jump\t// out\n        /* \"contracts/ERC-20.sol\":2324:2411  function token_decimals() public view virtual returns (uint8){... */\n    tag_36:\n        /* \"contracts/ERC-20.sol\":2379:2384  uint8 */\n      0x00\n        /* \"contracts/ERC-20.sol\":2402:2404  18 */\n      0x12\n        /* \"contracts/ERC-20.sol\":2395:2404  return 18 */\n      swap1\n      pop\n        /* \"contracts/ERC-20.sol\":2324:2411  function token_decimals() public view virtual returns (uint8){... */\n      swap1\n      jump\t// out\n        /* \"contracts/ERC-20.sol\":2528:2659  function balanceOf(address _account) public view virtual override returns (uint256){... */\n    tag_42:\n        /* \"contracts/ERC-20.sol\":2603:2610  uint256 */\n      0x00\n        /* \"contracts/ERC-20.sol\":2628:2642  users_balances */\n      dup1\n        /* \"contracts/ERC-20.sol\":2628:2652  users_balances[_account] */\n      0x00\n        /* \"contracts/ERC-20.sol\":2643:2651  _account */\n      dup4\n        /* \"contracts/ERC-20.sol\":2628:2652  users_balances[_account] */\n      0xffffffffffffffffffffffffffffffffffffffff\n      and\n      0xffffffffffffffffffffffffffffffffffffffff\n      and\n      dup2\n      mstore\n      0x20\n      add\n      swap1\n      dup2\n      mstore\n      0x20\n      add\n      0x00\n      keccak256\n      sload\n        /* \"contracts/ERC-20.sol\":2621:2652  return users_balances[_account] */\n      swap1\n      pop\n        /* \"contracts/ERC-20.sol\":2528:2659  function balanceOf(address _account) public view virtual override returns (uint256){... */\n      swap2\n      swap1\n      pop\n      jump\t// out\n        /* \"contracts/ERC-20.sol\":3611:3856  function incrementAllowance(address _spender, uint256 _addedValue) public virtual returns (bool) {... */\n    tag_46:\n        /* \"contracts/ERC-20.sol\":3702:3706  bool */\n      0x00\n        /* \"contracts/ERC-20.sol\":3718:3731  address owner */\n      dup1\n        /* \"contracts/ERC-20.sol\":3734:3744  msg.sender */\n      caller\n        /* \"contracts/ERC-20.sol\":3718:3744  address owner = msg.sender */\n      swap1\n      pop\n        /* \"contracts/ERC-20.sol\":3754:3828  _approve(owner, _spender, users_allowances[owner][_spender] + _addedValue) */\n      tag_85\n        /* \"contracts/ERC-20.sol\":3763:3768  owner */\n      dup2\n        /* \"contracts/ERC-20.sol\":3770:3778  _spender */\n      dup6\n        /* \"contracts/ERC-20.sol\":3816:3827  _addedValue */\n      dup6\n        /* \"contracts/ERC-20.sol\":3780:3796  users_allowances */\n      0x01\n        /* \"contracts/ERC-20.sol\":3780:3803  users_allowances[owner] */\n      0x00\n        /* \"contracts/ERC-20.sol\":3797:3802  owner */\n      dup7\n        /* \"contracts/ERC-20.sol\":3780:3803  users_allowances[owner] */\n      0xffffffffffffffffffffffffffffffffffffffff\n      and\n      0xffffffffffffffffffffffffffffffffffffffff\n      and\n      dup2\n      mstore\n      0x20\n      add\n      swap1\n      dup2\n      mstore\n      0x20\n      add\n      0x00\n      keccak256\n        /* \"contracts/ERC-20.sol\":3780:3813  users_allowances[owner][_spender] */\n      0x00\n        /* \"contracts/ERC-20.sol\":3804:3812  _spender */\n      dup10\n        /* \"contracts/ERC-20.sol\":3780:3813  users_allowances[owner][_spender] */\n      0xffffffffffffffffffffffffffffffffffffffff\n      and\n      0xffffffffffffffffffffffffffffffffffffffff\n      and\n      dup2\n      mstore\n      0x20\n      add\n      swap1\n      dup2\n      mstore\n      0x20\n      add\n      0x00\n      keccak256\n      sload\n        /* \"contracts/ERC-20.sol\":3780:3827  users_allowances[owner][_spender] + _addedValue */\n      tag_86\n      swap2\n      swap1\n      tag_87\n      jump\t// in\n    tag_86:\n        /* \"contracts/ERC-20.sol\":3754:3762  _approve */\n      tag_68\n        /* \"contracts/ERC-20.sol\":3754:3828  _approve(owner, _spender, users_allowances[owner][_spender] + _addedValue) */\n      jump\t// in\n    tag_85:\n        /* \"contracts/ERC-20.sol\":3845:3849  true */\n      0x01\n        /* \"contracts/ERC-20.sol\":3838:3849  return true */\n      swap2\n      pop\n      pop\n        /* \"contracts/ERC-20.sol\":3611:3856  function incrementAllowance(address _spender, uint256 _addedValue) public virtual returns (bool) {... */\n      swap3\n      swap2\n      pop\n      pop\n      jump\t// out\n        /* \"contracts/ERC-20.sol\":2121:2214  function token_name() public view virtual returns (string memory){... */\n    tag_49:\n        /* \"contracts/ERC-20.sol\":2172:2185  string memory */\n      0x60\n        /* \"contracts/ERC-20.sol\":2203:2207  name */\n      0x03\n        /* \"contracts/ERC-20.sol\":2196:2207  return name */\n      dup1\n      sload\n      tag_89\n      swap1\n      tag_72\n      jump\t// in\n    tag_89:\n      dup1\n      0x1f\n      add\n      0x20\n      dup1\n      swap2\n      div\n      mul\n      0x20\n      add\n      mload(0x40)\n      swap1\n      dup2\n      add\n      0x40\n      mstore\n      dup1\n      swap3\n      swap2\n      swap1\n      dup2\n      dup2\n      mstore\n      0x20\n      add\n      dup3\n      dup1\n      sload\n      tag_90\n      swap1\n      tag_72\n      jump\t// in\n    tag_90:\n      dup1\n      iszero\n      tag_91\n      jumpi\n      dup1\n      0x1f\n      lt\n      tag_92\n      jumpi\n      0x0100\n      dup1\n      dup4\n      sload\n      div\n      mul\n      dup4\n      mstore\n      swap2\n      0x20\n      add\n      swap2\n      jump(tag_91)\n    tag_92:\n      dup3\n      add\n      swap2\n      swap1\n      0x00\n      mstore\n      keccak256(0x00, 0x20)\n      swap1\n    tag_93:\n      dup2\n      sload\n      dup2\n      mstore\n      swap1\n      0x01\n      add\n      swap1\n      0x20\n      add\n      dup1\n      dup4\n      gt\n      tag_93\n      jumpi\n      dup3\n      swap1\n      sub\n      0x1f\n      and\n      dup3\n      add\n      swap2\n    tag_91:\n      pop\n      pop\n      pop\n      pop\n      pop\n      swap1\n      pop\n        /* \"contracts/ERC-20.sol\":2121:2214  function token_name() public view virtual returns (string memory){... */\n      swap1\n      jump\t// out\n        /* \"contracts/ERC-20.sol\":3862:4313  function decreaseAllowance(address _spender, uint256 _decreaseValue) public virtual returns (bool) {... */\n    tag_53:\n        /* \"contracts/ERC-20.sol\":3955:3959  bool */\n      0x00\n        /* \"contracts/ERC-20.sol\":3971:3985  address  owner */\n      dup1\n        /* \"contracts/ERC-20.sol\":3988:3998  msg.sender */\n      caller\n        /* \"contracts/ERC-20.sol\":3971:3998  address  owner = msg.sender */\n      swap1\n      pop\n        /* \"contracts/ERC-20.sol\":4008:4032  uint256 currentAllowance */\n      0x00\n        /* \"contracts/ERC-20.sol\":4035:4051  users_allowances */\n      0x01\n        /* \"contracts/ERC-20.sol\":4035:4058  users_allowances[owner] */\n      0x00\n        /* \"contracts/ERC-20.sol\":4052:4057  owner */\n      dup4\n        /* \"contracts/ERC-20.sol\":4035:4058  users_allowances[owner] */\n      0xffffffffffffffffffffffffffffffffffffffff\n      and\n      0xffffffffffffffffffffffffffffffffffffffff\n      and\n      dup2\n      mstore\n      0x20\n      add\n      swap1\n      dup2\n      mstore\n      0x20\n      add\n      0x00\n      keccak256\n        /* \"contracts/ERC-20.sol\":4035:4068  users_allowances[owner][_spender] */\n      0x00\n        /* \"contracts/ERC-20.sol\":4059:4067  _spender */\n      dup7\n        /* \"contracts/ERC-20.sol\":4035:4068  users_allowances[owner][_spender] */\n      0xffffffffffffffffffffffffffffffffffffffff\n      and\n      0xffffffffffffffffffffffffffffffffffffffff\n      and\n      dup2\n      mstore\n      0x20\n      add\n      swap1\n      dup2\n      mstore\n      0x20\n      add\n      0x00\n      keccak256\n      sload\n        /* \"contracts/ERC-20.sol\":4008:4068  uint256 currentAllowance = users_allowances[owner][_spender] */\n      swap1\n      pop\n        /* \"contracts/ERC-20.sol\":4106:4122  users_allowances */\n      0x01\n        /* \"contracts/ERC-20.sol\":4106:4129  users_allowances[owner] */\n      0x00\n        /* \"contracts/ERC-20.sol\":4123:4128  owner */\n      dup4\n        /* \"contracts/ERC-20.sol\":4106:4129  users_allowances[owner] */\n      0xffffffffffffffffffffffffffffffffffffffff\n      and\n      0xffffffffffffffffffffffffffffffffffffffff\n      and\n      dup2\n      mstore\n      0x20\n      add\n      swap1\n      dup2\n      mstore\n      0x20\n      add\n      0x00\n      keccak256\n        /* \"contracts/ERC-20.sol\":4106:4139  users_allowances[owner][_spender] */\n      0x00\n        /* \"contracts/ERC-20.sol\":4130:4138  _spender */\n      dup7\n        /* \"contracts/ERC-20.sol\":4106:4139  users_allowances[owner][_spender] */\n      0xffffffffffffffffffffffffffffffffffffffff\n      and\n      0xffffffffffffffffffffffffffffffffffffffff\n      and\n      dup2\n      mstore\n      0x20\n      add\n      swap1\n      dup2\n      mstore\n      0x20\n      add\n      0x00\n      keccak256\n      sload\n        /* \"contracts/ERC-20.sol\":4086:4102  currentAllowance */\n      dup2\n        /* \"contracts/ERC-20.sol\":4086:4139  currentAllowance >= users_allowances[owner][_spender] */\n      lt\n      iszero\n        /* \"contracts/ERC-20.sol\":4078:4181  require(currentAllowance >= users_allowances[owner][_spender], \"ERC20: decreased allowance below zero\") */\n      tag_95\n      jumpi\n      mload(0x40)\n      0x08c379a000000000000000000000000000000000000000000000000000000000\n      dup2\n      mstore\n      0x04\n      add\n      tag_96\n      swap1\n      tag_97\n      jump\t// in\n    tag_96:\n      mload(0x40)\n      dup1\n      swap2\n      sub\n      swap1\n      revert\n    tag_95:\n        /* \"contracts/ERC-20.sol\":4215:4275  _approve(owner, _spender, currentAllowance - _decreaseValue) */\n      tag_98\n        /* \"contracts/ERC-20.sol\":4224:4229  owner */\n      dup3\n        /* \"contracts/ERC-20.sol\":4231:4239  _spender */\n      dup7\n        /* \"contracts/ERC-20.sol\":4260:4274  _decreaseValue */\n      dup7\n        /* \"contracts/ERC-20.sol\":4241:4257  currentAllowance */\n      dup5\n        /* \"contracts/ERC-20.sol\":4241:4274  currentAllowance - _decreaseValue */\n      sub\n        /* \"contracts/ERC-20.sol\":4215:4223  _approve */\n      tag_68\n        /* \"contracts/ERC-20.sol\":4215:4275  _approve(owner, _spender, currentAllowance - _decreaseValue) */\n      jump\t// in\n    tag_98:\n        /* \"contracts/ERC-20.sol\":4302:4306  true */\n      0x01\n        /* \"contracts/ERC-20.sol\":4295:4306  return true */\n      swap3\n      pop\n      pop\n      pop\n        /* \"contracts/ERC-20.sol\":3862:4313  function decreaseAllowance(address _spender, uint256 _decreaseValue) public virtual returns (bool) {... */\n      swap3\n      swap2\n      pop\n      pop\n      jump\t// out\n        /* \"contracts/ERC-20.sol\":2665:2927  function transfer(address _to, uint256 _amount) public virtual override returns (bool) {... */\n    tag_57:\n        /* \"contracts/ERC-20.sol\":2746:2750  bool */\n      0x00\n        /* \"contracts/ERC-20.sol\":2805:2818  address owner */\n      dup1\n        /* \"contracts/ERC-20.sol\":2821:2831  msg.sender */\n      caller\n        /* \"contracts/ERC-20.sol\":2805:2831  address owner = msg.sender */\n      swap1\n      pop\n        /* \"contracts/ERC-20.sol\":2870:2899  _transfer(owner,_to, _amount) */\n      tag_100\n        /* \"contracts/ERC-20.sol\":2880:2885  owner */\n      dup2\n        /* \"contracts/ERC-20.sol\":2886:2889  _to */\n      dup6\n        /* \"contracts/ERC-20.sol\":2891:2898  _amount */\n      dup6\n        /* \"contracts/ERC-20.sol\":2870:2879  _transfer */\n      tag_81\n        /* \"contracts/ERC-20.sol\":2870:2899  _transfer(owner,_to, _amount) */\n      jump\t// in\n    tag_100:\n        /* \"contracts/ERC-20.sol\":2916:2920  true */\n      0x01\n        /* \"contracts/ERC-20.sol\":2909:2920  return true */\n      swap2\n      pop\n      pop\n        /* \"contracts/ERC-20.sol\":2665:2927  function transfer(address _to, uint256 _amount) public virtual override returns (bool) {... */\n      swap3\n      swap2\n      pop\n      pop\n      jump\t// out\n        /* \"contracts/customERC20.sol\":162:290  function createTokens() public {... */\n    tag_60:\n        /* \"contracts/customERC20.sol\":260:283  _mint(msg.sender, 1000) */\n      tag_102\n        /* \"contracts/customERC20.sol\":266:276  msg.sender */\n      caller\n        /* \"contracts/customERC20.sol\":278:282  1000 */\n      0x03e8\n        /* \"contracts/customERC20.sol\":260:265  _mint */\n      tag_103\n        /* \"contracts/customERC20.sol\":260:283  _mint(msg.sender, 1000) */\n      jump\t// in\n    tag_102:\n        /* \"contracts/customERC20.sol\":162:290  function createTokens() public {... */\n      jump\t// out\n        /* \"contracts/ERC-20.sol\":2933:3091  function allowance(address _owner, address _spender) public view virtual override returns (uint256) {... */\n    tag_64:\n        /* \"contracts/ERC-20.sol\":3024:3031  uint256 */\n      0x00\n        /* \"contracts/ERC-20.sol\":3050:3066  users_allowances */\n      0x01\n        /* \"contracts/ERC-20.sol\":3050:3074  users_allowances[_owner] */\n      0x00\n        /* \"contracts/ERC-20.sol\":3067:3073  _owner */\n      dup5\n        /* \"contracts/ERC-20.sol\":3050:3074  users_allowances[_owner] */\n      0xffffffffffffffffffffffffffffffffffffffff\n      and\n      0xffffffffffffffffffffffffffffffffffffffff\n      and\n      dup2\n      mstore\n      0x20\n      add\n      swap1\n      dup2\n      mstore\n      0x20\n      add\n      0x00\n      keccak256\n        /* \"contracts/ERC-20.sol\":3050:3084  users_allowances[_owner][_spender] */\n      0x00\n        /* \"contracts/ERC-20.sol\":3075:3083  _spender */\n      dup4\n        /* \"contracts/ERC-20.sol\":3050:3084  users_allowances[_owner][_spender] */\n      0xffffffffffffffffffffffffffffffffffffffff\n      and\n      0xffffffffffffffffffffffffffffffffffffffff\n      and\n      dup2\n      mstore\n      0x20\n      add\n      swap1\n      dup2\n      mstore\n      0x20\n      add\n      0x00\n      keccak256\n      sload\n        /* \"contracts/ERC-20.sol\":3043:3084  return users_allowances[_owner][_spender] */\n      swap1\n      pop\n        /* \"contracts/ERC-20.sol\":2933:3091  function allowance(address _owner, address _spender) public view virtual override returns (uint256) {... */\n      swap3\n      swap2\n      pop\n      pop\n      jump\t// out\n        /* \"contracts/ERC-20.sol\":6056:6433  function _approve(... */\n    tag_68:\n        /* \"contracts/ERC-20.sol\":6208:6209  0 */\n      0x00\n        /* \"contracts/ERC-20.sol\":6190:6210  _owner != address(0) */\n      0xffffffffffffffffffffffffffffffffffffffff\n      and\n        /* \"contracts/ERC-20.sol\":6190:6196  _owner */\n      dup4\n        /* \"contracts/ERC-20.sol\":6190:6210  _owner != address(0) */\n      0xffffffffffffffffffffffffffffffffffffffff\n      and\n      sub\n        /* \"contracts/ERC-20.sol\":6182:6247  require(_owner != address(0), \"ERC20: approve from zero address\") */\n      tag_106\n      jumpi\n      mload(0x40)\n      0x08c379a000000000000000000000000000000000000000000000000000000000\n      dup2\n      mstore\n      0x04\n      add\n      tag_107\n      swap1\n      tag_108\n      jump\t// in\n    tag_107:\n      mload(0x40)\n      dup1\n      swap2\n      sub\n      swap1\n      revert\n    tag_106:\n        /* \"contracts/ERC-20.sol\":6285:6286  0 */\n      0x00\n        /* \"contracts/ERC-20.sol\":6265:6287  _spender != address(0) */\n      0xffffffffffffffffffffffffffffffffffffffff\n      and\n        /* \"contracts/ERC-20.sol\":6265:6273  _spender */\n      dup3\n        /* \"contracts/ERC-20.sol\":6265:6287  _spender != address(0) */\n      0xffffffffffffffffffffffffffffffffffffffff\n      and\n      sub\n        /* \"contracts/ERC-20.sol\":6257:6322  require(_spender != address(0), \"ERC20: approve to zero address\") */\n      tag_109\n      jumpi\n      mload(0x40)\n      0x08c379a000000000000000000000000000000000000000000000000000000000\n      dup2\n      mstore\n      0x04\n      add\n      tag_110\n      swap1\n      tag_111\n      jump\t// in\n    tag_110:\n      mload(0x40)\n      dup1\n      swap2\n      sub\n      swap1\n      revert\n    tag_109:\n        /* \"contracts/ERC-20.sol\":6369:6376  _amount */\n      dup1\n        /* \"contracts/ERC-20.sol\":6332:6348  users_allowances */\n      0x01\n        /* \"contracts/ERC-20.sol\":6332:6356  users_allowances[_owner] */\n      0x00\n        /* \"contracts/ERC-20.sol\":6349:6355  _owner */\n      dup6\n        /* \"contracts/ERC-20.sol\":6332:6356  users_allowances[_owner] */\n      0xffffffffffffffffffffffffffffffffffffffff\n      and\n      0xffffffffffffffffffffffffffffffffffffffff\n      and\n      dup2\n      mstore\n      0x20\n      add\n      swap1\n      dup2\n      mstore\n      0x20\n      add\n      0x00\n      keccak256\n        /* \"contracts/ERC-20.sol\":6332:6366  users_allowances[_owner][_spender] */\n      0x00\n        /* \"contracts/ERC-20.sol\":6357:6365  _spender */\n      dup5\n        /* \"contracts/ERC-20.sol\":6332:6366  users_allowances[_owner][_spender] */\n      0xffffffffffffffffffffffffffffffffffffffff\n      and\n      0xffffffffffffffffffffffffffffffffffffffff\n      and\n      dup2\n      mstore\n      0x20\n      add\n      swap1\n      dup2\n      mstore\n      0x20\n      add\n      0x00\n      keccak256\n        /* \"contracts/ERC-20.sol\":6332:6376  users_allowances[_owner][_spender] = _amount */\n      dup2\n      swap1\n      sstore\n      pop\n        /* \"contracts/ERC-20.sol\":6408:6416  _spender */\n      dup2\n        /* \"contracts/ERC-20.sol\":6391:6426  Approval(_owner, _spender, _amount) */\n      0xffffffffffffffffffffffffffffffffffffffff\n      and\n        /* \"contracts/ERC-20.sol\":6400:6406  _owner */\n      dup4\n        /* \"contracts/ERC-20.sol\":6391:6426  Approval(_owner, _spender, _amount) */\n      0xffffffffffffffffffffffffffffffffffffffff\n      and\n      0x8c5be1e5ebec7d5bd14f71427d1e84f3dd0314c0f7b2291e5b200ac8c7c3b925\n        /* \"contracts/ERC-20.sol\":6418:6425  _amount */\n      dup4\n        /* \"contracts/ERC-20.sol\":6391:6426  Approval(_owner, _spender, _amount) */\n      mload(0x40)\n      tag_112\n      swap2\n      swap1\n      tag_25\n      jump\t// in\n    tag_112:\n      mload(0x40)\n      dup1\n      swap2\n      sub\n      swap1\n      log3\n        /* \"contracts/ERC-20.sol\":6056:6433  function _approve(... */\n      pop\n      pop\n      pop\n      jump\t// out\n        /* \"contracts/ERC-20.sol\":6439:6869  function _spendAllowance(... */\n    tag_79:\n        /* \"contracts/ERC-20.sol\":6572:6596  uint256 currentAllowance */\n      0x00\n        /* \"contracts/ERC-20.sol\":6599:6626  allowance(_owner, _spender) */\n      tag_114\n        /* \"contracts/ERC-20.sol\":6609:6615  _owner */\n      dup5\n        /* \"contracts/ERC-20.sol\":6617:6625  _spender */\n      dup5\n        /* \"contracts/ERC-20.sol\":6599:6608  allowance */\n      tag_64\n        /* \"contracts/ERC-20.sol\":6599:6626  allowance(_owner, _spender) */\n      jump\t// in\n    tag_114:\n        /* \"contracts/ERC-20.sol\":6572:6626  uint256 currentAllowance = allowance(_owner, _spender) */\n      swap1\n      pop\n        /* \"contracts/ERC-20.sol\":6660:6677  type(uint256).max */\n      0xffffffffffffffffffffffffffffffffffffffffffffffffffffffffffffffff\n        /* \"contracts/ERC-20.sol\":6640:6656  currentAllowance */\n      dup2\n        /* \"contracts/ERC-20.sol\":6640:6677  currentAllowance != type(uint256).max */\n      eq\n        /* \"contracts/ERC-20.sol\":6636:6863  if (currentAllowance != type(uint256).max) {... */\n      tag_115\n      jumpi\n        /* \"contracts/ERC-20.sol\":6721:6728  _amount */\n      dup2\n        /* \"contracts/ERC-20.sol\":6701:6717  currentAllowance */\n      dup2\n        /* \"contracts/ERC-20.sol\":6701:6728  currentAllowance >= _amount */\n      lt\n      iszero\n        /* \"contracts/ERC-20.sol\":6693:6761  require(currentAllowance >= _amount, \"ERC20: insufficient balances\") */\n      tag_116\n      jumpi\n      mload(0x40)\n      0x08c379a000000000000000000000000000000000000000000000000000000000\n      dup2\n      mstore\n      0x04\n      add\n      tag_117\n      swap1\n      tag_118\n      jump\t// in\n    tag_117:\n      mload(0x40)\n      dup1\n      swap2\n      sub\n      swap1\n      revert\n    tag_116:\n        /* \"contracts/ERC-20.sol\":6803:6838  _approve(_owner, _spender, _amount) */\n      tag_119\n        /* \"contracts/ERC-20.sol\":6812:6818  _owner */\n      dup5\n        /* \"contracts/ERC-20.sol\":6820:6828  _spender */\n      dup5\n        /* \"contracts/ERC-20.sol\":6830:6837  _amount */\n      dup5\n        /* \"contracts/ERC-20.sol\":6803:6811  _approve */\n      tag_68\n        /* \"contracts/ERC-20.sol\":6803:6838  _approve(_owner, _spender, _amount) */\n      jump\t// in\n    tag_119:\n        /* \"contracts/ERC-20.sol\":6636:6863  if (currentAllowance != type(uint256).max) {... */\n    tag_115:\n        /* \"contracts/ERC-20.sol\":6562:6869  {... */\n      pop\n        /* \"contracts/ERC-20.sol\":6439:6869  function _spendAllowance(... */\n      pop\n      pop\n      pop\n      jump\t// out\n        /* \"contracts/ERC-20.sol\":4319:5040  function _transfer(... */\n    tag_81:\n        /* \"contracts/ERC-20.sol\":4465:4466  0 */\n      0x00\n        /* \"contracts/ERC-20.sol\":4448:4467  _from != address(0) */\n      0xffffffffffffffffffffffffffffffffffffffff\n      and\n        /* \"contracts/ERC-20.sol\":4448:4453  _from */\n      dup4\n        /* \"contracts/ERC-20.sol\":4448:4467  _from != address(0) */\n      0xffffffffffffffffffffffffffffffffffffffff\n      and\n      sub\n        /* \"contracts/ERC-20.sol\":4440:4501  require(_from != address(0), \"ERC20: owner address is empty\") */\n      tag_121\n      jumpi\n      mload(0x40)\n      0x08c379a000000000000000000000000000000000000000000000000000000000\n      dup2\n      mstore\n      0x04\n      add\n      tag_122\n      swap1\n      tag_123\n      jump\t// in\n    tag_122:\n      mload(0x40)\n      dup1\n      swap2\n      sub\n      swap1\n      revert\n    tag_121:\n        /* \"contracts/ERC-20.sol\":4534:4535  0 */\n      0x00\n        /* \"contracts/ERC-20.sol\":4519:4536  _to != address(0) */\n      0xffffffffffffffffffffffffffffffffffffffff\n      and\n        /* \"contracts/ERC-20.sol\":4519:4522  _to */\n      dup3\n        /* \"contracts/ERC-20.sol\":4519:4536  _to != address(0) */\n      0xffffffffffffffffffffffffffffffffffffffff\n      and\n      sub\n        /* \"contracts/ERC-20.sol\":4511:4573  require(_to != address(0), \"ERC20: receiver address is empty\") */\n      tag_124\n      jumpi\n      mload(0x40)\n      0x08c379a000000000000000000000000000000000000000000000000000000000\n      dup2\n      mstore\n      0x04\n      add\n      tag_125\n      swap1\n      tag_126\n      jump\t// in\n    tag_125:\n      mload(0x40)\n      dup1\n      swap2\n      sub\n      swap1\n      revert\n    tag_124:\n        /* \"contracts/ERC-20.sol\":4583:4624  _beforeTransferToken(_from, _to, _amount) */\n      tag_127\n        /* \"contracts/ERC-20.sol\":4604:4609  _from */\n      dup4\n        /* \"contracts/ERC-20.sol\":4611:4614  _to */\n      dup4\n        /* \"contracts/ERC-20.sol\":4616:4623  _amount */\n      dup4\n        /* \"contracts/ERC-20.sol\":4583:4603  _beforeTransferToken */\n      tag_128\n        /* \"contracts/ERC-20.sol\":4583:4624  _beforeTransferToken(_from, _to, _amount) */\n      jump\t// in\n    tag_127:\n        /* \"contracts/ERC-20.sol\":4634:4653  uint256 fromBalance */\n      0x00\n        /* \"contracts/ERC-20.sol\":4656:4670  users_balances */\n      dup1\n        /* \"contracts/ERC-20.sol\":4656:4677  users_balances[_from] */\n      0x00\n        /* \"contracts/ERC-20.sol\":4671:4676  _from */\n      dup6\n        /* \"contracts/ERC-20.sol\":4656:4677  users_balances[_from] */\n      0xffffffffffffffffffffffffffffffffffffffff\n      and\n      0xffffffffffffffffffffffffffffffffffffffff\n      and\n      dup2\n      mstore\n      0x20\n      add\n      swap1\n      dup2\n      mstore\n      0x20\n      add\n      0x00\n      keccak256\n      sload\n        /* \"contracts/ERC-20.sol\":4634:4677  uint256 fromBalance = users_balances[_from] */\n      swap1\n      pop\n        /* \"contracts/ERC-20.sol\":4710:4717  _amount */\n      dup2\n        /* \"contracts/ERC-20.sol\":4695:4706  fromBalance */\n      dup2\n        /* \"contracts/ERC-20.sol\":4695:4717  fromBalance >= _amount */\n      lt\n      iszero\n        /* \"contracts/ERC-20.sol\":4687:4750  require(fromBalance >= _amount, \"ERC20: not sufficient amount\") */\n      tag_129\n      jumpi\n      mload(0x40)\n      0x08c379a000000000000000000000000000000000000000000000000000000000\n      dup2\n      mstore\n      0x04\n      add\n      tag_130\n      swap1\n      tag_131\n      jump\t// in\n    tag_130:\n      mload(0x40)\n      dup1\n      swap2\n      sub\n      swap1\n      revert\n    tag_129:\n        /* \"contracts/ERC-20.sol\":4858:4865  _amount */\n      dup2\n        /* \"contracts/ERC-20.sol\":4844:4855  fromBalance */\n      dup2\n        /* \"contracts/ERC-20.sol\":4844:4865  fromBalance - _amount */\n      sub\n        /* \"contracts/ERC-20.sol\":4820:4834  users_balances */\n      0x00\n        /* \"contracts/ERC-20.sol\":4820:4841  users_balances[_from] */\n      dup1\n        /* \"contracts/ERC-20.sol\":4835:4840  _from */\n      dup7\n        /* \"contracts/ERC-20.sol\":4820:4841  users_balances[_from] */\n      0xffffffffffffffffffffffffffffffffffffffff\n      and\n      0xffffffffffffffffffffffffffffffffffffffff\n      and\n      dup2\n      mstore\n      0x20\n      add\n      swap1\n      dup2\n      mstore\n      0x20\n      add\n      0x00\n      keccak256\n        /* \"contracts/ERC-20.sol\":4820:4865  users_balances[_from] = fromBalance - _amount */\n      dup2\n      swap1\n      sstore\n      pop\n        /* \"contracts/ERC-20.sol\":4908:4915  _amount */\n      dup2\n        /* \"contracts/ERC-20.sol\":4885:4899  users_balances */\n      0x00\n        /* \"contracts/ERC-20.sol\":4885:4904  users_balances[_to] */\n      dup1\n        /* \"contracts/ERC-20.sol\":4900:4903  _to */\n      dup6\n        /* \"contracts/ERC-20.sol\":4885:4904  users_balances[_to] */\n      0xffffffffffffffffffffffffffffffffffffffff\n      and\n      0xffffffffffffffffffffffffffffffffffffffff\n      and\n      dup2\n      mstore\n      0x20\n      add\n      swap1\n      dup2\n      mstore\n      0x20\n      add\n      0x00\n      keccak256\n      0x00\n        /* \"contracts/ERC-20.sol\":4885:4915  users_balances[_to] += _amount */\n      dup3\n      dup3\n      sload\n      tag_132\n      swap2\n      swap1\n      tag_87\n      jump\t// in\n    tag_132:\n      swap3\n      pop\n      pop\n      dup2\n      swap1\n      sstore\n      pop\n        /* \"contracts/ERC-20.sol\":4968:4971  _to */\n      dup3\n        /* \"contracts/ERC-20.sol\":4952:4981  Transfer(_from, _to, _amount) */\n      0xffffffffffffffffffffffffffffffffffffffff\n      and\n        /* \"contracts/ERC-20.sol\":4961:4966  _from */\n      dup5\n        /* \"contracts/ERC-20.sol\":4952:4981  Transfer(_from, _to, _amount) */\n      0xffffffffffffffffffffffffffffffffffffffff\n      and\n      0xddf252ad1be2c89b69c2b068fc378daa952ba7f163c4a11628f55a4df523b3ef\n        /* \"contracts/ERC-20.sol\":4973:4980  _amount */\n      dup5\n        /* \"contracts/ERC-20.sol\":4952:4981  Transfer(_from, _to, _amount) */\n      mload(0x40)\n      tag_133\n      swap2\n      swap1\n      tag_25\n      jump\t// in\n    tag_133:\n      mload(0x40)\n      dup1\n      swap2\n      sub\n      swap1\n      log3\n        /* \"contracts/ERC-20.sol\":4991:5033  afterTokenTransaction(_from, _to, _amount) */\n      tag_134\n        /* \"contracts/ERC-20.sol\":5013:5018  _from */\n      dup5\n        /* \"contracts/ERC-20.sol\":5020:5023  _to */\n      dup5\n        /* \"contracts/ERC-20.sol\":5025:5032  _amount */\n      dup5\n        /* \"contracts/ERC-20.sol\":4991:5012  afterTokenTransaction */\n      tag_135\n        /* \"contracts/ERC-20.sol\":4991:5033  afterTokenTransaction(_from, _to, _amount) */\n      jump\t// in\n    tag_134:\n        /* \"contracts/ERC-20.sol\":4430:5040  {... */\n      pop\n        /* \"contracts/ERC-20.sol\":4319:5040  function _transfer(... */\n      pop\n      pop\n      pop\n      jump\t// out\n        /* \"contracts/ERC-20.sol\":5046:5474  function _mint(address _account, uint _amount) internal virtual {... */\n    tag_103:\n        /* \"contracts/ERC-20.sol\":5148:5149  0 */\n      0x00\n        /* \"contracts/ERC-20.sol\":5128:5150  _account != address(0) */\n      0xffffffffffffffffffffffffffffffffffffffff\n      and\n        /* \"contracts/ERC-20.sol\":5128:5136  _account */\n      dup3\n        /* \"contracts/ERC-20.sol\":5128:5150  _account != address(0) */\n      0xffffffffffffffffffffffffffffffffffffffff\n      and\n      sub\n        /* \"contracts/ERC-20.sol\":5120:5178  require(_account != address(0), \"ERC20: address is empty\") */\n      tag_137\n      jumpi\n      mload(0x40)\n      0x08c379a000000000000000000000000000000000000000000000000000000000\n      dup2\n      mstore\n      0x04\n      add\n      tag_138\n      swap1\n      tag_139\n      jump\t// in\n    tag_138:\n      mload(0x40)\n      dup1\n      swap2\n      sub\n      swap1\n      revert\n    tag_137:\n        /* \"contracts/ERC-20.sol\":5188:5239  _beforeTransferToken(address(0), _account, _amount) */\n      tag_140\n        /* \"contracts/ERC-20.sol\":5217:5218  0 */\n      0x00\n        /* \"contracts/ERC-20.sol\":5221:5229  _account */\n      dup4\n        /* \"contracts/ERC-20.sol\":5231:5238  _amount */\n      dup4\n        /* \"contracts/ERC-20.sol\":5188:5208  _beforeTransferToken */\n      tag_128\n        /* \"contracts/ERC-20.sol\":5188:5239  _beforeTransferToken(address(0), _account, _amount) */\n      jump\t// in\n    tag_140:\n        /* \"contracts/ERC-20.sol\":5299:5306  _amount */\n      dup1\n        /* \"contracts/ERC-20.sol\":5283:5295  total_supply */\n      0x02\n      0x00\n        /* \"contracts/ERC-20.sol\":5283:5306  total_supply += _amount */\n      dup3\n      dup3\n      sload\n      tag_141\n      swap2\n      swap1\n      tag_87\n      jump\t// in\n    tag_141:\n      swap3\n      pop\n      pop\n      dup2\n      swap1\n      sstore\n      pop\n        /* \"contracts/ERC-20.sol\":5344:5351  _amount */\n      dup1\n        /* \"contracts/ERC-20.sol\":5316:5330  users_balances */\n      0x00\n        /* \"contracts/ERC-20.sol\":5316:5340  users_balances[_account] */\n      dup1\n        /* \"contracts/ERC-20.sol\":5331:5339  _account */\n      dup5\n        /* \"contracts/ERC-20.sol\":5316:5340  users_balances[_account] */\n      0xffffffffffffffffffffffffffffffffffffffff\n      and\n      0xffffffffffffffffffffffffffffffffffffffff\n      and\n      dup2\n      mstore\n      0x20\n      add\n      swap1\n      dup2\n      mstore\n      0x20\n      add\n      0x00\n      keccak256\n      0x00\n        /* \"contracts/ERC-20.sol\":5316:5351  users_balances[_account] += _amount */\n      dup3\n      dup3\n      sload\n      tag_142\n      swap2\n      swap1\n      tag_87\n      jump\t// in\n    tag_142:\n      swap3\n      pop\n      pop\n      dup2\n      swap1\n      sstore\n      pop\n        /* \"contracts/ERC-20.sol\":5387:5395  _account */\n      dup2\n        /* \"contracts/ERC-20.sol\":5366:5405  Transfer(address(0), _account, _amount) */\n      0xffffffffffffffffffffffffffffffffffffffff\n      and\n        /* \"contracts/ERC-20.sol\":5383:5384  0 */\n      0x00\n        /* \"contracts/ERC-20.sol\":5366:5405  Transfer(address(0), _account, _amount) */\n      0xffffffffffffffffffffffffffffffffffffffff\n      and\n      0xddf252ad1be2c89b69c2b068fc378daa952ba7f163c4a11628f55a4df523b3ef\n        /* \"contracts/ERC-20.sol\":5397:5404  _amount */\n      dup4\n        /* \"contracts/ERC-20.sol\":5366:5405  Transfer(address(0), _account, _amount) */\n      mload(0x40)\n      tag_143\n      swap2\n      swap1\n      tag_25\n      jump\t// in\n    tag_143:\n      mload(0x40)\n      dup1\n      swap2\n      sub\n      swap1\n      log3\n        /* \"contracts/ERC-20.sol\":5415:5467  afterTokenTransaction(address(0), _account, _amount) */\n      tag_144\n        /* \"contracts/ERC-20.sol\":5445:5446  0 */\n      0x00\n        /* \"contracts/ERC-20.sol\":5449:5457  _account */\n      dup4\n        /* \"contracts/ERC-20.sol\":5459:5466  _amount */\n      dup4\n        /* \"contracts/ERC-20.sol\":5415:5436  afterTokenTransaction */\n      tag_135\n        /* \"contracts/ERC-20.sol\":5415:5467  afterTokenTransaction(address(0), _account, _amount) */\n      jump\t// in\n    tag_144:\n        /* \"contracts/ERC-20.sol\":5046:5474  function _mint(address _account, uint _amount) internal virtual {... */\n      pop\n      pop\n      jump\t// out\n        /* \"contracts/ERC-20.sol\":6875:6999  function _beforeTransferToken(... */\n    tag_128:\n      pop\n      pop\n      pop\n      jump\t// out\n        /* \"contracts/ERC-20.sol\":7005:7130  function afterTokenTransaction(... */\n    tag_135:\n      pop\n      pop\n      pop\n      jump\t// out\n        /* \"#utility.yul\":88:205   */\n    tag_148:\n        /* \"#utility.yul\":197:198   */\n      0x00\n        /* \"#utility.yul\":194:195   */\n      dup1\n        /* \"#utility.yul\":187:199   */\n      revert\n        /* \"#utility.yul\":334:460   */\n    tag_150:\n        /* \"#utility.yul\":371:378   */\n      0x00\n        /* \"#utility.yul\":411:453   */\n      0xffffffffffffffffffffffffffffffffffffffff\n        /* \"#utility.yul\":404:409   */\n      dup3\n        /* \"#utility.yul\":400:454   */\n      and\n        /* \"#utility.yul\":389:454   */\n      swap1\n      pop\n        /* \"#utility.yul\":334:460   */\n      swap2\n      swap1\n      pop\n      jump\t// out\n        /* \"#utility.yul\":466:562   */\n    tag_151:\n        /* \"#utility.yul\":503:510   */\n      0x00\n        /* \"#utility.yul\":532:556   */\n      tag_191\n        /* \"#utility.yul\":550:555   */\n      dup3\n        /* \"#utility.yul\":532:556   */\n      tag_150\n      jump\t// in\n    tag_191:\n        /* \"#utility.yul\":521:556   */\n      swap1\n      pop\n        /* \"#utility.yul\":466:562   */\n      swap2\n      swap1\n      pop\n      jump\t// out\n        /* \"#utility.yul\":568:690   */\n    tag_152:\n        /* \"#utility.yul\":641:665   */\n      tag_193\n        /* \"#utility.yul\":659:664   */\n      dup2\n        /* \"#utility.yul\":641:665   */\n      tag_151\n      jump\t// in\n    tag_193:\n        /* \"#utility.yul\":634:639   */\n      dup2\n        /* \"#utility.yul\":631:666   */\n      eq\n        /* \"#utility.yul\":621:684   */\n      tag_194\n      jumpi\n        /* \"#utility.yul\":680:681   */\n      0x00\n        /* \"#utility.yul\":677:678   */\n      dup1\n        /* \"#utility.yul\":670:682   */\n      revert\n        /* \"#utility.yul\":621:684   */\n    tag_194:\n        /* \"#utility.yul\":568:690   */\n      pop\n      jump\t// out\n        /* \"#utility.yul\":696:835   */\n    tag_153:\n        /* \"#utility.yul\":742:747   */\n      0x00\n        /* \"#utility.yul\":780:786   */\n      dup2\n        /* \"#utility.yul\":767:787   */\n      calldataload\n        /* \"#utility.yul\":758:787   */\n      swap1\n      pop\n        /* \"#utility.yul\":796:829   */\n      tag_196\n        /* \"#utility.yul\":823:828   */\n      dup2\n        /* \"#utility.yul\":796:829   */\n      tag_152\n      jump\t// in\n    tag_196:\n        /* \"#utility.yul\":696:835   */\n      swap3\n      swap2\n      pop\n      pop\n      jump\t// out\n        /* \"#utility.yul\":841:918   */\n    tag_154:\n        /* \"#utility.yul\":878:885   */\n      0x00\n        /* \"#utility.yul\":907:912   */\n      dup2\n        /* \"#utility.yul\":896:912   */\n      swap1\n      pop\n        /* \"#utility.yul\":841:918   */\n      swap2\n      swap1\n      pop\n      jump\t// out\n        /* \"#utility.yul\":924:1046   */\n    tag_155:\n        /* \"#utility.yul\":997:1021   */\n      tag_199\n        /* \"#utility.yul\":1015:1020   */\n      dup2\n        /* \"#utility.yul\":997:1021   */\n      tag_154\n      jump\t// in\n    tag_199:\n        /* \"#utility.yul\":990:995   */\n      dup2\n        /* \"#utility.yul\":987:1022   */\n      eq\n        /* \"#utility.yul\":977:1040   */\n      tag_200\n      jumpi\n        /* \"#utility.yul\":1036:1037   */\n      0x00\n        /* \"#utility.yul\":1033:1034   */\n      dup1\n        /* \"#utility.yul\":1026:1038   */\n      revert\n        /* \"#utility.yul\":977:1040   */\n    tag_200:\n        /* \"#utility.yul\":924:1046   */\n      pop\n      jump\t// out\n        /* \"#utility.yul\":1052:1191   */\n    tag_156:\n        /* \"#utility.yul\":1098:1103   */\n      0x00\n        /* \"#utility.yul\":1136:1142   */\n      dup2\n        /* \"#utility.yul\":1123:1143   */\n      calldataload\n        /* \"#utility.yul\":1114:1143   */\n      swap1\n      pop\n        /* \"#utility.yul\":1152:1185   */\n      tag_202\n        /* \"#utility.yul\":1179:1184   */\n      dup2\n        /* \"#utility.yul\":1152:1185   */\n      tag_155\n      jump\t// in\n    tag_202:\n        /* \"#utility.yul\":1052:1191   */\n      swap3\n      swap2\n      pop\n      pop\n      jump\t// out\n        /* \"#utility.yul\":1197:1671   */\n    tag_18:\n        /* \"#utility.yul\":1265:1271   */\n      0x00\n        /* \"#utility.yul\":1273:1279   */\n      dup1\n        /* \"#utility.yul\":1322:1324   */\n      0x40\n        /* \"#utility.yul\":1310:1319   */\n      dup4\n        /* \"#utility.yul\":1301:1308   */\n      dup6\n        /* \"#utility.yul\":1297:1320   */\n      sub\n        /* \"#utility.yul\":1293:1325   */\n      slt\n        /* \"#utility.yul\":1290:1409   */\n      iszero\n      tag_204\n      jumpi\n        /* \"#utility.yul\":1328:1407   */\n      tag_205\n      tag_148\n      jump\t// in\n    tag_205:\n        /* \"#utility.yul\":1290:1409   */\n    tag_204:\n        /* \"#utility.yul\":1448:1449   */\n      0x00\n        /* \"#utility.yul\":1473:1526   */\n      tag_206\n        /* \"#utility.yul\":1518:1525   */\n      dup6\n        /* \"#utility.yul\":1509:1515   */\n      dup3\n        /* \"#utility.yul\":1498:1507   */\n      dup7\n        /* \"#utility.yul\":1494:1516   */\n      add\n        /* \"#utility.yul\":1473:1526   */\n      tag_153\n      jump\t// in\n    tag_206:\n        /* \"#utility.yul\":1463:1526   */\n      swap3\n      pop\n        /* \"#utility.yul\":1419:1536   */\n      pop\n        /* \"#utility.yul\":1575:1577   */\n      0x20\n        /* \"#utility.yul\":1601:1654   */\n      tag_207\n        /* \"#utility.yul\":1646:1653   */\n      dup6\n        /* \"#utility.yul\":1637:1643   */\n      dup3\n        /* \"#utility.yul\":1626:1635   */\n      dup7\n        /* \"#utility.yul\":1622:1644   */\n      add\n        /* \"#utility.yul\":1601:1654   */\n      tag_156\n      jump\t// in\n    tag_207:\n        /* \"#utility.yul\":1591:1654   */\n      swap2\n      pop\n        /* \"#utility.yul\":1546:1664   */\n      pop\n        /* \"#utility.yul\":1197:1671   */\n      swap3\n      pop\n      swap3\n      swap1\n      pop\n      jump\t// out\n        /* \"#utility.yul\":1677:1767   */\n    tag_157:\n        /* \"#utility.yul\":1711:1718   */\n      0x00\n        /* \"#utility.yul\":1754:1759   */\n      dup2\n        /* \"#utility.yul\":1747:1760   */\n      iszero\n        /* \"#utility.yul\":1740:1761   */\n      iszero\n        /* \"#utility.yul\":1729:1761   */\n      swap1\n      pop\n        /* \"#utility.yul\":1677:1767   */\n      swap2\n      swap1\n      pop\n      jump\t// out\n        /* \"#utility.yul\":1773:1882   */\n    tag_158:\n        /* \"#utility.yul\":1854:1875   */\n      tag_210\n        /* \"#utility.yul\":1869:1874   */\n      dup2\n        /* \"#utility.yul\":1854:1875   */\n      tag_157\n      jump\t// in\n    tag_210:\n        /* \"#utility.yul\":1849:1852   */\n      dup3\n        /* \"#utility.yul\":1842:1876   */\n      mstore\n        /* \"#utility.yul\":1773:1882   */\n      pop\n      pop\n      jump\t// out\n        /* \"#utility.yul\":1888:2098   */\n    tag_21:\n        /* \"#utility.yul\":1975:1979   */\n      0x00\n        /* \"#utility.yul\":2013:2015   */\n      0x20\n        /* \"#utility.yul\":2002:2011   */\n      dup3\n        /* \"#utility.yul\":1998:2016   */\n      add\n        /* \"#utility.yul\":1990:2016   */\n      swap1\n      pop\n        /* \"#utility.yul\":2026:2091   */\n      tag_212\n        /* \"#utility.yul\":2088:2089   */\n      0x00\n        /* \"#utility.yul\":2077:2086   */\n      dup4\n        /* \"#utility.yul\":2073:2090   */\n      add\n        /* \"#utility.yul\":2064:2070   */\n      dup5\n        /* \"#utility.yul\":2026:2091   */\n      tag_158\n      jump\t// in\n    tag_212:\n        /* \"#utility.yul\":1888:2098   */\n      swap3\n      swap2\n      pop\n      pop\n      jump\t// out\n        /* \"#utility.yul\":2104:2222   */\n    tag_159:\n        /* \"#utility.yul\":2191:2215   */\n      tag_214\n        /* \"#utility.yul\":2209:2214   */\n      dup2\n        /* \"#utility.yul\":2191:2215   */\n      tag_154\n      jump\t// in\n    tag_214:\n        /* \"#utility.yul\":2186:2189   */\n      dup3\n        /* \"#utility.yul\":2179:2216   */\n      mstore\n        /* \"#utility.yul\":2104:2222   */\n      pop\n      pop\n      jump\t// out\n        /* \"#utility.yul\":2228:2450   */\n    tag_25:\n        /* \"#utility.yul\":2321:2325   */\n      0x00\n        /* \"#utility.yul\":2359:2361   */\n      0x20\n        /* \"#utility.yul\":2348:2357   */\n      dup3\n        /* \"#utility.yul\":2344:2362   */\n      add\n        /* \"#utility.yul\":2336:2362   */\n      swap1\n      pop\n        /* \"#utility.yul\":2372:2443   */\n      tag_216\n        /* \"#utility.yul\":2440:2441   */\n      0x00\n        /* \"#utility.yul\":2429:2438   */\n      dup4\n        /* \"#utility.yul\":2425:2442   */\n      add\n        /* \"#utility.yul\":2416:2422   */\n      dup5\n        /* \"#utility.yul\":2372:2443   */\n      tag_159\n      jump\t// in\n    tag_216:\n        /* \"#utility.yul\":2228:2450   */\n      swap3\n      swap2\n      pop\n      pop\n      jump\t// out\n        /* \"#utility.yul\":2456:2555   */\n    tag_160:\n        /* \"#utility.yul\":2508:2514   */\n      0x00\n        /* \"#utility.yul\":2542:2547   */\n      dup2\n        /* \"#utility.yul\":2536:2548   */\n      mload\n        /* \"#utility.yul\":2526:2548   */\n      swap1\n      pop\n        /* \"#utility.yul\":2456:2555   */\n      swap2\n      swap1\n      pop\n      jump\t// out\n        /* \"#utility.yul\":2561:2730   */\n    tag_161:\n        /* \"#utility.yul\":2645:2656   */\n      0x00\n        /* \"#utility.yul\":2679:2685   */\n      dup3\n        /* \"#utility.yul\":2674:2677   */\n      dup3\n        /* \"#utility.yul\":2667:2686   */\n      mstore\n        /* \"#utility.yul\":2719:2723   */\n      0x20\n        /* \"#utility.yul\":2714:2717   */\n      dup3\n        /* \"#utility.yul\":2710:2724   */\n      add\n        /* \"#utility.yul\":2695:2724   */\n      swap1\n      pop\n        /* \"#utility.yul\":2561:2730   */\n      swap3\n      swap2\n      pop\n      pop\n      jump\t// out\n        /* \"#utility.yul\":2736:2982   */\n    tag_162:\n        /* \"#utility.yul\":2817:2818   */\n      0x00\n        /* \"#utility.yul\":2827:2940   */\n    tag_220:\n        /* \"#utility.yul\":2841:2847   */\n      dup4\n        /* \"#utility.yul\":2838:2839   */\n      dup2\n        /* \"#utility.yul\":2835:2848   */\n      lt\n        /* \"#utility.yul\":2827:2940   */\n      iszero\n      tag_222\n      jumpi\n        /* \"#utility.yul\":2926:2927   */\n      dup1\n        /* \"#utility.yul\":2921:2924   */\n      dup3\n        /* \"#utility.yul\":2917:2928   */\n      add\n        /* \"#utility.yul\":2911:2929   */\n      mload\n        /* \"#utility.yul\":2907:2908   */\n      dup2\n        /* \"#utility.yul\":2902:2905   */\n      dup5\n        /* \"#utility.yul\":2898:2909   */\n      add\n        /* \"#utility.yul\":2891:2930   */\n      mstore\n        /* \"#utility.yul\":2863:2865   */\n      0x20\n        /* \"#utility.yul\":2860:2861   */\n      dup2\n        /* \"#utility.yul\":2856:2866   */\n      add\n        /* \"#utility.yul\":2851:2866   */\n      swap1\n      pop\n        /* \"#utility.yul\":2827:2940   */\n      jump(tag_220)\n    tag_222:\n        /* \"#utility.yul\":2974:2975   */\n      0x00\n        /* \"#utility.yul\":2965:2971   */\n      dup5\n        /* \"#utility.yul\":2960:2963   */\n      dup5\n        /* \"#utility.yul\":2956:2972   */\n      add\n        /* \"#utility.yul\":2949:2976   */\n      mstore\n        /* \"#utility.yul\":2798:2982   */\n      pop\n        /* \"#utility.yul\":2736:2982   */\n      pop\n      pop\n      pop\n      jump\t// out\n        /* \"#utility.yul\":2988:3090   */\n    tag_163:\n        /* \"#utility.yul\":3029:3035   */\n      0x00\n        /* \"#utility.yul\":3080:3082   */\n      0x1f\n        /* \"#utility.yul\":3076:3083   */\n      not\n        /* \"#utility.yul\":3071:3073   */\n      0x1f\n        /* \"#utility.yul\":3064:3069   */\n      dup4\n        /* \"#utility.yul\":3060:3074   */\n      add\n        /* \"#utility.yul\":3056:3084   */\n      and\n        /* \"#utility.yul\":3046:3084   */\n      swap1\n      pop\n        /* \"#utility.yul\":2988:3090   */\n      swap2\n      swap1\n      pop\n      jump\t// out\n        /* \"#utility.yul\":3096:3473   */\n    tag_164:\n        /* \"#utility.yul\":3184:3187   */\n      0x00\n        /* \"#utility.yul\":3212:3251   */\n      tag_225\n        /* \"#utility.yul\":3245:3250   */\n      dup3\n        /* \"#utility.yul\":3212:3251   */\n      tag_160\n      jump\t// in\n    tag_225:\n        /* \"#utility.yul\":3267:3338   */\n      tag_226\n        /* \"#utility.yul\":3331:3337   */\n      dup2\n        /* \"#utility.yul\":3326:3329   */\n      dup6\n        /* \"#utility.yul\":3267:3338   */\n      tag_161\n      jump\t// in\n    tag_226:\n        /* \"#utility.yul\":3260:3338   */\n      swap4\n      pop\n        /* \"#utility.yul\":3347:3412   */\n      tag_227\n        /* \"#utility.yul\":3405:3411   */\n      dup2\n        /* \"#utility.yul\":3400:3403   */\n      dup6\n        /* \"#utility.yul\":3393:3397   */\n      0x20\n        /* \"#utility.yul\":3386:3391   */\n      dup7\n        /* \"#utility.yul\":3382:3398   */\n      add\n        /* \"#utility.yul\":3347:3412   */\n      tag_162\n      jump\t// in\n    tag_227:\n        /* \"#utility.yul\":3437:3466   */\n      tag_228\n        /* \"#utility.yul\":3459:3465   */\n      dup2\n        /* \"#utility.yul\":3437:3466   */\n      tag_163\n      jump\t// in\n    tag_228:\n        /* \"#utility.yul\":3432:3435   */\n      dup5\n        /* \"#utility.yul\":3428:3467   */\n      add\n        /* \"#utility.yul\":3421:3467   */\n      swap2\n      pop\n        /* \"#utility.yul\":3188:3473   */\n      pop\n        /* \"#utility.yul\":3096:3473   */\n      swap3\n      swap2\n      pop\n      pop\n      jump\t// out\n        /* \"#utility.yul\":3479:3792   */\n    tag_29:\n        /* \"#utility.yul\":3592:3596   */\n      0x00\n        /* \"#utility.yul\":3630:3632   */\n      0x20\n        /* \"#utility.yul\":3619:3628   */\n      dup3\n        /* \"#utility.yul\":3615:3633   */\n      add\n        /* \"#utility.yul\":3607:3633   */\n      swap1\n      pop\n        /* \"#utility.yul\":3679:3688   */\n      dup2\n        /* \"#utility.yul\":3673:3677   */\n      dup2\n        /* \"#utility.yul\":3669:3689   */\n      sub\n        /* \"#utility.yul\":3665:3666   */\n      0x00\n        /* \"#utility.yul\":3654:3663   */\n      dup4\n        /* \"#utility.yul\":3650:3667   */\n      add\n        /* \"#utility.yul\":3643:3690   */\n      mstore\n        /* \"#utility.yul\":3707:3785   */\n      tag_230\n        /* \"#utility.yul\":3780:3784   */\n      dup2\n        /* \"#utility.yul\":3771:3777   */\n      dup5\n        /* \"#utility.yul\":3707:3785   */\n      tag_164\n      jump\t// in\n    tag_230:\n        /* \"#utility.yul\":3699:3785   */\n      swap1\n      pop\n        /* \"#utility.yul\":3479:3792   */\n      swap3\n      swap2\n      pop\n      pop\n      jump\t// out\n        /* \"#utility.yul\":3798:4417   */\n    tag_32:\n        /* \"#utility.yul\":3875:3881   */\n      0x00\n        /* \"#utility.yul\":3883:3889   */\n      dup1\n        /* \"#utility.yul\":3891:3897   */\n      0x00\n        /* \"#utility.yul\":3940:3942   */\n      0x60\n        /* \"#utility.yul\":3928:3937   */\n      dup5\n        /* \"#utility.yul\":3919:3926   */\n      dup7\n        /* \"#utility.yul\":3915:3938   */\n      sub\n        /* \"#utility.yul\":3911:3943   */\n      slt\n        /* \"#utility.yul\":3908:4027   */\n      iszero\n      tag_232\n      jumpi\n        /* \"#utility.yul\":3946:4025   */\n      tag_233\n      tag_148\n      jump\t// in\n    tag_233:\n        /* \"#utility.yul\":3908:4027   */\n    tag_232:\n        /* \"#utility.yul\":4066:4067   */\n      0x00\n        /* \"#utility.yul\":4091:4144   */\n      tag_234\n        /* \"#utility.yul\":4136:4143   */\n      dup7\n        /* \"#utility.yul\":4127:4133   */\n      dup3\n        /* \"#utility.yul\":4116:4125   */\n      dup8\n        /* \"#utility.yul\":4112:4134   */\n      add\n        /* \"#utility.yul\":4091:4144   */\n      tag_153\n      jump\t// in\n    tag_234:\n        /* \"#utility.yul\":4081:4144   */\n      swap4\n      pop\n        /* \"#utility.yul\":4037:4154   */\n      pop\n        /* \"#utility.yul\":4193:4195   */\n      0x20\n        /* \"#utility.yul\":4219:4272   */\n      tag_235\n        /* \"#utility.yul\":4264:4271   */\n      dup7\n        /* \"#utility.yul\":4255:4261   */\n      dup3\n        /* \"#utility.yul\":4244:4253   */\n      dup8\n        /* \"#utility.yul\":4240:4262   */\n      add\n        /* \"#utility.yul\":4219:4272   */\n      tag_153\n      jump\t// in\n    tag_235:\n        /* \"#utility.yul\":4209:4272   */\n      swap3\n      pop\n        /* \"#utility.yul\":4164:4282   */\n      pop\n        /* \"#utility.yul\":4321:4323   */\n      0x40\n        /* \"#utility.yul\":4347:4400   */\n      tag_236\n        /* \"#utility.yul\":4392:4399   */\n      dup7\n        /* \"#utility.yul\":4383:4389   */\n      dup3\n        /* \"#utility.yul\":4372:4381   */\n      dup8\n        /* \"#utility.yul\":4368:4390   */\n      add\n        /* \"#utility.yul\":4347:4400   */\n      tag_156\n      jump\t// in\n    tag_236:\n        /* \"#utility.yul\":4337:4400   */\n      swap2\n      pop\n        /* \"#utility.yul\":4292:4410   */\n      pop\n        /* \"#utility.yul\":3798:4417   */\n      swap3\n      pop\n      swap3\n      pop\n      swap3\n      jump\t// out\n        /* \"#utility.yul\":4423:4509   */\n    tag_165:\n        /* \"#utility.yul\":4458:4465   */\n      0x00\n        /* \"#utility.yul\":4498:4502   */\n      0xff\n        /* \"#utility.yul\":4491:4496   */\n      dup3\n        /* \"#utility.yul\":4487:4503   */\n      and\n        /* \"#utility.yul\":4476:4503   */\n      swap1\n      pop\n        /* \"#utility.yul\":4423:4509   */\n      swap2\n      swap1\n      pop\n      jump\t// out\n        /* \"#utility.yul\":4515:4627   */\n    tag_166:\n        /* \"#utility.yul\":4598:4620   */\n      tag_239\n        /* \"#utility.yul\":4614:4619   */\n      dup2\n        /* \"#utility.yul\":4598:4620   */\n      tag_165\n      jump\t// in\n    tag_239:\n        /* \"#utility.yul\":4593:4596   */\n      dup3\n        /* \"#utility.yul\":4586:4621   */\n      mstore\n        /* \"#utility.yul\":4515:4627   */\n      pop\n      pop\n      jump\t// out\n        /* \"#utility.yul\":4633:4847   */\n    tag_38:\n        /* \"#utility.yul\":4722:4726   */\n      0x00\n        /* \"#utility.yul\":4760:4762   */\n      0x20\n        /* \"#utility.yul\":4749:4758   */\n      dup3\n        /* \"#utility.yul\":4745:4763   */\n      add\n        /* \"#utility.yul\":4737:4763   */\n      swap1\n      pop\n        /* \"#utility.yul\":4773:4840   */\n      tag_241\n        /* \"#utility.yul\":4837:4838   */\n      0x00\n        /* \"#utility.yul\":4826:4835   */\n      dup4\n        /* \"#utility.yul\":4822:4839   */\n      add\n        /* \"#utility.yul\":4813:4819   */\n      dup5\n        /* \"#utility.yul\":4773:4840   */\n      tag_166\n      jump\t// in\n    tag_241:\n        /* \"#utility.yul\":4633:4847   */\n      swap3\n      swap2\n      pop\n      pop\n      jump\t// out\n        /* \"#utility.yul\":4853:5182   */\n    tag_41:\n        /* \"#utility.yul\":4912:4918   */\n      0x00\n        /* \"#utility.yul\":4961:4963   */\n      0x20\n        /* \"#utility.yul\":4949:4958   */\n      dup3\n        /* \"#utility.yul\":4940:4947   */\n      dup5\n        /* \"#utility.yul\":4936:4959   */\n      sub\n        /* \"#utility.yul\":4932:4964   */\n      slt\n        /* \"#utility.yul\":4929:5048   */\n      iszero\n      tag_243\n      jumpi\n        /* \"#utility.yul\":4967:5046   */\n      tag_244\n      tag_148\n      jump\t// in\n    tag_244:\n        /* \"#utility.yul\":4929:5048   */\n    tag_243:\n        /* \"#utility.yul\":5087:5088   */\n      0x00\n        /* \"#utility.yul\":5112:5165   */\n      tag_245\n        /* \"#utility.yul\":5157:5164   */\n      dup5\n        /* \"#utility.yul\":5148:5154   */\n      dup3\n        /* \"#utility.yul\":5137:5146   */\n      dup6\n        /* \"#utility.yul\":5133:5155   */\n      add\n        /* \"#utility.yul\":5112:5165   */\n      tag_153\n      jump\t// in\n    tag_245:\n        /* \"#utility.yul\":5102:5165   */\n      swap2\n      pop\n        /* \"#utility.yul\":5058:5175   */\n      pop\n        /* \"#utility.yul\":4853:5182   */\n      swap3\n      swap2\n      pop\n      pop\n      jump\t// out\n        /* \"#utility.yul\":5188:5662   */\n    tag_63:\n        /* \"#utility.yul\":5256:5262   */\n      0x00\n        /* \"#utility.yul\":5264:5270   */\n      dup1\n        /* \"#utility.yul\":5313:5315   */\n      0x40\n        /* \"#utility.yul\":5301:5310   */\n      dup4\n        /* \"#utility.yul\":5292:5299   */\n      dup6\n        /* \"#utility.yul\":5288:5311   */\n      sub\n        /* \"#utility.yul\":5284:5316   */\n      slt\n        /* \"#utility.yul\":5281:5400   */\n      iszero\n      tag_247\n      jumpi\n        /* \"#utility.yul\":5319:5398   */\n      tag_248\n      tag_148\n      jump\t// in\n    tag_248:\n        /* \"#utility.yul\":5281:5400   */\n    tag_247:\n        /* \"#utility.yul\":5439:5440   */\n      0x00\n        /* \"#utility.yul\":5464:5517   */\n      tag_249\n        /* \"#utility.yul\":5509:5516   */\n      dup6\n        /* \"#utility.yul\":5500:5506   */\n      dup3\n        /* \"#utility.yul\":5489:5498   */\n      dup7\n        /* \"#utility.yul\":5485:5507   */\n      add\n        /* \"#utility.yul\":5464:5517   */\n      tag_153\n      jump\t// in\n    tag_249:\n        /* \"#utility.yul\":5454:5517   */\n      swap3\n      pop\n        /* \"#utility.yul\":5410:5527   */\n      pop\n        /* \"#utility.yul\":5566:5568   */\n      0x20\n        /* \"#utility.yul\":5592:5645   */\n      tag_250\n        /* \"#utility.yul\":5637:5644   */\n      dup6\n        /* \"#utility.yul\":5628:5634   */\n      dup3\n        /* \"#utility.yul\":5617:5626   */\n      dup7\n        /* \"#utility.yul\":5613:5635   */\n      add\n        /* \"#utility.yul\":5592:5645   */\n      tag_153\n      jump\t// in\n    tag_250:\n        /* \"#utility.yul\":5582:5645   */\n      swap2\n      pop\n        /* \"#utility.yul\":5537:5655   */\n      pop\n        /* \"#utility.yul\":5188:5662   */\n      swap3\n      pop\n      swap3\n      swap1\n      pop\n      jump\t// out\n        /* \"#utility.yul\":5668:5848   */\n    tag_167:\n        /* \"#utility.yul\":5716:5793   */\n      0x4e487b7100000000000000000000000000000000000000000000000000000000\n        /* \"#utility.yul\":5713:5714   */\n      0x00\n        /* \"#utility.yul\":5706:5794   */\n      mstore\n        /* \"#utility.yul\":5813:5817   */\n      0x22\n        /* \"#utility.yul\":5810:5811   */\n      0x04\n        /* \"#utility.yul\":5803:5818   */\n      mstore\n        /* \"#utility.yul\":5837:5841   */\n      0x24\n        /* \"#utility.yul\":5834:5835   */\n      0x00\n        /* \"#utility.yul\":5827:5842   */\n      revert\n        /* \"#utility.yul\":5854:6174   */\n    tag_72:\n        /* \"#utility.yul\":5898:5904   */\n      0x00\n        /* \"#utility.yul\":5935:5936   */\n      0x02\n        /* \"#utility.yul\":5929:5933   */\n      dup3\n        /* \"#utility.yul\":5925:5937   */\n      div\n        /* \"#utility.yul\":5915:5937   */\n      swap1\n      pop\n        /* \"#utility.yul\":5982:5983   */\n      0x01\n        /* \"#utility.yul\":5976:5980   */\n      dup3\n        /* \"#utility.yul\":5972:5984   */\n      and\n        /* \"#utility.yul\":6003:6021   */\n      dup1\n        /* \"#utility.yul\":5993:6074   */\n      tag_253\n      jumpi\n        /* \"#utility.yul\":6059:6063   */\n      0x7f\n        /* \"#utility.yul\":6051:6057   */\n      dup3\n        /* \"#utility.yul\":6047:6064   */\n      and\n        /* \"#utility.yul\":6037:6064   */\n      swap2\n      pop\n        /* \"#utility.yul\":5993:6074   */\n    tag_253:\n        /* \"#utility.yul\":6121:6123   */\n      0x20\n        /* \"#utility.yul\":6113:6119   */\n      dup3\n        /* \"#utility.yul\":6110:6124   */\n      lt\n        /* \"#utility.yul\":6090:6108   */\n      dup2\n        /* \"#utility.yul\":6087:6125   */\n      sub\n        /* \"#utility.yul\":6084:6168   */\n      tag_254\n      jumpi\n        /* \"#utility.yul\":6140:6158   */\n      tag_255\n      tag_167\n      jump\t// in\n    tag_255:\n        /* \"#utility.yul\":6084:6168   */\n    tag_254:\n        /* \"#utility.yul\":5905:6174   */\n      pop\n        /* \"#utility.yul\":5854:6174   */\n      swap2\n      swap1\n      pop\n      jump\t// out\n        /* \"#utility.yul\":6180:6360   */\n    tag_168:\n        /* \"#utility.yul\":6228:6305   */\n      0x4e487b7100000000000000000000000000000000000000000000000000000000\n        /* \"#utility.yul\":6225:6226   */\n      0x00\n        /* \"#utility.yul\":6218:6306   */\n      mstore\n        /* \"#utility.yul\":6325:6329   */\n      0x11\n        /* \"#utility.yul\":6322:6323   */\n      0x04\n        /* \"#utility.yul\":6315:6330   */\n      mstore\n        /* \"#utility.yul\":6349:6353   */\n      0x24\n        /* \"#utility.yul\":6346:6347   */\n      0x00\n        /* \"#utility.yul\":6339:6354   */\n      revert\n        /* \"#utility.yul\":6366:6557   */\n    tag_87:\n        /* \"#utility.yul\":6406:6409   */\n      0x00\n        /* \"#utility.yul\":6425:6445   */\n      tag_258\n        /* \"#utility.yul\":6443:6444   */\n      dup3\n        /* \"#utility.yul\":6425:6445   */\n      tag_154\n      jump\t// in\n    tag_258:\n        /* \"#utility.yul\":6420:6445   */\n      swap2\n      pop\n        /* \"#utility.yul\":6459:6479   */\n      tag_259\n        /* \"#utility.yul\":6477:6478   */\n      dup4\n        /* \"#utility.yul\":6459:6479   */\n      tag_154\n      jump\t// in\n    tag_259:\n        /* \"#utility.yul\":6454:6479   */\n      swap3\n      pop\n        /* \"#utility.yul\":6502:6503   */\n      dup3\n        /* \"#utility.yul\":6499:6500   */\n      dup3\n        /* \"#utility.yul\":6495:6504   */\n      add\n        /* \"#utility.yul\":6488:6504   */\n      swap1\n      pop\n        /* \"#utility.yul\":6523:6526   */\n      dup1\n        /* \"#utility.yul\":6520:6521   */\n      dup3\n        /* \"#utility.yul\":6517:6527   */\n      gt\n        /* \"#utility.yul\":6514:6550   */\n      iszero\n      tag_260\n      jumpi\n        /* \"#utility.yul\":6530:6548   */\n      tag_261\n      tag_168\n      jump\t// in\n    tag_261:\n        /* \"#utility.yul\":6514:6550   */\n    tag_260:\n        /* \"#utility.yul\":6366:6557   */\n      swap3\n      swap2\n      pop\n      pop\n      jump\t// out\n        /* \"#utility.yul\":6563:6787   */\n    tag_169:\n        /* \"#utility.yul\":6703:6737   */\n      0x45524332303a2064656372656173656420616c6c6f77616e63652062656c6f77\n        /* \"#utility.yul\":6699:6700   */\n      0x00\n        /* \"#utility.yul\":6691:6697   */\n      dup3\n        /* \"#utility.yul\":6687:6701   */\n      add\n        /* \"#utility.yul\":6680:6738   */\n      mstore\n        /* \"#utility.yul\":6772:6779   */\n      0x207a65726f000000000000000000000000000000000000000000000000000000\n        /* \"#utility.yul\":6767:6769   */\n      0x20\n        /* \"#utility.yul\":6759:6765   */\n      dup3\n        /* \"#utility.yul\":6755:6770   */\n      add\n        /* \"#utility.yul\":6748:6780   */\n      mstore\n        /* \"#utility.yul\":6563:6787   */\n      pop\n      jump\t// out\n        /* \"#utility.yul\":6793:7159   */\n    tag_170:\n        /* \"#utility.yul\":6935:6938   */\n      0x00\n        /* \"#utility.yul\":6956:7023   */\n      tag_264\n        /* \"#utility.yul\":7020:7022   */\n      0x25\n        /* \"#utility.yul\":7015:7018   */\n      dup4\n        /* \"#utility.yul\":6956:7023   */\n      tag_161\n      jump\t// in\n    tag_264:\n        /* \"#utility.yul\":6949:7023   */\n      swap2\n      pop\n        /* \"#utility.yul\":7032:7125   */\n      tag_265\n        /* \"#utility.yul\":7121:7124   */\n      dup3\n        /* \"#utility.yul\":7032:7125   */\n      tag_169\n      jump\t// in\n    tag_265:\n        /* \"#utility.yul\":7150:7152   */\n      0x40\n        /* \"#utility.yul\":7145:7148   */\n      dup3\n        /* \"#utility.yul\":7141:7153   */\n      add\n        /* \"#utility.yul\":7134:7153   */\n      swap1\n      pop\n        /* \"#utility.yul\":6793:7159   */\n      swap2\n      swap1\n      pop\n      jump\t// out\n        /* \"#utility.yul\":7165:7584   */\n    tag_97:\n        /* \"#utility.yul\":7331:7335   */\n      0x00\n        /* \"#utility.yul\":7369:7371   */\n      0x20\n        /* \"#utility.yul\":7358:7367   */\n      dup3\n        /* \"#utility.yul\":7354:7372   */\n      add\n        /* \"#utility.yul\":7346:7372   */\n      swap1\n      pop\n        /* \"#utility.yul\":7418:7427   */\n      dup2\n        /* \"#utility.yul\":7412:7416   */\n      dup2\n        /* \"#utility.yul\":7408:7428   */\n      sub\n        /* \"#utility.yul\":7404:7405   */\n      0x00\n        /* \"#utility.yul\":7393:7402   */\n      dup4\n        /* \"#utility.yul\":7389:7406   */\n      add\n        /* \"#utility.yul\":7382:7429   */\n      mstore\n        /* \"#utility.yul\":7446:7577   */\n      tag_267\n        /* \"#utility.yul\":7572:7576   */\n      dup2\n        /* \"#utility.yul\":7446:7577   */\n      tag_170\n      jump\t// in\n    tag_267:\n        /* \"#utility.yul\":7438:7577   */\n      swap1\n      pop\n        /* \"#utility.yul\":7165:7584   */\n      swap2\n      swap1\n      pop\n      jump\t// out\n        /* \"#utility.yul\":7590:7772   */\n    tag_171:\n        /* \"#utility.yul\":7730:7764   */\n      0x45524332303a20617070726f76652066726f6d207a65726f2061646472657373\n        /* \"#utility.yul\":7726:7727   */\n      0x00\n        /* \"#utility.yul\":7718:7724   */\n      dup3\n        /* \"#utility.yul\":7714:7728   */\n      add\n        /* \"#utility.yul\":7707:7765   */\n      mstore\n        /* \"#utility.yul\":7590:7772   */\n      pop\n      jump\t// out\n        /* \"#utility.yul\":7778:8144   */\n    tag_172:\n        /* \"#utility.yul\":7920:7923   */\n      0x00\n        /* \"#utility.yul\":7941:8008   */\n      tag_270\n        /* \"#utility.yul\":8005:8007   */\n      0x20\n        /* \"#utility.yul\":8000:8003   */\n      dup4\n        /* \"#utility.yul\":7941:8008   */\n      tag_161\n      jump\t// in\n    tag_270:\n        /* \"#utility.yul\":7934:8008   */\n      swap2\n      pop\n        /* \"#utility.yul\":8017:8110   */\n      tag_271\n        /* \"#utility.yul\":8106:8109   */\n      dup3\n        /* \"#utility.yul\":8017:8110   */\n      tag_171\n      jump\t// in\n    tag_271:\n        /* \"#utility.yul\":8135:8137   */\n      0x20\n        /* \"#utility.yul\":8130:8133   */\n      dup3\n        /* \"#utility.yul\":8126:8138   */\n      add\n        /* \"#utility.yul\":8119:8138   */\n      swap1\n      pop\n        /* \"#utility.yul\":7778:8144   */\n      swap2\n      swap1\n      pop\n      jump\t// out\n        /* \"#utility.yul\":8150:8569   */\n    tag_108:\n        /* \"#utility.yul\":8316:8320   */\n      0x00\n        /* \"#utility.yul\":8354:8356   */\n      0x20\n        /* \"#utility.yul\":8343:8352   */\n      dup3\n        /* \"#utility.yul\":8339:8357   */\n      add\n        /* \"#utility.yul\":8331:8357   */\n      swap1\n      pop\n        /* \"#utility.yul\":8403:8412   */\n      dup2\n        /* \"#utility.yul\":8397:8401   */\n      dup2\n        /* \"#utility.yul\":8393:8413   */\n      sub\n        /* \"#utility.yul\":8389:8390   */\n      0x00\n        /* \"#utility.yul\":8378:8387   */\n      dup4\n        /* \"#utility.yul\":8374:8391   */\n      add\n        /* \"#utility.yul\":8367:8414   */\n      mstore\n        /* \"#utility.yul\":8431:8562   */\n      tag_273\n        /* \"#utility.yul\":8557:8561   */\n      dup2\n        /* \"#utility.yul\":8431:8562   */\n      tag_172\n      jump\t// in\n    tag_273:\n        /* \"#utility.yul\":8423:8562   */\n      swap1\n      pop\n        /* \"#utility.yul\":8150:8569   */\n      swap2\n      swap1\n      pop\n      jump\t// out\n        /* \"#utility.yul\":8575:8755   */\n    tag_173:\n        /* \"#utility.yul\":8715:8747   */\n      0x45524332303a20617070726f766520746f207a65726f20616464726573730000\n        /* \"#utility.yul\":8711:8712   */\n      0x00\n        /* \"#utility.yul\":8703:8709   */\n      dup3\n        /* \"#utility.yul\":8699:8713   */\n      add\n        /* \"#utility.yul\":8692:8748   */\n      mstore\n        /* \"#utility.yul\":8575:8755   */\n      pop\n      jump\t// out\n        /* \"#utility.yul\":8761:9127   */\n    tag_174:\n        /* \"#utility.yul\":8903:8906   */\n      0x00\n        /* \"#utility.yul\":8924:8991   */\n      tag_276\n        /* \"#utility.yul\":8988:8990   */\n      0x1e\n        /* \"#utility.yul\":8983:8986   */\n      dup4\n        /* \"#utility.yul\":8924:8991   */\n      tag_161\n      jump\t// in\n    tag_276:\n        /* \"#utility.yul\":8917:8991   */\n      swap2\n      pop\n        /* \"#utility.yul\":9000:9093   */\n      tag_277\n        /* \"#utility.yul\":9089:9092   */\n      dup3\n        /* \"#utility.yul\":9000:9093   */\n      tag_173\n      jump\t// in\n    tag_277:\n        /* \"#utility.yul\":9118:9120   */\n      0x20\n        /* \"#utility.yul\":9113:9116   */\n      dup3\n        /* \"#utility.yul\":9109:9121   */\n      add\n        /* \"#utility.yul\":9102:9121   */\n      swap1\n      pop\n        /* \"#utility.yul\":8761:9127   */\n      swap2\n      swap1\n      pop\n      jump\t// out\n        /* \"#utility.yul\":9133:9552   */\n    tag_111:\n        /* \"#utility.yul\":9299:9303   */\n      0x00\n        /* \"#utility.yul\":9337:9339   */\n      0x20\n        /* \"#utility.yul\":9326:9335   */\n      dup3\n        /* \"#utility.yul\":9322:9340   */\n      add\n        /* \"#utility.yul\":9314:9340   */\n      swap1\n      pop\n        /* \"#utility.yul\":9386:9395   */\n      dup2\n        /* \"#utility.yul\":9380:9384   */\n      dup2\n        /* \"#utility.yul\":9376:9396   */\n      sub\n        /* \"#utility.yul\":9372:9373   */\n      0x00\n        /* \"#utility.yul\":9361:9370   */\n      dup4\n        /* \"#utility.yul\":9357:9374   */\n      add\n        /* \"#utility.yul\":9350:9397   */\n      mstore\n        /* \"#utility.yul\":9414:9545   */\n      tag_279\n        /* \"#utility.yul\":9540:9544   */\n      dup2\n        /* \"#utility.yul\":9414:9545   */\n      tag_174\n      jump\t// in\n    tag_279:\n        /* \"#utility.yul\":9406:9545   */\n      swap1\n      pop\n        /* \"#utility.yul\":9133:9552   */\n      swap2\n      swap1\n      pop\n      jump\t// out\n        /* \"#utility.yul\":9558:9736   */\n    tag_175:\n        /* \"#utility.yul\":9698:9728   */\n      0x45524332303a20696e73756666696369656e742062616c616e63657300000000\n        /* \"#utility.yul\":9694:9695   */\n      0x00\n        /* \"#utility.yul\":9686:9692   */\n      dup3\n        /* \"#utility.yul\":9682:9696   */\n      add\n        /* \"#utility.yul\":9675:9729   */\n      mstore\n        /* \"#utility.yul\":9558:9736   */\n      pop\n      jump\t// out\n        /* \"#utility.yul\":9742:10108   */\n    tag_176:\n        /* \"#utility.yul\":9884:9887   */\n      0x00\n        /* \"#utility.yul\":9905:9972   */\n      tag_282\n        /* \"#utility.yul\":9969:9971   */\n      0x1c\n        /* \"#utility.yul\":9964:9967   */\n      dup4\n        /* \"#utility.yul\":9905:9972   */\n      tag_161\n      jump\t// in\n    tag_282:\n        /* \"#utility.yul\":9898:9972   */\n      swap2\n      pop\n        /* \"#utility.yul\":9981:10074   */\n      tag_283\n        /* \"#utility.yul\":10070:10073   */\n      dup3\n        /* \"#utility.yul\":9981:10074   */\n      tag_175\n      jump\t// in\n    tag_283:\n        /* \"#utility.yul\":10099:10101   */\n      0x20\n        /* \"#utility.yul\":10094:10097   */\n      dup3\n        /* \"#utility.yul\":10090:10102   */\n      add\n        /* \"#utility.yul\":10083:10102   */\n      swap1\n      pop\n        /* \"#utility.yul\":9742:10108   */\n      swap2\n      swap1\n      pop\n      jump\t// out\n        /* \"#utility.yul\":10114:10533   */\n    tag_118:\n        /* \"#utility.yul\":10280:10284   */\n      0x00\n        /* \"#utility.yul\":10318:10320   */\n      0x20\n        /* \"#utility.yul\":10307:10316   */\n      dup3\n        /* \"#utility.yul\":10303:10321   */\n      add\n        /* \"#utility.yul\":10295:10321   */\n      swap1\n      pop\n        /* \"#utility.yul\":10367:10376   */\n      dup2\n        /* \"#utility.yul\":10361:10365   */\n      dup2\n        /* \"#utility.yul\":10357:10377   */\n      sub\n        /* \"#utility.yul\":10353:10354   */\n      0x00\n        /* \"#utility.yul\":10342:10351   */\n      dup4\n        /* \"#utility.yul\":10338:10355   */\n      add\n        /* \"#utility.yul\":10331:10378   */\n      mstore\n        /* \"#utility.yul\":10395:10526   */\n      tag_285\n        /* \"#utility.yul\":10521:10525   */\n      dup2\n        /* \"#utility.yul\":10395:10526   */\n      tag_176\n      jump\t// in\n    tag_285:\n        /* \"#utility.yul\":10387:10526   */\n      swap1\n      pop\n        /* \"#utility.yul\":10114:10533   */\n      swap2\n      swap1\n      pop\n      jump\t// out\n        /* \"#utility.yul\":10539:10718   */\n    tag_177:\n        /* \"#utility.yul\":10679:10710   */\n      0x45524332303a206f776e6572206164647265737320697320656d707479000000\n        /* \"#utility.yul\":10675:10676   */\n      0x00\n        /* \"#utility.yul\":10667:10673   */\n      dup3\n        /* \"#utility.yul\":10663:10677   */\n      add\n        /* \"#utility.yul\":10656:10711   */\n      mstore\n        /* \"#utility.yul\":10539:10718   */\n      pop\n      jump\t// out\n        /* \"#utility.yul\":10724:11090   */\n    tag_178:\n        /* \"#utility.yul\":10866:10869   */\n      0x00\n        /* \"#utility.yul\":10887:10954   */\n      tag_288\n        /* \"#utility.yul\":10951:10953   */\n      0x1d\n        /* \"#utility.yul\":10946:10949   */\n      dup4\n        /* \"#utility.yul\":10887:10954   */\n      tag_161\n      jump\t// in\n    tag_288:\n        /* \"#utility.yul\":10880:10954   */\n      swap2\n      pop\n        /* \"#utility.yul\":10963:11056   */\n      tag_289\n        /* \"#utility.yul\":11052:11055   */\n      dup3\n        /* \"#utility.yul\":10963:11056   */\n      tag_177\n      jump\t// in\n    tag_289:\n        /* \"#utility.yul\":11081:11083   */\n      0x20\n        /* \"#utility.yul\":11076:11079   */\n      dup3\n        /* \"#utility.yul\":11072:11084   */\n      add\n        /* \"#utility.yul\":11065:11084   */\n      swap1\n      pop\n        /* \"#utility.yul\":10724:11090   */\n      swap2\n      swap1\n      pop\n      jump\t// out\n        /* \"#utility.yul\":11096:11515   */\n    tag_123:\n        /* \"#utility.yul\":11262:11266   */\n      0x00\n        /* \"#utility.yul\":11300:11302   */\n      0x20\n        /* \"#utility.yul\":11289:11298   */\n      dup3\n        /* \"#utility.yul\":11285:11303   */\n      add\n        /* \"#utility.yul\":11277:11303   */\n      swap1\n      pop\n        /* \"#utility.yul\":11349:11358   */\n      dup2\n        /* \"#utility.yul\":11343:11347   */\n      dup2\n        /* \"#utility.yul\":11339:11359   */\n      sub\n        /* \"#utility.yul\":11335:11336   */\n      0x00\n        /* \"#utility.yul\":11324:11333   */\n      dup4\n        /* \"#utility.yul\":11320:11337   */\n      add\n        /* \"#utility.yul\":11313:11360   */\n      mstore\n        /* \"#utility.yul\":11377:11508   */\n      tag_291\n        /* \"#utility.yul\":11503:11507   */\n      dup2\n        /* \"#utility.yul\":11377:11508   */\n      tag_178\n      jump\t// in\n    tag_291:\n        /* \"#utility.yul\":11369:11508   */\n      swap1\n      pop\n        /* \"#utility.yul\":11096:11515   */\n      swap2\n      swap1\n      pop\n      jump\t// out\n        /* \"#utility.yul\":11521:11703   */\n    tag_179:\n        /* \"#utility.yul\":11661:11695   */\n      0x45524332303a207265636569766572206164647265737320697320656d707479\n        /* \"#utility.yul\":11657:11658   */\n      0x00\n        /* \"#utility.yul\":11649:11655   */\n      dup3\n        /* \"#utility.yul\":11645:11659   */\n      add\n        /* \"#utility.yul\":11638:11696   */\n      mstore\n        /* \"#utility.yul\":11521:11703   */\n      pop\n      jump\t// out\n        /* \"#utility.yul\":11709:12075   */\n    tag_180:\n        /* \"#utility.yul\":11851:11854   */\n      0x00\n        /* \"#utility.yul\":11872:11939   */\n      tag_294\n        /* \"#utility.yul\":11936:11938   */\n      0x20\n        /* \"#utility.yul\":11931:11934   */\n      dup4\n        /* \"#utility.yul\":11872:11939   */\n      tag_161\n      jump\t// in\n    tag_294:\n        /* \"#utility.yul\":11865:11939   */\n      swap2\n      pop\n        /* \"#utility.yul\":11948:12041   */\n      tag_295\n        /* \"#utility.yul\":12037:12040   */\n      dup3\n        /* \"#utility.yul\":11948:12041   */\n      tag_179\n      jump\t// in\n    tag_295:\n        /* \"#utility.yul\":12066:12068   */\n      0x20\n        /* \"#utility.yul\":12061:12064   */\n      dup3\n        /* \"#utility.yul\":12057:12069   */\n      add\n        /* \"#utility.yul\":12050:12069   */\n      swap1\n      pop\n        /* \"#utility.yul\":11709:12075   */\n      swap2\n      swap1\n      pop\n      jump\t// out\n        /* \"#utility.yul\":12081:12500   */\n    tag_126:\n        /* \"#utility.yul\":12247:12251   */\n      0x00\n        /* \"#utility.yul\":12285:12287   */\n      0x20\n        /* \"#utility.yul\":12274:12283   */\n      dup3\n        /* \"#utility.yul\":12270:12288   */\n      add\n        /* \"#utility.yul\":12262:12288   */\n      swap1\n      pop\n        /* \"#utility.yul\":12334:12343   */\n      dup2\n        /* \"#utility.yul\":12328:12332   */\n      dup2\n        /* \"#utility.yul\":12324:12344   */\n      sub\n        /* \"#utility.yul\":12320:12321   */\n      0x00\n        /* \"#utility.yul\":12309:12318   */\n      dup4\n        /* \"#utility.yul\":12305:12322   */\n      add\n        /* \"#utility.yul\":12298:12345   */\n      mstore\n        /* \"#utility.yul\":12362:12493   */\n      tag_297\n        /* \"#utility.yul\":12488:12492   */\n      dup2\n        /* \"#utility.yul\":12362:12493   */\n      tag_180\n      jump\t// in\n    tag_297:\n        /* \"#utility.yul\":12354:12493   */\n      swap1\n      pop\n        /* \"#utility.yul\":12081:12500   */\n      swap2\n      swap1\n      pop\n      jump\t// out\n        /* \"#utility.yul\":12506:12684   */\n    tag_181:\n        /* \"#utility.yul\":12646:12676   */\n      0x45524332303a206e6f742073756666696369656e7420616d6f756e7400000000\n        /* \"#utility.yul\":12642:12643   */\n      0x00\n        /* \"#utility.yul\":12634:12640   */\n      dup3\n        /* \"#utility.yul\":12630:12644   */\n      add\n        /* \"#utility.yul\":12623:12677   */\n      mstore\n        /* \"#utility.yul\":12506:12684   */\n      pop\n      jump\t// out\n        /* \"#utility.yul\":12690:13056   */\n    tag_182:\n        /* \"#utility.yul\":12832:12835   */\n      0x00\n        /* \"#utility.yul\":12853:12920   */\n      tag_300\n        /* \"#utility.yul\":12917:12919   */\n      0x1c\n        /* \"#utility.yul\":12912:12915   */\n      dup4\n        /* \"#utility.yul\":12853:12920   */\n      tag_161\n      jump\t// in\n    tag_300:\n        /* \"#utility.yul\":12846:12920   */\n      swap2\n      pop\n        /* \"#utility.yul\":12929:13022   */\n      tag_301\n        /* \"#utility.yul\":13018:13021   */\n      dup3\n        /* \"#utility.yul\":12929:13022   */\n      tag_181\n      jump\t// in\n    tag_301:\n        /* \"#utility.yul\":13047:13049   */\n      0x20\n        /* \"#utility.yul\":13042:13045   */\n      dup3\n        /* \"#utility.yul\":13038:13050   */\n      add\n        /* \"#utility.yul\":13031:13050   */\n      swap1\n      pop\n        /* \"#utility.yul\":12690:13056   */\n      swap2\n      swap1\n      pop\n      jump\t// out\n        /* \"#utility.yul\":13062:13481   */\n    tag_131:\n        /* \"#utility.yul\":13228:13232   */\n      0x00\n        /* \"#utility.yul\":13266:13268   */\n      0x20\n        /* \"#utility.yul\":13255:13264   */\n      dup3\n        /* \"#utility.yul\":13251:13269   */\n      add\n        /* \"#utility.yul\":13243:13269   */\n      swap1\n      pop\n        /* \"#utility.yul\":13315:13324   */\n      dup2\n        /* \"#utility.yul\":13309:13313   */\n      dup2\n        /* \"#utility.yul\":13305:13325   */\n      sub\n        /* \"#utility.yul\":13301:13302   */\n      0x00\n        /* \"#utility.yul\":13290:13299   */\n      dup4\n        /* \"#utility.yul\":13286:13303   */\n      add\n        /* \"#utility.yul\":13279:13326   */\n      mstore\n        /* \"#utility.yul\":13343:13474   */\n      tag_303\n        /* \"#utility.yul\":13469:13473   */\n      dup2\n        /* \"#utility.yul\":13343:13474   */\n      tag_182\n      jump\t// in\n    tag_303:\n        /* \"#utility.yul\":13335:13474   */\n      swap1\n      pop\n        /* \"#utility.yul\":13062:13481   */\n      swap2\n      swap1\n      pop\n      jump\t// out\n        /* \"#utility.yul\":13487:13660   */\n    tag_183:\n        /* \"#utility.yul\":13627:13652   */\n      0x45524332303a206164647265737320697320656d707479000000000000000000\n        /* \"#utility.yul\":13623:13624   */\n      0x00\n        /* \"#utility.yul\":13615:13621   */\n      dup3\n        /* \"#utility.yul\":13611:13625   */\n      add\n        /* \"#utility.yul\":13604:13653   */\n      mstore\n        /* \"#utility.yul\":13487:13660   */\n      pop\n      jump\t// out\n        /* \"#utility.yul\":13666:14032   */\n    tag_184:\n        /* \"#utility.yul\":13808:13811   */\n      0x00\n        /* \"#utility.yul\":13829:13896   */\n      tag_306\n        /* \"#utility.yul\":13893:13895   */\n      0x17\n        /* \"#utility.yul\":13888:13891   */\n      dup4\n        /* \"#utility.yul\":13829:13896   */\n      tag_161\n      jump\t// in\n    tag_306:\n        /* \"#utility.yul\":13822:13896   */\n      swap2\n      pop\n        /* \"#utility.yul\":13905:13998   */\n      tag_307\n        /* \"#utility.yul\":13994:13997   */\n      dup3\n        /* \"#utility.yul\":13905:13998   */\n      tag_183\n      jump\t// in\n    tag_307:\n        /* \"#utility.yul\":14023:14025   */\n      0x20\n        /* \"#utility.yul\":14018:14021   */\n      dup3\n        /* \"#utility.yul\":14014:14026   */\n      add\n        /* \"#utility.yul\":14007:14026   */\n      swap1\n      pop\n        /* \"#utility.yul\":13666:14032   */\n      swap2\n      swap1\n      pop\n      jump\t// out\n        /* \"#utility.yul\":14038:14457   */\n    tag_139:\n        /* \"#utility.yul\":14204:14208   */\n      0x00\n        /* \"#utility.yul\":14242:14244   */\n      0x20\n        /* \"#utility.yul\":14231:14240   */\n      dup3\n        /* \"#utility.yul\":14227:14245   */\n      add\n        /* \"#utility.yul\":14219:14245   */\n      swap1\n      pop\n        /* \"#utility.yul\":14291:14300   */\n      dup2\n        /* \"#utility.yul\":14285:14289   */\n      dup2\n        /* \"#utility.yul\":14281:14301   */\n      sub\n        /* \"#utility.yul\":14277:14278   */\n      0x00\n        /* \"#utility.yul\":14266:14275   */\n      dup4\n        /* \"#utility.yul\":14262:14279   */\n      add\n        /* \"#utility.yul\":14255:14302   */\n      mstore\n        /* \"#utility.yul\":14319:14450   */\n      tag_309\n        /* \"#utility.yul\":14445:14449   */\n      dup2\n        /* \"#utility.yul\":14319:14450   */\n      tag_184\n      jump\t// in\n    tag_309:\n        /* \"#utility.yul\":14311:14450   */\n      swap1\n      pop\n        /* \"#utility.yul\":14038:14457   */\n      swap2\n      swap1\n      pop\n      jump\t// out\n\n    auxdata: 0xa264697066735822122062565e4f1d1a0b8a5866ccac22374be1e42204a2a70e6993e503fde5f621b06e64736f6c63430008150033\n}\n",
				"bytecode": {
					"linkReferences": {},
					"object": "608060405234801562000010575f80fd5b506040518060400160405280600781526020017f53414e54494e4f000000000000000000000000000000000000000000000000008152506040518060400160405280600281526020017f534100000000000000000000000000000000000000000000000000000000000081525081600390816200008e91906200030d565b508060049081620000a091906200030d565b505050620003f1565b5f81519050919050565b7f4e487b71000000000000000000000000000000000000000000000000000000005f52604160045260245ffd5b7f4e487b71000000000000000000000000000000000000000000000000000000005f52602260045260245ffd5b5f60028204905060018216806200012557607f821691505b6020821081036200013b576200013a620000e0565b5b50919050565b5f819050815f5260205f209050919050565b5f6020601f8301049050919050565b5f82821b905092915050565b5f600883026200019f7fffffffffffffffffffffffffffffffffffffffffffffffffffffffffffffffff8262000162565b620001ab868362000162565b95508019841693508086168417925050509392505050565b5f819050919050565b5f819050919050565b5f620001f5620001ef620001e984620001c3565b620001cc565b620001c3565b9050919050565b5f819050919050565b6200021083620001d5565b620002286200021f82620001fc565b8484546200016e565b825550505050565b5f90565b6200023e62000230565b6200024b81848462000205565b505050565b5b818110156200027257620002665f8262000234565b60018101905062000251565b5050565b601f821115620002c1576200028b8162000141565b620002968462000153565b81016020851015620002a6578190505b620002be620002b58562000153565b83018262000250565b50505b505050565b5f82821c905092915050565b5f620002e35f1984600802620002c6565b1980831691505092915050565b5f620002fd8383620002d2565b9150826002028217905092915050565b6200031882620000a9565b67ffffffffffffffff811115620003345762000333620000b3565b5b6200034082546200010d565b6200034d82828562000276565b5f60209050601f83116001811462000383575f84156200036e578287015190505b6200037a8582620002f0565b865550620003e9565b601f198416620003938662000141565b5f5b82811015620003bc5784890151825560018201915060208501945060208101905062000395565b86831015620003dc5784890151620003d8601f891682620002d2565b8355505b6001600288020188555050505b505050505050565b61141a80620003ff5f395ff3fe608060405234801561000f575f80fd5b50600436106100b2575f3560e01c80638cbc1a761161006f5780638cbc1a76146101a0578063947a3168146101d0578063a457c2d7146101ee578063a9059cbb1461021e578063b44272631461024e578063dd62ed3e14610258576100b2565b8063095ea7b3146100b657806318160ddd146100e65780631f772a341461010457806323b872dd146101225780633c4b303d1461015257806370a0823114610170575b5f80fd5b6100d060048036038101906100cb9190610d91565b610288565b6040516100dd9190610de9565b60405180910390f35b6100ee6102a3565b6040516100fb9190610e11565b60405180910390f35b61010c6102ac565b6040516101199190610eb4565b60405180910390f35b61013c60048036038101906101379190610ed4565b61033c565b6040516101499190610de9565b60405180910390f35b61015a610363565b6040516101679190610f3f565b60405180910390f35b61018a60048036038101906101859190610f58565b61036b565b6040516101979190610e11565b60405180910390f35b6101ba60048036038101906101b59190610d91565b6103b0565b6040516101c79190610de9565b60405180910390f35b6101d861044e565b6040516101e59190610eb4565b60405180910390f35b61020860048036038101906102039190610d91565b6104de565b6040516102159190610de9565b60405180910390f35b61023860048036038101906102339190610d91565b610633565b6040516102459190610de9565b60405180910390f35b61025661064e565b005b610272600480360381019061026d9190610f83565b61065c565b60405161027f9190610e11565b60405180910390f35b5f803390506102988185856106de565b600191505092915050565b5f600254905090565b6060600480546102bb90610fee565b80601f01602080910402602001604051908101604052809291908181526020018280546102e790610fee565b80156103325780601f1061030957610100808354040283529160200191610332565b820191905f5260205f20905b81548152906001019060200180831161031557829003601f168201915b5050505050905090565b5f8033905061034c8582856108a1565b61035785858561092a565b60019150509392505050565b5f6012905090565b5f805f8373ffffffffffffffffffffffffffffffffffffffff1673ffffffffffffffffffffffffffffffffffffffff1681526020019081526020015f20549050919050565b5f8033905061044381858560015f8673ffffffffffffffffffffffffffffffffffffffff1673ffffffffffffffffffffffffffffffffffffffff1681526020019081526020015f205f8973ffffffffffffffffffffffffffffffffffffffff1673ffffffffffffffffffffffffffffffffffffffff1681526020019081526020015f205461043e919061104b565b6106de565b600191505092915050565b60606003805461045d90610fee565b80601f016020809104026020016040519081016040528092919081815260200182805461048990610fee565b80156104d45780601f106104ab576101008083540402835291602001916104d4565b820191905f5260205f20905b8154815290600101906020018083116104b757829003601f168201915b5050505050905090565b5f803390505f60015f8373ffffffffffffffffffffffffffffffffffffffff1673ffffffffffffffffffffffffffffffffffffffff1681526020019081526020015f205f8673ffffffffffffffffffffffffffffffffffffffff1673ffffffffffffffffffffffffffffffffffffffff1681526020019081526020015f2054905060015f8373ffffffffffffffffffffffffffffffffffffffff1673ffffffffffffffffffffffffffffffffffffffff1681526020019081526020015f205f8673ffffffffffffffffffffffffffffffffffffffff1673ffffffffffffffffffffffffffffffffffffffff1681526020019081526020015f205481101561061a576040517f08c379a0000000000000000000000000000000000000000000000000000000008152600401610611906110ee565b60405180910390fd5b61062782868684036106de565b60019250505092915050565b5f8033905061064381858561092a565b600191505092915050565b61065a336103e8610b9f565b565b5f60015f8473ffffffffffffffffffffffffffffffffffffffff1673ffffffffffffffffffffffffffffffffffffffff1681526020019081526020015f205f8373ffffffffffffffffffffffffffffffffffffffff1673ffffffffffffffffffffffffffffffffffffffff1681526020019081526020015f2054905092915050565b5f73ffffffffffffffffffffffffffffffffffffffff168373ffffffffffffffffffffffffffffffffffffffff160361074c576040517f08c379a000000000000000000000000000000000000000000000000000000000815260040161074390611156565b60405180910390fd5b5f73ffffffffffffffffffffffffffffffffffffffff168273ffffffffffffffffffffffffffffffffffffffff16036107ba576040517f08c379a00000000000000000000000000000000000000000000000000000000081526004016107b1906111be565b60405180910390fd5b8060015f8573ffffffffffffffffffffffffffffffffffffffff1673ffffffffffffffffffffffffffffffffffffffff1681526020019081526020015f205f8473ffffffffffffffffffffffffffffffffffffffff1673ffffffffffffffffffffffffffffffffffffffff1681526020019081526020015f20819055508173ffffffffffffffffffffffffffffffffffffffff168373ffffffffffffffffffffffffffffffffffffffff167f8c5be1e5ebec7d5bd14f71427d1e84f3dd0314c0f7b2291e5b200ac8c7c3b925836040516108949190610e11565b60405180910390a3505050565b5f6108ac848461065c565b90507fffffffffffffffffffffffffffffffffffffffffffffffffffffffffffffffff81146109245781811015610918576040517f08c379a000000000000000000000000000000000000000000000000000000000815260040161090f90611226565b60405180910390fd5b6109238484846106de565b5b50505050565b5f73ffffffffffffffffffffffffffffffffffffffff168373ffffffffffffffffffffffffffffffffffffffff1603610998576040517f08c379a000000000000000000000000000000000000000000000000000000000815260040161098f9061128e565b60405180910390fd5b5f73ffffffffffffffffffffffffffffffffffffffff168273ffffffffffffffffffffffffffffffffffffffff1603610a06576040517f08c379a00000000000000000000000000000000000000000000000000000000081526004016109fd906112f6565b60405180910390fd5b610a11838383610cf6565b5f805f8573ffffffffffffffffffffffffffffffffffffffff1673ffffffffffffffffffffffffffffffffffffffff1681526020019081526020015f2054905081811015610a94576040517f08c379a0000000000000000000000000000000000000000000000000000000008152600401610a8b9061135e565b60405180910390fd5b8181035f808673ffffffffffffffffffffffffffffffffffffffff1673ffffffffffffffffffffffffffffffffffffffff1681526020019081526020015f2081905550815f808573ffffffffffffffffffffffffffffffffffffffff1673ffffffffffffffffffffffffffffffffffffffff1681526020019081526020015f205f828254610b22919061104b565b925050819055508273ffffffffffffffffffffffffffffffffffffffff168473ffffffffffffffffffffffffffffffffffffffff167fddf252ad1be2c89b69c2b068fc378daa952ba7f163c4a11628f55a4df523b3ef84604051610b869190610e11565b60405180910390a3610b99848484610cfb565b50505050565b5f73ffffffffffffffffffffffffffffffffffffffff168273ffffffffffffffffffffffffffffffffffffffff1603610c0d576040517f08c379a0000000000000000000000000000000000000000000000000000000008152600401610c04906113c6565b60405180910390fd5b610c185f8383610cf6565b8060025f828254610c29919061104b565b92505081905550805f808473ffffffffffffffffffffffffffffffffffffffff1673ffffffffffffffffffffffffffffffffffffffff1681526020019081526020015f205f828254610c7b919061104b565b925050819055508173ffffffffffffffffffffffffffffffffffffffff165f73ffffffffffffffffffffffffffffffffffffffff167fddf252ad1be2c89b69c2b068fc378daa952ba7f163c4a11628f55a4df523b3ef83604051610cdf9190610e11565b60405180910390a3610cf25f8383610cfb565b5050565b505050565b505050565b5f80fd5b5f73ffffffffffffffffffffffffffffffffffffffff82169050919050565b5f610d2d82610d04565b9050919050565b610d3d81610d23565b8114610d47575f80fd5b50565b5f81359050610d5881610d34565b92915050565b5f819050919050565b610d7081610d5e565b8114610d7a575f80fd5b50565b5f81359050610d8b81610d67565b92915050565b5f8060408385031215610da757610da6610d00565b5b5f610db485828601610d4a565b9250506020610dc585828601610d7d565b9150509250929050565b5f8115159050919050565b610de381610dcf565b82525050565b5f602082019050610dfc5f830184610dda565b92915050565b610e0b81610d5e565b82525050565b5f602082019050610e245f830184610e02565b92915050565b5f81519050919050565b5f82825260208201905092915050565b5f5b83811015610e61578082015181840152602081019050610e46565b5f8484015250505050565b5f601f19601f8301169050919050565b5f610e8682610e2a565b610e908185610e34565b9350610ea0818560208601610e44565b610ea981610e6c565b840191505092915050565b5f6020820190508181035f830152610ecc8184610e7c565b905092915050565b5f805f60608486031215610eeb57610eea610d00565b5b5f610ef886828701610d4a565b9350506020610f0986828701610d4a565b9250506040610f1a86828701610d7d565b9150509250925092565b5f60ff82169050919050565b610f3981610f24565b82525050565b5f602082019050610f525f830184610f30565b92915050565b5f60208284031215610f6d57610f6c610d00565b5b5f610f7a84828501610d4a565b91505092915050565b5f8060408385031215610f9957610f98610d00565b5b5f610fa685828601610d4a565b9250506020610fb785828601610d4a565b9150509250929050565b7f4e487b71000000000000000000000000000000000000000000000000000000005f52602260045260245ffd5b5f600282049050600182168061100557607f821691505b60208210810361101857611017610fc1565b5b50919050565b7f4e487b71000000000000000000000000000000000000000000000000000000005f52601160045260245ffd5b5f61105582610d5e565b915061106083610d5e565b92508282019050808211156110785761107761101e565b5b92915050565b7f45524332303a2064656372656173656420616c6c6f77616e63652062656c6f775f8201527f207a65726f000000000000000000000000000000000000000000000000000000602082015250565b5f6110d8602583610e34565b91506110e38261107e565b604082019050919050565b5f6020820190508181035f830152611105816110cc565b9050919050565b7f45524332303a20617070726f76652066726f6d207a65726f20616464726573735f82015250565b5f611140602083610e34565b915061114b8261110c565b602082019050919050565b5f6020820190508181035f83015261116d81611134565b9050919050565b7f45524332303a20617070726f766520746f207a65726f206164647265737300005f82015250565b5f6111a8601e83610e34565b91506111b382611174565b602082019050919050565b5f6020820190508181035f8301526111d58161119c565b9050919050565b7f45524332303a20696e73756666696369656e742062616c616e636573000000005f82015250565b5f611210601c83610e34565b915061121b826111dc565b602082019050919050565b5f6020820190508181035f83015261123d81611204565b9050919050565b7f45524332303a206f776e6572206164647265737320697320656d7074790000005f82015250565b5f611278601d83610e34565b915061128382611244565b602082019050919050565b5f6020820190508181035f8301526112a58161126c565b9050919050565b7f45524332303a207265636569766572206164647265737320697320656d7074795f82015250565b5f6112e0602083610e34565b91506112eb826112ac565b602082019050919050565b5f6020820190508181035f83015261130d816112d4565b9050919050565b7f45524332303a206e6f742073756666696369656e7420616d6f756e74000000005f82015250565b5f611348601c83610e34565b915061135382611314565b602082019050919050565b5f6020820190508181035f8301526113758161133c565b9050919050565b7f45524332303a206164647265737320697320656d7074790000000000000000005f82015250565b5f6113b0601783610e34565b91506113bb8261137c565b602082019050919050565b5f6020820190508181035f8301526113dd816113a4565b905091905056fea264697066735822122062565e4f1d1a0b8a5866ccac22374be1e42204a2a70e6993e503fde5f621b06e64736f6c63430008150033",
					"opcodes": "PUSH1 0x80 PUSH1 0x40 MSTORE CALLVALUE DUP1 ISZERO PUSH3 0x10 JUMPI PUSH0 DUP1 REVERT JUMPDEST POP PUSH1 0x40 MLOAD DUP1 PUSH1 0x40 ADD PUSH1 0x40 MSTORE DUP1 PUSH1 0x7 DUP2 MSTORE PUSH1 0x20 ADD PUSH32 0x53414E54494E4F00000000000000000000000000000000000000000000000000 DUP2 MSTORE POP PUSH1 0x40 MLOAD DUP1 PUSH1 0x40 ADD PUSH1 0x40 MSTORE DUP1 PUSH1 0x2 DUP2 MSTORE PUSH1 0x20 ADD PUSH32 0x5341000000000000000000000000000000000000000000000000000000000000 DUP2 MSTORE POP DUP2 PUSH1 0x3 SWAP1 DUP2 PUSH3 0x8E SWAP2 SWAP1 PUSH3 0x30D JUMP JUMPDEST POP DUP1 PUSH1 0x4 SWAP1 DUP2 PUSH3 0xA0 SWAP2 SWAP1 PUSH3 0x30D JUMP JUMPDEST POP POP POP PUSH3 0x3F1 JUMP JUMPDEST PUSH0 DUP2 MLOAD SWAP1 POP SWAP2 SWAP1 POP JUMP JUMPDEST PUSH32 0x4E487B7100000000000000000000000000000000000000000000000000000000 PUSH0 MSTORE PUSH1 0x41 PUSH1 0x4 MSTORE PUSH1 0x24 PUSH0 REVERT JUMPDEST PUSH32 0x4E487B7100000000000000000000000000000000000000000000000000000000 PUSH0 MSTORE PUSH1 0x22 PUSH1 0x4 MSTORE PUSH1 0x24 PUSH0 REVERT JUMPDEST PUSH0 PUSH1 0x2 DUP3 DIV SWAP1 POP PUSH1 0x1 DUP3 AND DUP1 PUSH3 0x125 JUMPI PUSH1 0x7F DUP3 AND SWAP2 POP JUMPDEST PUSH1 0x20 DUP3 LT DUP2 SUB PUSH3 0x13B JUMPI PUSH3 0x13A PUSH3 0xE0 JUMP JUMPDEST JUMPDEST POP SWAP2 SWAP1 POP JUMP JUMPDEST PUSH0 DUP2 SWAP1 POP DUP2 PUSH0 MSTORE PUSH1 0x20 PUSH0 KECCAK256 SWAP1 POP SWAP2 SWAP1 POP JUMP JUMPDEST PUSH0 PUSH1 0x20 PUSH1 0x1F DUP4 ADD DIV SWAP1 POP SWAP2 SWAP1 POP JUMP JUMPDEST PUSH0 DUP3 DUP3 SHL SWAP1 POP SWAP3 SWAP2 POP POP JUMP JUMPDEST PUSH0 PUSH1 0x8 DUP4 MUL PUSH3 0x19F PUSH32 0xFFFFFFFFFFFFFFFFFFFFFFFFFFFFFFFFFFFFFFFFFFFFFFFFFFFFFFFFFFFFFFFF DUP3 PUSH3 0x162 JUMP JUMPDEST PUSH3 0x1AB DUP7 DUP4 PUSH3 0x162 JUMP JUMPDEST SWAP6 POP DUP1 NOT DUP5 AND SWAP4 POP DUP1 DUP7 AND DUP5 OR SWAP3 POP POP POP SWAP4 SWAP3 POP POP POP JUMP JUMPDEST PUSH0 DUP2 SWAP1 POP SWAP2 SWAP1 POP JUMP JUMPDEST PUSH0 DUP2 SWAP1 POP SWAP2 SWAP1 POP JUMP JUMPDEST PUSH0 PUSH3 0x1F5 PUSH3 0x1EF PUSH3 0x1E9 DUP5 PUSH3 0x1C3 JUMP JUMPDEST PUSH3 0x1CC JUMP JUMPDEST PUSH3 0x1C3 JUMP JUMPDEST SWAP1 POP SWAP2 SWAP1 POP JUMP JUMPDEST PUSH0 DUP2 SWAP1 POP SWAP2 SWAP1 POP JUMP JUMPDEST PUSH3 0x210 DUP4 PUSH3 0x1D5 JUMP JUMPDEST PUSH3 0x228 PUSH3 0x21F DUP3 PUSH3 0x1FC JUMP JUMPDEST DUP5 DUP5 SLOAD PUSH3 0x16E JUMP JUMPDEST DUP3 SSTORE POP POP POP POP JUMP JUMPDEST PUSH0 SWAP1 JUMP JUMPDEST PUSH3 0x23E PUSH3 0x230 JUMP JUMPDEST PUSH3 0x24B DUP2 DUP5 DUP5 PUSH3 0x205 JUMP JUMPDEST POP POP POP JUMP JUMPDEST JUMPDEST DUP2 DUP2 LT ISZERO PUSH3 0x272 JUMPI PUSH3 0x266 PUSH0 DUP3 PUSH3 0x234 JUMP JUMPDEST PUSH1 0x1 DUP2 ADD SWAP1 POP PUSH3 0x251 JUMP JUMPDEST POP POP JUMP JUMPDEST PUSH1 0x1F DUP3 GT ISZERO PUSH3 0x2C1 JUMPI PUSH3 0x28B DUP2 PUSH3 0x141 JUMP JUMPDEST PUSH3 0x296 DUP5 PUSH3 0x153 JUMP JUMPDEST DUP2 ADD PUSH1 0x20 DUP6 LT ISZERO PUSH3 0x2A6 JUMPI DUP2 SWAP1 POP JUMPDEST PUSH3 0x2BE PUSH3 0x2B5 DUP6 PUSH3 0x153 JUMP JUMPDEST DUP4 ADD DUP3 PUSH3 0x250 JUMP JUMPDEST POP POP JUMPDEST POP POP POP JUMP JUMPDEST PUSH0 DUP3 DUP3 SHR SWAP1 POP SWAP3 SWAP2 POP POP JUMP JUMPDEST PUSH0 PUSH3 0x2E3 PUSH0 NOT DUP5 PUSH1 0x8 MUL PUSH3 0x2C6 JUMP JUMPDEST NOT DUP1 DUP4 AND SWAP2 POP POP SWAP3 SWAP2 POP POP JUMP JUMPDEST PUSH0 PUSH3 0x2FD DUP4 DUP4 PUSH3 0x2D2 JUMP JUMPDEST SWAP2 POP DUP3 PUSH1 0x2 MUL DUP3 OR SWAP1 POP SWAP3 SWAP2 POP POP JUMP JUMPDEST PUSH3 0x318 DUP3 PUSH3 0xA9 JUMP JUMPDEST PUSH8 0xFFFFFFFFFFFFFFFF DUP2 GT ISZERO PUSH3 0x334 JUMPI PUSH3 0x333 PUSH3 0xB3 JUMP JUMPDEST JUMPDEST PUSH3 0x340 DUP3 SLOAD PUSH3 0x10D JUMP JUMPDEST PUSH3 0x34D DUP3 DUP3 DUP6 PUSH3 0x276 JUMP JUMPDEST PUSH0 PUSH1 0x20 SWAP1 POP PUSH1 0x1F DUP4 GT PUSH1 0x1 DUP2 EQ PUSH3 0x383 JUMPI PUSH0 DUP5 ISZERO PUSH3 0x36E JUMPI DUP3 DUP8 ADD MLOAD SWAP1 POP JUMPDEST PUSH3 0x37A DUP6 DUP3 PUSH3 0x2F0 JUMP JUMPDEST DUP7 SSTORE POP PUSH3 0x3E9 JUMP JUMPDEST PUSH1 0x1F NOT DUP5 AND PUSH3 0x393 DUP7 PUSH3 0x141 JUMP JUMPDEST PUSH0 JUMPDEST DUP3 DUP2 LT ISZERO PUSH3 0x3BC JUMPI DUP5 DUP10 ADD MLOAD DUP3 SSTORE PUSH1 0x1 DUP3 ADD SWAP2 POP PUSH1 0x20 DUP6 ADD SWAP5 POP PUSH1 0x20 DUP2 ADD SWAP1 POP PUSH3 0x395 JUMP JUMPDEST DUP7 DUP4 LT ISZERO PUSH3 0x3DC JUMPI DUP5 DUP10 ADD MLOAD PUSH3 0x3D8 PUSH1 0x1F DUP10 AND DUP3 PUSH3 0x2D2 JUMP JUMPDEST DUP4 SSTORE POP JUMPDEST PUSH1 0x1 PUSH1 0x2 DUP9 MUL ADD DUP9 SSTORE POP POP POP JUMPDEST POP POP POP POP POP POP JUMP JUMPDEST PUSH2 0x141A DUP1 PUSH3 0x3FF PUSH0 CODECOPY PUSH0 RETURN INVALID PUSH1 0x80 PUSH1 0x40 MSTORE CALLVALUE DUP1 ISZERO PUSH2 0xF JUMPI PUSH0 DUP1 REVERT JUMPDEST POP PUSH1 0x4 CALLDATASIZE LT PUSH2 0xB2 JUMPI PUSH0 CALLDATALOAD PUSH1 0xE0 SHR DUP1 PUSH4 0x8CBC1A76 GT PUSH2 0x6F JUMPI DUP1 PUSH4 0x8CBC1A76 EQ PUSH2 0x1A0 JUMPI DUP1 PUSH4 0x947A3168 EQ PUSH2 0x1D0 JUMPI DUP1 PUSH4 0xA457C2D7 EQ PUSH2 0x1EE JUMPI DUP1 PUSH4 0xA9059CBB EQ PUSH2 0x21E JUMPI DUP1 PUSH4 0xB4427263 EQ PUSH2 0x24E JUMPI DUP1 PUSH4 0xDD62ED3E EQ PUSH2 0x258 JUMPI PUSH2 0xB2 JUMP JUMPDEST DUP1 PUSH4 0x95EA7B3 EQ PUSH2 0xB6 JUMPI DUP1 PUSH4 0x18160DDD EQ PUSH2 0xE6 JUMPI DUP1 PUSH4 0x1F772A34 EQ PUSH2 0x104 JUMPI DUP1 PUSH4 0x23B872DD EQ PUSH2 0x122 JUMPI DUP1 PUSH4 0x3C4B303D EQ PUSH2 0x152 JUMPI DUP1 PUSH4 0x70A08231 EQ PUSH2 0x170 JUMPI JUMPDEST PUSH0 DUP1 REVERT JUMPDEST PUSH2 0xD0 PUSH1 0x4 DUP1 CALLDATASIZE SUB DUP2 ADD SWAP1 PUSH2 0xCB SWAP2 SWAP1 PUSH2 0xD91 JUMP JUMPDEST PUSH2 0x288 JUMP JUMPDEST PUSH1 0x40 MLOAD PUSH2 0xDD SWAP2 SWAP1 PUSH2 0xDE9 JUMP JUMPDEST PUSH1 0x40 MLOAD DUP1 SWAP2 SUB SWAP1 RETURN JUMPDEST PUSH2 0xEE PUSH2 0x2A3 JUMP JUMPDEST PUSH1 0x40 MLOAD PUSH2 0xFB SWAP2 SWAP1 PUSH2 0xE11 JUMP JUMPDEST PUSH1 0x40 MLOAD DUP1 SWAP2 SUB SWAP1 RETURN JUMPDEST PUSH2 0x10C PUSH2 0x2AC JUMP JUMPDEST PUSH1 0x40 MLOAD PUSH2 0x119 SWAP2 SWAP1 PUSH2 0xEB4 JUMP JUMPDEST PUSH1 0x40 MLOAD DUP1 SWAP2 SUB SWAP1 RETURN JUMPDEST PUSH2 0x13C PUSH1 0x4 DUP1 CALLDATASIZE SUB DUP2 ADD SWAP1 PUSH2 0x137 SWAP2 SWAP1 PUSH2 0xED4 JUMP JUMPDEST PUSH2 0x33C JUMP JUMPDEST PUSH1 0x40 MLOAD PUSH2 0x149 SWAP2 SWAP1 PUSH2 0xDE9 JUMP JUMPDEST PUSH1 0x40 MLOAD DUP1 SWAP2 SUB SWAP1 RETURN JUMPDEST PUSH2 0x15A PUSH2 0x363 JUMP JUMPDEST PUSH1 0x40 MLOAD PUSH2 0x167 SWAP2 SWAP1 PUSH2 0xF3F JUMP JUMPDEST PUSH1 0x40 MLOAD DUP1 SWAP2 SUB SWAP1 RETURN JUMPDEST PUSH2 0x18A PUSH1 0x4 DUP1 CALLDATASIZE SUB DUP2 ADD SWAP1 PUSH2 0x185 SWAP2 SWAP1 PUSH2 0xF58 JUMP JUMPDEST PUSH2 0x36B JUMP JUMPDEST PUSH1 0x40 MLOAD PUSH2 0x197 SWAP2 SWAP1 PUSH2 0xE11 JUMP JUMPDEST PUSH1 0x40 MLOAD DUP1 SWAP2 SUB SWAP1 RETURN JUMPDEST PUSH2 0x1BA PUSH1 0x4 DUP1 CALLDATASIZE SUB DUP2 ADD SWAP1 PUSH2 0x1B5 SWAP2 SWAP1 PUSH2 0xD91 JUMP JUMPDEST PUSH2 0x3B0 JUMP JUMPDEST PUSH1 0x40 MLOAD PUSH2 0x1C7 SWAP2 SWAP1 PUSH2 0xDE9 JUMP JUMPDEST PUSH1 0x40 MLOAD DUP1 SWAP2 SUB SWAP1 RETURN JUMPDEST PUSH2 0x1D8 PUSH2 0x44E JUMP JUMPDEST PUSH1 0x40 MLOAD PUSH2 0x1E5 SWAP2 SWAP1 PUSH2 0xEB4 JUMP JUMPDEST PUSH1 0x40 MLOAD DUP1 SWAP2 SUB SWAP1 RETURN JUMPDEST PUSH2 0x208 PUSH1 0x4 DUP1 CALLDATASIZE SUB DUP2 ADD SWAP1 PUSH2 0x203 SWAP2 SWAP1 PUSH2 0xD91 JUMP JUMPDEST PUSH2 0x4DE JUMP JUMPDEST PUSH1 0x40 MLOAD PUSH2 0x215 SWAP2 SWAP1 PUSH2 0xDE9 JUMP JUMPDEST PUSH1 0x40 MLOAD DUP1 SWAP2 SUB SWAP1 RETURN JUMPDEST PUSH2 0x238 PUSH1 0x4 DUP1 CALLDATASIZE SUB DUP2 ADD SWAP1 PUSH2 0x233 SWAP2 SWAP1 PUSH2 0xD91 JUMP JUMPDEST PUSH2 0x633 JUMP JUMPDEST PUSH1 0x40 MLOAD PUSH2 0x245 SWAP2 SWAP1 PUSH2 0xDE9 JUMP JUMPDEST PUSH1 0x40 MLOAD DUP1 SWAP2 SUB SWAP1 RETURN JUMPDEST PUSH2 0x256 PUSH2 0x64E JUMP JUMPDEST STOP JUMPDEST PUSH2 0x272 PUSH1 0x4 DUP1 CALLDATASIZE SUB DUP2 ADD SWAP1 PUSH2 0x26D SWAP2 SWAP1 PUSH2 0xF83 JUMP JUMPDEST PUSH2 0x65C JUMP JUMPDEST PUSH1 0x40 MLOAD PUSH2 0x27F SWAP2 SWAP1 PUSH2 0xE11 JUMP JUMPDEST PUSH1 0x40 MLOAD DUP1 SWAP2 SUB SWAP1 RETURN JUMPDEST PUSH0 DUP1 CALLER SWAP1 POP PUSH2 0x298 DUP2 DUP6 DUP6 PUSH2 0x6DE JUMP JUMPDEST PUSH1 0x1 SWAP2 POP POP SWAP3 SWAP2 POP POP JUMP JUMPDEST PUSH0 PUSH1 0x2 SLOAD SWAP1 POP SWAP1 JUMP JUMPDEST PUSH1 0x60 PUSH1 0x4 DUP1 SLOAD PUSH2 0x2BB SWAP1 PUSH2 0xFEE JUMP JUMPDEST DUP1 PUSH1 0x1F ADD PUSH1 0x20 DUP1 SWAP2 DIV MUL PUSH1 0x20 ADD PUSH1 0x40 MLOAD SWAP1 DUP2 ADD PUSH1 0x40 MSTORE DUP1 SWAP3 SWAP2 SWAP1 DUP2 DUP2 MSTORE PUSH1 0x20 ADD DUP3 DUP1 SLOAD PUSH2 0x2E7 SWAP1 PUSH2 0xFEE JUMP JUMPDEST DUP1 ISZERO PUSH2 0x332 JUMPI DUP1 PUSH1 0x1F LT PUSH2 0x309 JUMPI PUSH2 0x100 DUP1 DUP4 SLOAD DIV MUL DUP4 MSTORE SWAP2 PUSH1 0x20 ADD SWAP2 PUSH2 0x332 JUMP JUMPDEST DUP3 ADD SWAP2 SWAP1 PUSH0 MSTORE PUSH1 0x20 PUSH0 KECCAK256 SWAP1 JUMPDEST DUP2 SLOAD DUP2 MSTORE SWAP1 PUSH1 0x1 ADD SWAP1 PUSH1 0x20 ADD DUP1 DUP4 GT PUSH2 0x315 JUMPI DUP3 SWAP1 SUB PUSH1 0x1F AND DUP3 ADD SWAP2 JUMPDEST POP POP POP POP POP SWAP1 POP SWAP1 JUMP JUMPDEST PUSH0 DUP1 CALLER SWAP1 POP PUSH2 0x34C DUP6 DUP3 DUP6 PUSH2 0x8A1 JUMP JUMPDEST PUSH2 0x357 DUP6 DUP6 DUP6 PUSH2 0x92A JUMP JUMPDEST PUSH1 0x1 SWAP2 POP POP SWAP4 SWAP3 POP POP POP JUMP JUMPDEST PUSH0 PUSH1 0x12 SWAP1 POP SWAP1 JUMP JUMPDEST PUSH0 DUP1 PUSH0 DUP4 PUSH20 0xFFFFFFFFFFFFFFFFFFFFFFFFFFFFFFFFFFFFFFFF AND PUSH20 0xFFFFFFFFFFFFFFFFFFFFFFFFFFFFFFFFFFFFFFFF AND DUP2 MSTORE PUSH1 0x20 ADD SWAP1 DUP2 MSTORE PUSH1 0x20 ADD PUSH0 KECCAK256 SLOAD SWAP1 POP SWAP2 SWAP1 POP JUMP JUMPDEST PUSH0 DUP1 CALLER SWAP1 POP PUSH2 0x443 DUP2 DUP6 DUP6 PUSH1 0x1 PUSH0 DUP7 PUSH20 0xFFFFFFFFFFFFFFFFFFFFFFFFFFFFFFFFFFFFFFFF AND PUSH20 0xFFFFFFFFFFFFFFFFFFFFFFFFFFFFFFFFFFFFFFFF AND DUP2 MSTORE PUSH1 0x20 ADD SWAP1 DUP2 MSTORE PUSH1 0x20 ADD PUSH0 KECCAK256 PUSH0 DUP10 PUSH20 0xFFFFFFFFFFFFFFFFFFFFFFFFFFFFFFFFFFFFFFFF AND PUSH20 0xFFFFFFFFFFFFFFFFFFFFFFFFFFFFFFFFFFFFFFFF AND DUP2 MSTORE PUSH1 0x20 ADD SWAP1 DUP2 MSTORE PUSH1 0x20 ADD PUSH0 KECCAK256 SLOAD PUSH2 0x43E SWAP2 SWAP1 PUSH2 0x104B JUMP JUMPDEST PUSH2 0x6DE JUMP JUMPDEST PUSH1 0x1 SWAP2 POP POP SWAP3 SWAP2 POP POP JUMP JUMPDEST PUSH1 0x60 PUSH1 0x3 DUP1 SLOAD PUSH2 0x45D SWAP1 PUSH2 0xFEE JUMP JUMPDEST DUP1 PUSH1 0x1F ADD PUSH1 0x20 DUP1 SWAP2 DIV MUL PUSH1 0x20 ADD PUSH1 0x40 MLOAD SWAP1 DUP2 ADD PUSH1 0x40 MSTORE DUP1 SWAP3 SWAP2 SWAP1 DUP2 DUP2 MSTORE PUSH1 0x20 ADD DUP3 DUP1 SLOAD PUSH2 0x489 SWAP1 PUSH2 0xFEE JUMP JUMPDEST DUP1 ISZERO PUSH2 0x4D4 JUMPI DUP1 PUSH1 0x1F LT PUSH2 0x4AB JUMPI PUSH2 0x100 DUP1 DUP4 SLOAD DIV MUL DUP4 MSTORE SWAP2 PUSH1 0x20 ADD SWAP2 PUSH2 0x4D4 JUMP JUMPDEST DUP3 ADD SWAP2 SWAP1 PUSH0 MSTORE PUSH1 0x20 PUSH0 KECCAK256 SWAP1 JUMPDEST DUP2 SLOAD DUP2 MSTORE SWAP1 PUSH1 0x1 ADD SWAP1 PUSH1 0x20 ADD DUP1 DUP4 GT PUSH2 0x4B7 JUMPI DUP3 SWAP1 SUB PUSH1 0x1F AND DUP3 ADD SWAP2 JUMPDEST POP POP POP POP POP SWAP1 POP SWAP1 JUMP JUMPDEST PUSH0 DUP1 CALLER SWAP1 POP PUSH0 PUSH1 0x1 PUSH0 DUP4 PUSH20 0xFFFFFFFFFFFFFFFFFFFFFFFFFFFFFFFFFFFFFFFF AND PUSH20 0xFFFFFFFFFFFFFFFFFFFFFFFFFFFFFFFFFFFFFFFF AND DUP2 MSTORE PUSH1 0x20 ADD SWAP1 DUP2 MSTORE PUSH1 0x20 ADD PUSH0 KECCAK256 PUSH0 DUP7 PUSH20 0xFFFFFFFFFFFFFFFFFFFFFFFFFFFFFFFFFFFFFFFF AND PUSH20 0xFFFFFFFFFFFFFFFFFFFFFFFFFFFFFFFFFFFFFFFF AND DUP2 MSTORE PUSH1 0x20 ADD SWAP1 DUP2 MSTORE PUSH1 0x20 ADD PUSH0 KECCAK256 SLOAD SWAP1 POP PUSH1 0x1 PUSH0 DUP4 PUSH20 0xFFFFFFFFFFFFFFFFFFFFFFFFFFFFFFFFFFFFFFFF AND PUSH20 0xFFFFFFFFFFFFFFFFFFFFFFFFFFFFFFFFFFFFFFFF AND DUP2 MSTORE PUSH1 0x20 ADD SWAP1 DUP2 MSTORE PUSH1 0x20 ADD PUSH0 KECCAK256 PUSH0 DUP7 PUSH20 0xFFFFFFFFFFFFFFFFFFFFFFFFFFFFFFFFFFFFFFFF AND PUSH20 0xFFFFFFFFFFFFFFFFFFFFFFFFFFFFFFFFFFFFFFFF AND DUP2 MSTORE PUSH1 0x20 ADD SWAP1 DUP2 MSTORE PUSH1 0x20 ADD PUSH0 KECCAK256 SLOAD DUP2 LT ISZERO PUSH2 0x61A JUMPI PUSH1 0x40 MLOAD PUSH32 0x8C379A000000000000000000000000000000000000000000000000000000000 DUP2 MSTORE PUSH1 0x4 ADD PUSH2 0x611 SWAP1 PUSH2 0x10EE JUMP JUMPDEST PUSH1 0x40 MLOAD DUP1 SWAP2 SUB SWAP1 REVERT JUMPDEST PUSH2 0x627 DUP3 DUP7 DUP7 DUP5 SUB PUSH2 0x6DE JUMP JUMPDEST PUSH1 0x1 SWAP3 POP POP POP SWAP3 SWAP2 POP POP JUMP JUMPDEST PUSH0 DUP1 CALLER SWAP1 POP PUSH2 0x643 DUP2 DUP6 DUP6 PUSH2 0x92A JUMP JUMPDEST PUSH1 0x1 SWAP2 POP POP SWAP3 SWAP2 POP POP JUMP JUMPDEST PUSH2 0x65A CALLER PUSH2 0x3E8 PUSH2 0xB9F JUMP JUMPDEST JUMP JUMPDEST PUSH0 PUSH1 0x1 PUSH0 DUP5 PUSH20 0xFFFFFFFFFFFFFFFFFFFFFFFFFFFFFFFFFFFFFFFF AND PUSH20 0xFFFFFFFFFFFFFFFFFFFFFFFFFFFFFFFFFFFFFFFF AND DUP2 MSTORE PUSH1 0x20 ADD SWAP1 DUP2 MSTORE PUSH1 0x20 ADD PUSH0 KECCAK256 PUSH0 DUP4 PUSH20 0xFFFFFFFFFFFFFFFFFFFFFFFFFFFFFFFFFFFFFFFF AND PUSH20 0xFFFFFFFFFFFFFFFFFFFFFFFFFFFFFFFFFFFFFFFF AND DUP2 MSTORE PUSH1 0x20 ADD SWAP1 DUP2 MSTORE PUSH1 0x20 ADD PUSH0 KECCAK256 SLOAD SWAP1 POP SWAP3 SWAP2 POP POP JUMP JUMPDEST PUSH0 PUSH20 0xFFFFFFFFFFFFFFFFFFFFFFFFFFFFFFFFFFFFFFFF AND DUP4 PUSH20 0xFFFFFFFFFFFFFFFFFFFFFFFFFFFFFFFFFFFFFFFF AND SUB PUSH2 0x74C JUMPI PUSH1 0x40 MLOAD PUSH32 0x8C379A000000000000000000000000000000000000000000000000000000000 DUP2 MSTORE PUSH1 0x4 ADD PUSH2 0x743 SWAP1 PUSH2 0x1156 JUMP JUMPDEST PUSH1 0x40 MLOAD DUP1 SWAP2 SUB SWAP1 REVERT JUMPDEST PUSH0 PUSH20 0xFFFFFFFFFFFFFFFFFFFFFFFFFFFFFFFFFFFFFFFF AND DUP3 PUSH20 0xFFFFFFFFFFFFFFFFFFFFFFFFFFFFFFFFFFFFFFFF AND SUB PUSH2 0x7BA JUMPI PUSH1 0x40 MLOAD PUSH32 0x8C379A000000000000000000000000000000000000000000000000000000000 DUP2 MSTORE PUSH1 0x4 ADD PUSH2 0x7B1 SWAP1 PUSH2 0x11BE JUMP JUMPDEST PUSH1 0x40 MLOAD DUP1 SWAP2 SUB SWAP1 REVERT JUMPDEST DUP1 PUSH1 0x1 PUSH0 DUP6 PUSH20 0xFFFFFFFFFFFFFFFFFFFFFFFFFFFFFFFFFFFFFFFF AND PUSH20 0xFFFFFFFFFFFFFFFFFFFFFFFFFFFFFFFFFFFFFFFF AND DUP2 MSTORE PUSH1 0x20 ADD SWAP1 DUP2 MSTORE PUSH1 0x20 ADD PUSH0 KECCAK256 PUSH0 DUP5 PUSH20 0xFFFFFFFFFFFFFFFFFFFFFFFFFFFFFFFFFFFFFFFF AND PUSH20 0xFFFFFFFFFFFFFFFFFFFFFFFFFFFFFFFFFFFFFFFF AND DUP2 MSTORE PUSH1 0x20 ADD SWAP1 DUP2 MSTORE PUSH1 0x20 ADD PUSH0 KECCAK256 DUP2 SWAP1 SSTORE POP DUP2 PUSH20 0xFFFFFFFFFFFFFFFFFFFFFFFFFFFFFFFFFFFFFFFF AND DUP4 PUSH20 0xFFFFFFFFFFFFFFFFFFFFFFFFFFFFFFFFFFFFFFFF AND PUSH32 0x8C5BE1E5EBEC7D5BD14F71427D1E84F3DD0314C0F7B2291E5B200AC8C7C3B925 DUP4 PUSH1 0x40 MLOAD PUSH2 0x894 SWAP2 SWAP1 PUSH2 0xE11 JUMP JUMPDEST PUSH1 0x40 MLOAD DUP1 SWAP2 SUB SWAP1 LOG3 POP POP POP JUMP JUMPDEST PUSH0 PUSH2 0x8AC DUP5 DUP5 PUSH2 0x65C JUMP JUMPDEST SWAP1 POP PUSH32 0xFFFFFFFFFFFFFFFFFFFFFFFFFFFFFFFFFFFFFFFFFFFFFFFFFFFFFFFFFFFFFFFF DUP2 EQ PUSH2 0x924 JUMPI DUP2 DUP2 LT ISZERO PUSH2 0x918 JUMPI PUSH1 0x40 MLOAD PUSH32 0x8C379A000000000000000000000000000000000000000000000000000000000 DUP2 MSTORE PUSH1 0x4 ADD PUSH2 0x90F SWAP1 PUSH2 0x1226 JUMP JUMPDEST PUSH1 0x40 MLOAD DUP1 SWAP2 SUB SWAP1 REVERT JUMPDEST PUSH2 0x923 DUP5 DUP5 DUP5 PUSH2 0x6DE JUMP JUMPDEST JUMPDEST POP POP POP POP JUMP JUMPDEST PUSH0 PUSH20 0xFFFFFFFFFFFFFFFFFFFFFFFFFFFFFFFFFFFFFFFF AND DUP4 PUSH20 0xFFFFFFFFFFFFFFFFFFFFFFFFFFFFFFFFFFFFFFFF AND SUB PUSH2 0x998 JUMPI PUSH1 0x40 MLOAD PUSH32 0x8C379A000000000000000000000000000000000000000000000000000000000 DUP2 MSTORE PUSH1 0x4 ADD PUSH2 0x98F SWAP1 PUSH2 0x128E JUMP JUMPDEST PUSH1 0x40 MLOAD DUP1 SWAP2 SUB SWAP1 REVERT JUMPDEST PUSH0 PUSH20 0xFFFFFFFFFFFFFFFFFFFFFFFFFFFFFFFFFFFFFFFF AND DUP3 PUSH20 0xFFFFFFFFFFFFFFFFFFFFFFFFFFFFFFFFFFFFFFFF AND SUB PUSH2 0xA06 JUMPI PUSH1 0x40 MLOAD PUSH32 0x8C379A000000000000000000000000000000000000000000000000000000000 DUP2 MSTORE PUSH1 0x4 ADD PUSH2 0x9FD SWAP1 PUSH2 0x12F6 JUMP JUMPDEST PUSH1 0x40 MLOAD DUP1 SWAP2 SUB SWAP1 REVERT JUMPDEST PUSH2 0xA11 DUP4 DUP4 DUP4 PUSH2 0xCF6 JUMP JUMPDEST PUSH0 DUP1 PUSH0 DUP6 PUSH20 0xFFFFFFFFFFFFFFFFFFFFFFFFFFFFFFFFFFFFFFFF AND PUSH20 0xFFFFFFFFFFFFFFFFFFFFFFFFFFFFFFFFFFFFFFFF AND DUP2 MSTORE PUSH1 0x20 ADD SWAP1 DUP2 MSTORE PUSH1 0x20 ADD PUSH0 KECCAK256 SLOAD SWAP1 POP DUP2 DUP2 LT ISZERO PUSH2 0xA94 JUMPI PUSH1 0x40 MLOAD PUSH32 0x8C379A000000000000000000000000000000000000000000000000000000000 DUP2 MSTORE PUSH1 0x4 ADD PUSH2 0xA8B SWAP1 PUSH2 0x135E JUMP JUMPDEST PUSH1 0x40 MLOAD DUP1 SWAP2 SUB SWAP1 REVERT JUMPDEST DUP2 DUP2 SUB PUSH0 DUP1 DUP7 PUSH20 0xFFFFFFFFFFFFFFFFFFFFFFFFFFFFFFFFFFFFFFFF AND PUSH20 0xFFFFFFFFFFFFFFFFFFFFFFFFFFFFFFFFFFFFFFFF AND DUP2 MSTORE PUSH1 0x20 ADD SWAP1 DUP2 MSTORE PUSH1 0x20 ADD PUSH0 KECCAK256 DUP2 SWAP1 SSTORE POP DUP2 PUSH0 DUP1 DUP6 PUSH20 0xFFFFFFFFFFFFFFFFFFFFFFFFFFFFFFFFFFFFFFFF AND PUSH20 0xFFFFFFFFFFFFFFFFFFFFFFFFFFFFFFFFFFFFFFFF AND DUP2 MSTORE PUSH1 0x20 ADD SWAP1 DUP2 MSTORE PUSH1 0x20 ADD PUSH0 KECCAK256 PUSH0 DUP3 DUP3 SLOAD PUSH2 0xB22 SWAP2 SWAP1 PUSH2 0x104B JUMP JUMPDEST SWAP3 POP POP DUP2 SWAP1 SSTORE POP DUP3 PUSH20 0xFFFFFFFFFFFFFFFFFFFFFFFFFFFFFFFFFFFFFFFF AND DUP5 PUSH20 0xFFFFFFFFFFFFFFFFFFFFFFFFFFFFFFFFFFFFFFFF AND PUSH32 0xDDF252AD1BE2C89B69C2B068FC378DAA952BA7F163C4A11628F55A4DF523B3EF DUP5 PUSH1 0x40 MLOAD PUSH2 0xB86 SWAP2 SWAP1 PUSH2 0xE11 JUMP JUMPDEST PUSH1 0x40 MLOAD DUP1 SWAP2 SUB SWAP1 LOG3 PUSH2 0xB99 DUP5 DUP5 DUP5 PUSH2 0xCFB JUMP JUMPDEST POP POP POP POP JUMP JUMPDEST PUSH0 PUSH20 0xFFFFFFFFFFFFFFFFFFFFFFFFFFFFFFFFFFFFFFFF AND DUP3 PUSH20 0xFFFFFFFFFFFFFFFFFFFFFFFFFFFFFFFFFFFFFFFF AND SUB PUSH2 0xC0D JUMPI PUSH1 0x40 MLOAD PUSH32 0x8C379A000000000000000000000000000000000000000000000000000000000 DUP2 MSTORE PUSH1 0x4 ADD PUSH2 0xC04 SWAP1 PUSH2 0x13C6 JUMP JUMPDEST PUSH1 0x40 MLOAD DUP1 SWAP2 SUB SWAP1 REVERT JUMPDEST PUSH2 0xC18 PUSH0 DUP4 DUP4 PUSH2 0xCF6 JUMP JUMPDEST DUP1 PUSH1 0x2 PUSH0 DUP3 DUP3 SLOAD PUSH2 0xC29 SWAP2 SWAP1 PUSH2 0x104B JUMP JUMPDEST SWAP3 POP POP DUP2 SWAP1 SSTORE POP DUP1 PUSH0 DUP1 DUP5 PUSH20 0xFFFFFFFFFFFFFFFFFFFFFFFFFFFFFFFFFFFFFFFF AND PUSH20 0xFFFFFFFFFFFFFFFFFFFFFFFFFFFFFFFFFFFFFFFF AND DUP2 MSTORE PUSH1 0x20 ADD SWAP1 DUP2 MSTORE PUSH1 0x20 ADD PUSH0 KECCAK256 PUSH0 DUP3 DUP3 SLOAD PUSH2 0xC7B SWAP2 SWAP1 PUSH2 0x104B JUMP JUMPDEST SWAP3 POP POP DUP2 SWAP1 SSTORE POP DUP2 PUSH20 0xFFFFFFFFFFFFFFFFFFFFFFFFFFFFFFFFFFFFFFFF AND PUSH0 PUSH20 0xFFFFFFFFFFFFFFFFFFFFFFFFFFFFFFFFFFFFFFFF AND PUSH32 0xDDF252AD1BE2C89B69C2B068FC378DAA952BA7F163C4A11628F55A4DF523B3EF DUP4 PUSH1 0x40 MLOAD PUSH2 0xCDF SWAP2 SWAP1 PUSH2 0xE11 JUMP JUMPDEST PUSH1 0x40 MLOAD DUP1 SWAP2 SUB SWAP1 LOG3 PUSH2 0xCF2 PUSH0 DUP4 DUP4 PUSH2 0xCFB JUMP JUMPDEST POP POP JUMP JUMPDEST POP POP POP JUMP JUMPDEST POP POP POP JUMP JUMPDEST PUSH0 DUP1 REVERT JUMPDEST PUSH0 PUSH20 0xFFFFFFFFFFFFFFFFFFFFFFFFFFFFFFFFFFFFFFFF DUP3 AND SWAP1 POP SWAP2 SWAP1 POP JUMP JUMPDEST PUSH0 PUSH2 0xD2D DUP3 PUSH2 0xD04 JUMP JUMPDEST SWAP1 POP SWAP2 SWAP1 POP JUMP JUMPDEST PUSH2 0xD3D DUP2 PUSH2 0xD23 JUMP JUMPDEST DUP2 EQ PUSH2 0xD47 JUMPI PUSH0 DUP1 REVERT JUMPDEST POP JUMP JUMPDEST PUSH0 DUP2 CALLDATALOAD SWAP1 POP PUSH2 0xD58 DUP2 PUSH2 0xD34 JUMP JUMPDEST SWAP3 SWAP2 POP POP JUMP JUMPDEST PUSH0 DUP2 SWAP1 POP SWAP2 SWAP1 POP JUMP JUMPDEST PUSH2 0xD70 DUP2 PUSH2 0xD5E JUMP JUMPDEST DUP2 EQ PUSH2 0xD7A JUMPI PUSH0 DUP1 REVERT JUMPDEST POP JUMP JUMPDEST PUSH0 DUP2 CALLDATALOAD SWAP1 POP PUSH2 0xD8B DUP2 PUSH2 0xD67 JUMP JUMPDEST SWAP3 SWAP2 POP POP JUMP JUMPDEST PUSH0 DUP1 PUSH1 0x40 DUP4 DUP6 SUB SLT ISZERO PUSH2 0xDA7 JUMPI PUSH2 0xDA6 PUSH2 0xD00 JUMP JUMPDEST JUMPDEST PUSH0 PUSH2 0xDB4 DUP6 DUP3 DUP7 ADD PUSH2 0xD4A JUMP JUMPDEST SWAP3 POP POP PUSH1 0x20 PUSH2 0xDC5 DUP6 DUP3 DUP7 ADD PUSH2 0xD7D JUMP JUMPDEST SWAP2 POP POP SWAP3 POP SWAP3 SWAP1 POP JUMP JUMPDEST PUSH0 DUP2 ISZERO ISZERO SWAP1 POP SWAP2 SWAP1 POP JUMP JUMPDEST PUSH2 0xDE3 DUP2 PUSH2 0xDCF JUMP JUMPDEST DUP3 MSTORE POP POP JUMP JUMPDEST PUSH0 PUSH1 0x20 DUP3 ADD SWAP1 POP PUSH2 0xDFC PUSH0 DUP4 ADD DUP5 PUSH2 0xDDA JUMP JUMPDEST SWAP3 SWAP2 POP POP JUMP JUMPDEST PUSH2 0xE0B DUP2 PUSH2 0xD5E JUMP JUMPDEST DUP3 MSTORE POP POP JUMP JUMPDEST PUSH0 PUSH1 0x20 DUP3 ADD SWAP1 POP PUSH2 0xE24 PUSH0 DUP4 ADD DUP5 PUSH2 0xE02 JUMP JUMPDEST SWAP3 SWAP2 POP POP JUMP JUMPDEST PUSH0 DUP2 MLOAD SWAP1 POP SWAP2 SWAP1 POP JUMP JUMPDEST PUSH0 DUP3 DUP3 MSTORE PUSH1 0x20 DUP3 ADD SWAP1 POP SWAP3 SWAP2 POP POP JUMP JUMPDEST PUSH0 JUMPDEST DUP4 DUP2 LT ISZERO PUSH2 0xE61 JUMPI DUP1 DUP3 ADD MLOAD DUP2 DUP5 ADD MSTORE PUSH1 0x20 DUP2 ADD SWAP1 POP PUSH2 0xE46 JUMP JUMPDEST PUSH0 DUP5 DUP5 ADD MSTORE POP POP POP POP JUMP JUMPDEST PUSH0 PUSH1 0x1F NOT PUSH1 0x1F DUP4 ADD AND SWAP1 POP SWAP2 SWAP1 POP JUMP JUMPDEST PUSH0 PUSH2 0xE86 DUP3 PUSH2 0xE2A JUMP JUMPDEST PUSH2 0xE90 DUP2 DUP6 PUSH2 0xE34 JUMP JUMPDEST SWAP4 POP PUSH2 0xEA0 DUP2 DUP6 PUSH1 0x20 DUP7 ADD PUSH2 0xE44 JUMP JUMPDEST PUSH2 0xEA9 DUP2 PUSH2 0xE6C JUMP JUMPDEST DUP5 ADD SWAP2 POP POP SWAP3 SWAP2 POP POP JUMP JUMPDEST PUSH0 PUSH1 0x20 DUP3 ADD SWAP1 POP DUP2 DUP2 SUB PUSH0 DUP4 ADD MSTORE PUSH2 0xECC DUP2 DUP5 PUSH2 0xE7C JUMP JUMPDEST SWAP1 POP SWAP3 SWAP2 POP POP JUMP JUMPDEST PUSH0 DUP1 PUSH0 PUSH1 0x60 DUP5 DUP7 SUB SLT ISZERO PUSH2 0xEEB JUMPI PUSH2 0xEEA PUSH2 0xD00 JUMP JUMPDEST JUMPDEST PUSH0 PUSH2 0xEF8 DUP7 DUP3 DUP8 ADD PUSH2 0xD4A JUMP JUMPDEST SWAP4 POP POP PUSH1 0x20 PUSH2 0xF09 DUP7 DUP3 DUP8 ADD PUSH2 0xD4A JUMP JUMPDEST SWAP3 POP POP PUSH1 0x40 PUSH2 0xF1A DUP7 DUP3 DUP8 ADD PUSH2 0xD7D JUMP JUMPDEST SWAP2 POP POP SWAP3 POP SWAP3 POP SWAP3 JUMP JUMPDEST PUSH0 PUSH1 0xFF DUP3 AND SWAP1 POP SWAP2 SWAP1 POP JUMP JUMPDEST PUSH2 0xF39 DUP2 PUSH2 0xF24 JUMP JUMPDEST DUP3 MSTORE POP POP JUMP JUMPDEST PUSH0 PUSH1 0x20 DUP3 ADD SWAP1 POP PUSH2 0xF52 PUSH0 DUP4 ADD DUP5 PUSH2 0xF30 JUMP JUMPDEST SWAP3 SWAP2 POP POP JUMP JUMPDEST PUSH0 PUSH1 0x20 DUP3 DUP5 SUB SLT ISZERO PUSH2 0xF6D JUMPI PUSH2 0xF6C PUSH2 0xD00 JUMP JUMPDEST JUMPDEST PUSH0 PUSH2 0xF7A DUP5 DUP3 DUP6 ADD PUSH2 0xD4A JUMP JUMPDEST SWAP2 POP POP SWAP3 SWAP2 POP POP JUMP JUMPDEST PUSH0 DUP1 PUSH1 0x40 DUP4 DUP6 SUB SLT ISZERO PUSH2 0xF99 JUMPI PUSH2 0xF98 PUSH2 0xD00 JUMP JUMPDEST JUMPDEST PUSH0 PUSH2 0xFA6 DUP6 DUP3 DUP7 ADD PUSH2 0xD4A JUMP JUMPDEST SWAP3 POP POP PUSH1 0x20 PUSH2 0xFB7 DUP6 DUP3 DUP7 ADD PUSH2 0xD4A JUMP JUMPDEST SWAP2 POP POP SWAP3 POP SWAP3 SWAP1 POP JUMP JUMPDEST PUSH32 0x4E487B7100000000000000000000000000000000000000000000000000000000 PUSH0 MSTORE PUSH1 0x22 PUSH1 0x4 MSTORE PUSH1 0x24 PUSH0 REVERT JUMPDEST PUSH0 PUSH1 0x2 DUP3 DIV SWAP1 POP PUSH1 0x1 DUP3 AND DUP1 PUSH2 0x1005 JUMPI PUSH1 0x7F DUP3 AND SWAP2 POP JUMPDEST PUSH1 0x20 DUP3 LT DUP2 SUB PUSH2 0x1018 JUMPI PUSH2 0x1017 PUSH2 0xFC1 JUMP JUMPDEST JUMPDEST POP SWAP2 SWAP1 POP JUMP JUMPDEST PUSH32 0x4E487B7100000000000000000000000000000000000000000000000000000000 PUSH0 MSTORE PUSH1 0x11 PUSH1 0x4 MSTORE PUSH1 0x24 PUSH0 REVERT JUMPDEST PUSH0 PUSH2 0x1055 DUP3 PUSH2 0xD5E JUMP JUMPDEST SWAP2 POP PUSH2 0x1060 DUP4 PUSH2 0xD5E JUMP JUMPDEST SWAP3 POP DUP3 DUP3 ADD SWAP1 POP DUP1 DUP3 GT ISZERO PUSH2 0x1078 JUMPI PUSH2 0x1077 PUSH2 0x101E JUMP JUMPDEST JUMPDEST SWAP3 SWAP2 POP POP JUMP JUMPDEST PUSH32 0x45524332303A2064656372656173656420616C6C6F77616E63652062656C6F77 PUSH0 DUP3 ADD MSTORE PUSH32 0x207A65726F000000000000000000000000000000000000000000000000000000 PUSH1 0x20 DUP3 ADD MSTORE POP JUMP JUMPDEST PUSH0 PUSH2 0x10D8 PUSH1 0x25 DUP4 PUSH2 0xE34 JUMP JUMPDEST SWAP2 POP PUSH2 0x10E3 DUP3 PUSH2 0x107E JUMP JUMPDEST PUSH1 0x40 DUP3 ADD SWAP1 POP SWAP2 SWAP1 POP JUMP JUMPDEST PUSH0 PUSH1 0x20 DUP3 ADD SWAP1 POP DUP2 DUP2 SUB PUSH0 DUP4 ADD MSTORE PUSH2 0x1105 DUP2 PUSH2 0x10CC JUMP JUMPDEST SWAP1 POP SWAP2 SWAP1 POP JUMP JUMPDEST PUSH32 0x45524332303A20617070726F76652066726F6D207A65726F2061646472657373 PUSH0 DUP3 ADD MSTORE POP JUMP JUMPDEST PUSH0 PUSH2 0x1140 PUSH1 0x20 DUP4 PUSH2 0xE34 JUMP JUMPDEST SWAP2 POP PUSH2 0x114B DUP3 PUSH2 0x110C JUMP JUMPDEST PUSH1 0x20 DUP3 ADD SWAP1 POP SWAP2 SWAP1 POP JUMP JUMPDEST PUSH0 PUSH1 0x20 DUP3 ADD SWAP1 POP DUP2 DUP2 SUB PUSH0 DUP4 ADD MSTORE PUSH2 0x116D DUP2 PUSH2 0x1134 JUMP JUMPDEST SWAP1 POP SWAP2 SWAP1 POP JUMP JUMPDEST PUSH32 0x45524332303A20617070726F766520746F207A65726F20616464726573730000 PUSH0 DUP3 ADD MSTORE POP JUMP JUMPDEST PUSH0 PUSH2 0x11A8 PUSH1 0x1E DUP4 PUSH2 0xE34 JUMP JUMPDEST SWAP2 POP PUSH2 0x11B3 DUP3 PUSH2 0x1174 JUMP JUMPDEST PUSH1 0x20 DUP3 ADD SWAP1 POP SWAP2 SWAP1 POP JUMP JUMPDEST PUSH0 PUSH1 0x20 DUP3 ADD SWAP1 POP DUP2 DUP2 SUB PUSH0 DUP4 ADD MSTORE PUSH2 0x11D5 DUP2 PUSH2 0x119C JUMP JUMPDEST SWAP1 POP SWAP2 SWAP1 POP JUMP JUMPDEST PUSH32 0x45524332303A20696E73756666696369656E742062616C616E63657300000000 PUSH0 DUP3 ADD MSTORE POP JUMP JUMPDEST PUSH0 PUSH2 0x1210 PUSH1 0x1C DUP4 PUSH2 0xE34 JUMP JUMPDEST SWAP2 POP PUSH2 0x121B DUP3 PUSH2 0x11DC JUMP JUMPDEST PUSH1 0x20 DUP3 ADD SWAP1 POP SWAP2 SWAP1 POP JUMP JUMPDEST PUSH0 PUSH1 0x20 DUP3 ADD SWAP1 POP DUP2 DUP2 SUB PUSH0 DUP4 ADD MSTORE PUSH2 0x123D DUP2 PUSH2 0x1204 JUMP JUMPDEST SWAP1 POP SWAP2 SWAP1 POP JUMP JUMPDEST PUSH32 0x45524332303A206F776E6572206164647265737320697320656D707479000000 PUSH0 DUP3 ADD MSTORE POP JUMP JUMPDEST PUSH0 PUSH2 0x1278 PUSH1 0x1D DUP4 PUSH2 0xE34 JUMP JUMPDEST SWAP2 POP PUSH2 0x1283 DUP3 PUSH2 0x1244 JUMP JUMPDEST PUSH1 0x20 DUP3 ADD SWAP1 POP SWAP2 SWAP1 POP JUMP JUMPDEST PUSH0 PUSH1 0x20 DUP3 ADD SWAP1 POP DUP2 DUP2 SUB PUSH0 DUP4 ADD MSTORE PUSH2 0x12A5 DUP2 PUSH2 0x126C JUMP JUMPDEST SWAP1 POP SWAP2 SWAP1 POP JUMP JUMPDEST PUSH32 0x45524332303A207265636569766572206164647265737320697320656D707479 PUSH0 DUP3 ADD MSTORE POP JUMP JUMPDEST PUSH0 PUSH2 0x12E0 PUSH1 0x20 DUP4 PUSH2 0xE34 JUMP JUMPDEST SWAP2 POP PUSH2 0x12EB DUP3 PUSH2 0x12AC JUMP JUMPDEST PUSH1 0x20 DUP3 ADD SWAP1 POP SWAP2 SWAP1 POP JUMP JUMPDEST PUSH0 PUSH1 0x20 DUP3 ADD SWAP1 POP DUP2 DUP2 SUB PUSH0 DUP4 ADD MSTORE PUSH2 0x130D DUP2 PUSH2 0x12D4 JUMP JUMPDEST SWAP1 POP SWAP2 SWAP1 POP JUMP JUMPDEST PUSH32 0x45524332303A206E6F742073756666696369656E7420616D6F756E7400000000 PUSH0 DUP3 ADD MSTORE POP JUMP JUMPDEST PUSH0 PUSH2 0x1348 PUSH1 0x1C DUP4 PUSH2 0xE34 JUMP JUMPDEST SWAP2 POP PUSH2 0x1353 DUP3 PUSH2 0x1314 JUMP JUMPDEST PUSH1 0x20 DUP3 ADD SWAP1 POP SWAP2 SWAP1 POP JUMP JUMPDEST PUSH0 PUSH1 0x20 DUP3 ADD SWAP1 POP DUP2 DUP2 SUB PUSH0 DUP4 ADD MSTORE PUSH2 0x1375 DUP2 PUSH2 0x133C JUMP JUMPDEST SWAP1 POP SWAP2 SWAP1 POP JUMP JUMPDEST PUSH32 0x45524332303A206164647265737320697320656D707479000000000000000000 PUSH0 DUP3 ADD MSTORE POP JUMP JUMPDEST PUSH0 PUSH2 0x13B0 PUSH1 0x17 DUP4 PUSH2 0xE34 JUMP JUMPDEST SWAP2 POP PUSH2 0x13BB DUP3 PUSH2 0x137C JUMP JUMPDEST PUSH1 0x20 DUP3 ADD SWAP1 POP SWAP2 SWAP1 POP JUMP JUMPDEST PUSH0 PUSH1 0x20 DUP3 ADD SWAP1 POP DUP2 DUP2 SUB PUSH0 DUP4 ADD MSTORE PUSH2 0x13DD DUP2 PUSH2 0x13A4 JUMP JUMPDEST SWAP1 POP SWAP2 SWAP1 POP JUMP INVALID LOG2 PUSH5 0x6970667358 0x22 SLT KECCAK256 PUSH3 0x565E4F SAR BYTE SIGNEXTEND DUP11 PC PUSH7 0xCCAC22374BE1E4 0x22 DIV LOG2 0xA7 0xE PUSH10 0x93E503FDE5F621B06E64 PUSH20 0x6F6C634300081500330000000000000000000000 "
				},
				"gasEstimates": {
					"creation": {
						"codeDepositCost": "1029200",
						"executionCost": "infinite",
						"totalCost": "infinite"
					},
					"external": {
						"allowance(address,address)": "infinite",
						"approve(address,uint256)": "infinite",
						"balanceOf(address)": "2940",
						"createTokens()": "infinite",
						"decreaseAllowance(address,uint256)": "infinite",
						"incrementAllowance(address,uint256)": "infinite",
						"token_decimals()": "427",
						"token_name()": "infinite",
						"token_symbol()": "infinite",
						"totalSupply()": "2455",
						"transfer(address,uint256)": "infinite",
						"transferFrom(address,address,uint256)": "infinite"
					}
				},
				"methodIdentifiers": {
					"allowance(address,address)": "dd62ed3e",
					"approve(address,uint256)": "095ea7b3",
					"balanceOf(address)": "70a08231",
					"createTokens()": "b4427263",
					"decreaseAllowance(address,uint256)": "a457c2d7",
					"incrementAllowance(address,uint256)": "8cbc1a76",
					"token_decimals()": "3c4b303d",
					"token_name()": "947a3168",
					"token_symbol()": "1f772a34",
					"totalSupply()": "18160ddd",
					"transfer(address,uint256)": "a9059cbb",
					"transferFrom(address,address,uint256)": "23b872dd"
				}
			},
			"storageLayout": {
				"storage": [
					{
						"astId": 74,
						"contract": "contracts/customERC20.sol:customERC20",
						"label": "users_balances",
						"offset": 0,
						"slot": "0",
						"type": "t_mapping(t_address,t_uint256)"
					},
					{
						"astId": 80,
						"contract": "contracts/customERC20.sol:customERC20",
						"label": "users_allowances",
						"offset": 0,
						"slot": "1",
						"type": "t_mapping(t_address,t_mapping(t_address,t_uint256))"
					},
					{
						"astId": 82,
						"contract": "contracts/customERC20.sol:customERC20",
						"label": "total_supply",
						"offset": 0,
						"slot": "2",
						"type": "t_uint256"
					},
					{
						"astId": 84,
						"contract": "contracts/customERC20.sol:customERC20",
						"label": "name",
						"offset": 0,
						"slot": "3",
						"type": "t_string_storage"
					},
					{
						"astId": 86,
						"contract": "contracts/customERC20.sol:customERC20",
						"label": "symbol",
						"offset": 0,
						"slot": "4",
						"type": "t_string_storage"
					}
				],
				"types": {
					"t_address": {
						"encoding": "inplace",
						"label": "address",
						"numberOfBytes": "20"
					},
					"t_mapping(t_address,t_mapping(t_address,t_uint256))": {
						"encoding": "mapping",
						"key": "t_address",
						"label": "mapping(address => mapping(address => uint256))",
						"numberOfBytes": "32",
						"value": "t_mapping(t_address,t_uint256)"
					},
					"t_mapping(t_address,t_uint256)": {
						"encoding": "mapping",
						"key": "t_address",
						"label": "mapping(address => uint256)",
						"numberOfBytes": "32",
						"value": "t_uint256"
					},
					"t_string_storage": {
						"encoding": "bytes",
						"label": "string",
						"numberOfBytes": "32"
					},
					"t_uint256": {
						"encoding": "inplace",
						"label": "uint256",
						"numberOfBytes": "32"
					}
				}
			},
			"userdoc": {
				"kind": "user",
				"methods": {},
				"version": 1
			}
		}
	}
}